:0600000002006B0223E880
:03000B00022B5570
:0300130002243B89
:01001B0032B2
:0300230002235065
:03002B00022D356E
:01003300329A
:03003B0002248E0E
:0300430002231184
:01004B003282
:0300530002239CE9
:01005B003272
:03006300022D3338
:030066000224E28F
:02006900E4733E
:0D006B0075817D1224EDE5826003020066C0
:100078007924E94401601B7A029035D5782B75A064
:1000880001E493F2A308B8000205A0D9F4DAF275E6
:02009800A0FFC7
:06009A00E478FFF6D8FD3A
:1000A0007800E84400600A799475A000E4F309D868
:1000B000FC7897E84400600C7901900094E4F0A388
:0400C000D8FCD9FA95
:1000C4007522E275232475240075250075260075B4
:1000D40027007528FF752961752AFF752BFF752C7C
:1000E40002752D00752E02752F027530FF7531FFD4
:1000F4007532FF7533FF7534807535637536FF755A
:1001040037FF7538FF7539FF753AFF753BFF753C4E
:10011400FF753DFF753E80753F767540FF7541FF65
:100124007542FF75438775446C7545FF7546FF75C9
:0A01340047FF754801E4F549F54A5C
:02013E00C200FD
:0E0140007808E4F608F608F608F6780C760063
:0B014E00757601E4F577F5787579808F
:02015900C204DE
:02015B00C205DB
:03015D0002006637
:10016100758200122A53AF827E007D007C008F824F
:100171008E838DF0EC122D371218BB9000D27402D1
:10018100F075820F1228D79000D27402F075821098
:100191001228D79000D27402F075820E1228D775FA
:1001A1008200122B45AF82758201C007122B45AE2A
:1001B10082758202C006122B45AD82758203C0058D
:1001C100122B45AC82758204C004122B45AB82759B
:1001D1008205C003122B4585824B758206122B4581
:1001E10085824C758207122B4585824D75820812D6
:1001F1002B45AA82D003D004D005D006D007BFFF7B
:100201000280028F28BEFF0280028E29BDFF02807C
:10021100028D2ABCFF0280028C2CBBFF0280028B64
:100221002D74FFB54B028003854B2E74FFB54C0234
:100231008003854C3074FFB54D028003854D31BA82
:10024100FF0280028A327E007F00C3EE941EEF64BB
:1002510080948050778E0574092DF582C007C00601
:10026100122B45AD82D006D007BDFF02800CEE24D3
:100271002BF582EF3401F583EDF08E0574272DF512
:1002810082C007C006122B45AD82D006D007BDFF44
:1002910002800CEE2449F582EF3401F583EDF08EF6
:1002A1000574452DF582C007C006122B45AD82D0DD
:1002B10006D007BDFF02800CEE2467F582EF340102
:1002C100F583EDF00EBE00010F02024B7E007F00B0
:1002D100C3EE9405EF6480948040030203638E05AE
:1002E10074632DF582C007C006122B45AD82D0067E
:1002F100D007BDFF028006EE2434F8A6058E0574F2
:10030100682DF582C007C006122B45AD82D006D0FC
:1003110007BDFF028006EE2439F8A6058E05746D2F
:100321002DF582C007C006122B45AD82D006D0073D
:10033100BDFF028006EE243EF8A6058E0574752DDC
:10034100F582C007C006122B45AD82D006D007BD8D
:10035100FF028006EE2443F8A6050EBE00010F023F
:1003610002D1758272122B45AF82BFFF0280028FCC
:100371002B758273122B45AF82BFFF0280028F2F34
:10038100758274122B45AF82BFFF0280028F3375D5
:10039100827A122B45AF82BFFF01228F48221218A9
:1003A1005CE582700302076A121863AF82BF0A021A
:1003B10080ECBF0D0280E7C3749A95497480854A29
:1003C100F063F08095F05005E4F549F54AE54945BB
:1003D1004A7003BF02C87401B5490614B54A0280C8
:1003E10003020751BF03028003020751903349758D
:1003F100F08012289E9017F212260BAB287C007D0C
:10040100007E009000CF7410F08B828C838DF0EE13
:100411001228399017F212260BAB297C007D007E41
:10042100009000CF7410F08B828C838DF0EE122837
:10043100399017F212260BAB2A7C007D007E0090CA
:1004410000CF7410F08B828C838DF0EE12283990DE
:1004510017F212260BAB2C7C007D007E009000D0A1
:100461007410F08B828C838DF0EE1228799017F244
:1004710012260BAB2D7C007D007E009000D0741005
:10048100F08B828C838DF0EE1228799017F2122670
:100491000BAB2E7C007D007E009000D07410F08BA1
:1004A100828C838DF0EE1228799017F212260BAB15
:1004B100307C007D007E009000CF7410F08B828C28
:1004C100838DF0EE1228399017F212260BAB317C96
:1004D100007D007E009000CF7410F08B828C838DA4
:1004E100F0EE1228399017F212260BAB327C007D08
:1004F100007E009000CF7410F08B828C838DF0EE23
:100501001228399017F212260B7D007E00C3ED945C
:100511001EEE648094805025ED242BF582EE34018B
:10052100F583E0FCBCFF0280148C82C006C005127A
:1005310017F2D005D0060DBD00D30E80D012281DB4
:100541009017F212260B7D007E00C3ED941EEE641F
:100551008094805025ED2449F582EE3401F583E045
:10056100FCBCFF0280148C82C006C0051217F2D0B9
:1005710005D0060DBD00D30E80D012281D9017F2B4
:1005810012260B7D007E00C3ED941EEE64809480E4
:100591005025ED2467F582EE3401F583E0FCBCFFC4
:1005A1000280148C82C006C0051217F2D005D00655
:1005B1000DBD00D30E80D012281D9017F212260B0C
:1005C100E4F54EF54FC3E54E9405E54F6480948004
:1005D100502FE54E2434F987048C027B007C007E89
:1005E100009000CF7410F08A828B838CF0EE122879
:1005F100399017F212260B054EE4B54EC8054F800F
:10060100C4E4F550F551C3E5509405E55164809477
:1006110080502FE5502439F987048C027B007C003F
:100621007E009000CF7410F08A828B838CF0EE12E2
:1006310028399017F212260B0550E4B550C8055120
:1006410080C4E4F552F553C3E5529405E553648043
:100651009480502FE552243EF987048C027B007C64
:10066100007E009000CF7410F08A828B838CF0EEB4
:100671001228399017F212260B0552E4B552C8051B
:100681005380C4AB2B7C007D007E009000CF7410A2
:10069100F08B828C838DF0EE1228399017F212269E
:1006A1000BAB2F7C007D007E009000D07410F08B8E
:1006B100828C838DF0EE1228799017F212260BAB03
:1006C100337C007D007E009000CF7410F08B828C13
:1006D100838DF0EE1228399017F212260B12281D85
:1006E1009017F212260BE4F554F555C3E554940521
:1006F100E55564809480502FE5542443F987048C98
:10070100027B007C007E009000CF7410F08A828B07
:10071100838CF0EE1228399017F212260B0554E45F
:10072100B554C8055580C4AB487C007D007E00905F
:1007310000D07410F08B828C838DF0EE12287990AA
:1007410017F212260B1217DAE4F549F54A02039F54
:10075100E5492485F582E54A3401F583EFF0054941
:10076100E4B54902054A02039F749BB54906E4B505
:100771004A028003020961E4F549F54A900185E0E6
:10078100FFBF0202800302096190021FE0FFBF0365
:10079100028003020961900099744CF07433A3F054
:1007A1007480A3F09017F212254F1217DA7E007FA2
:1007B10000C3EE9475EF64809480502774012EFC81
:1007C100E43FFDEC2485F582ED3401F583E0F5820B
:1007D1008E83C005C004122B0FD004D0058C068D6A
:1007E1000780CE900219E0F582758375122B0F9068
:1007F100021AE0F582758376122B0F90021BE0F549
:1008010082758377122B0F90021CE0F58275837835
:10081100122B0F90021DE0F582758379122B0F9038
:10082100021EE0F58275837A122B0F900186E0F5A6
:1008310028900187E0F529900188E0F52A90018947
:10084100E0F52C90018AE0F52D90018BE0F52E90DA
:10085100018CE0F53090018DE0F53190018EE0F5ED
:10086100327E007F00C3EE941EEF64809480506559
:10087100EE242BFCEF3401FD740A2EFAE43FFBEA6F
:100881002485F582EB3401F583E08C828D83F0EED3
:100891002449FCEF3401FD74282EFAE43FFBEA24DD
:1008A10085F582EB3401F583E08C828D83F0EE24B3
:1008B10067FCEF3401FD74462EFAE43FFBEA248520
:1008C100F582EB3401F583E0FB8C828D83F00EBE63
:1008D10000930F80907E007F00C3EE9405EF64804B
:1008E10094805064EE2434F974642EFCE43FFDECF2
:1008F1002485F582ED3401F583E0F7EE2439F974AE
:10090100692EFCE43FFDEC2485F582ED3401F5838D
:10091100E0F7EE243EF9746E2EFCE43FFDEC2485F5
:10092100F582ED3401F583E0F7EE2443F974942E5A
:10093100FCE43FFDEC2485F582ED3401F583E0FD17
:10094100F70EBE00940F80919001F8E0F52B900115
:10095100F9E0F52F9001FAE0F53390021EE0F54839
:1009610075820F12298EE582B40100E433FF75828E
:1009710010C00712298EAE82D007EEB40100E43315
:10098100F55675820EC00712298EAD82D007EDB4DF
:100991000100E433F5577401B548028003020DC626
:1009A100E5276003020D35EFB52403020DC9E556B5
:1009B100B52503020DC9E557B52603020DC9EF7030
:1009C10003020DC9E5567003020DC9E55770030214
:1009D1000DC97527018F24855625855726E52F706A
:1009E1000D852B82C0071219DFD007020DC97401D2
:1009F100B52F3574FFB53302801CAC337B00AA2BB5
:100A01007D00EA2BFBED3CFC8B828C83C007121B23
:100A110039D007020DC9AC2B7D008C828D83C007B4
:100A2100121B39D007020DC97402B52F357C007D28
:100A310000C3EC9405ED648094804003020DC9EC81
:100A41002443F98703BBFF0280118B82C007C005D5
:100A5100C0041219DFD004D005D0070CBC00D20DA0
:100A610080CF7403B52F03020DC97404B52F51E56E
:100A710033700D852B82C007121C4ED007020DC9A1
:100A81007401B533028003020DC9852B82C00712A0
:100A91001C4E75820F12298EE582D007701C75825B
:100AA10010C00712298EE582D007700E75820EC024
:100AB1000712298EE582D00760D0752700020DC983
:100AC1007405B52F028003020B84900014E4F5F045
:100AD100C007122D4CE58224F6FA900014E4F5F0DB
:100AE100C002122D4CAB82D002EB24F6F5108A82A3
:100AF100121C75900064E4F5F0122C1275820F122D
:100B0100298EE582D007701C758210C00712298ECC
:100B1100E582D007700E75820EC00712298EE5821C
:100B2100D00760A6900014E4F5F0C007122D4CE543
:100B31008224F6FB900014E4F5F0C003122D4CAAB8
:100B410082D003EA24F6F5108B82121C75900064A2
:100B5100E4F5F0122C1275820F12298EE582D0076E
:100B610070C2758210C00712298EE582D00770B459
:100B710075820EC00712298EE582D00770A6F5276F
:100B8100020DC97406B52F6D7401B53317E52B2419
:100B9100E1FEC3E49EF510758200C007121C75D0FA
:100BA10007020DC97402B53313E52B24E1F5107565
:100BB1008200C007121C75D007020DC97403B5333A
:100BC10017E52B24E1FEC3E49EF582751000C007F2
:100BD100121C75D007020DC97404B53302800302DB
:100BE1000DC9E52B24E1F582751000C007121C75B3
:100BF100D007020DC97407B52F028003020C9E7441
:100C010001B53316E52B24E1FEC3E49EF510758290
:100C110000C007121C75D00780477402B53312E576
:100C21002B24E1F510758200C007121C75D00780D6
:100C3100307403B53316E52B24E1FEC3E49EF5823F
:100C4100751000C007121C75D00780157404B533E8
:100C510010E52B24E1F582751000C007121C75D038
:100C610007900064E4F5F0C007122C1275820F1290
:100C7100298EE582D007701F758210C00712298E58
:100C8100E582D007701175820EC00712298EE582A8
:100C9100D0077003020C00752700020DC97408B556
:100CA1002F2C7401B5330D852B82C007121C95D0F2
:100CB10007020DC97402B533028003020DC9C3E4F2
:100CC100952BF582C007121C95D007020DC9740936
:100CD100B52F028003020DC97401B5330C852B8237
:100CE100C007121C95D00780127402B5330DC3E4FE
:100CF100952BF582C007121C95D007900064E4F58E
:100D0100F0C007122C1275820F12298EE582D007CE
:100D1100701C758210C00712298EE582D007700EF3
:100D210075820EC00712298EE582D00760AA752749
:100D310000020DC9EF600BE5566007E5576003023D
:100D41000DC98F24855625855726E52F700C852BD7
:100D510082C007121AA0D00780667401B52F3174C2
:100D6100FFB533028019AE337D00AB2B7C00EB2D38
:100D7100FDEC3EFE8D828E83C007121BC6D007ADEF
:100D81002B7E008D828E83C007121BC6D007803058
:100D91007402B52F2B7D047E00EE20E723ED244362
:100DA100F98704BCFF0280118C82C007C006C00510
:100DB100121AA0D005D006D0071DBDFF011E80D993
:100DC1007527008003752700E5276003021710EFE0
:100DD100B524030210E4EFF524700302107EE52C24
:100DE10070098528821219DF0210E47401B52C2ADA
:100DF10074FFB530028015AF307E00AC287D00EC69
:100E01002EFEED3FFF8E828F83121B39AE287F00AD
:100E11008E828F83121B390210E47402B52C317E4D
:100E2100007F00C3EE9405EF6480948040030210BC
:100E3100E4EE2434F98705BDFF02800D8D82C007E1
:100E4100C0061219DFD006D0070EBE00D60F80D320
:100E51007403B52C477E007F00C3EE941EEF6480BF
:100E610094805025EE242BF582EF3401F583E0FDCB
:100E7100BDFF0280148D82C007C006121C06D00679
:100E8100D0070EBE00D30F80D07401B530028003AD
:100E91000210E47582B0121C060210E47404B52C31
:100EA1002AE5307009852882121C4E0210E4740173
:100EB100B5300280030210E4852882121C4E75822F
:100EC1000F12298EE58260F00210E47405B52C0240
:100ED10080028077900014E4F5F0122D4CE5822415
:100EE100F6FC900014E4F5F0C004122D4CAB82D056
:100EF10004EB24F6F5108C82121C75900064E4F565
:100F0100F0122C1275820F12298EE58260C69000B4
:100F110014E4F5F0122D4CE58224F6FC900014E463
:100F2100F5F0C004122D4CAB82D004EB24F6F51081
:100F31008C82121C75900064E4F5F0122C127582FB
:100F41000F12298EE58270C60210E47406B52C5D7D
:100F51007401B53013E52824E1FFC3E49FF5107552
:100F61008200121C750210E47402B5300FE52824CA
:100F7100E1F510758200121C750210E47403B5309E
:100F810013E52824E1FFC3E49FF582751000121CCC
:100F9100750210E47404B5300280030210E4E52800
:100FA10024E1F582751000121C750210E47407B576
:100FB1002C687401B53012E52824E1FFC3E49FF5E4
:100FC10010758200121C75803B7402B5300EE52845
:100FD10024E1F510758200121C7580287403B53068
:100FE10012E52824E1FFC3E49FF582751000121C6D
:100FF1007580117404B5300CE52824E1F582751073
:1010010000121C75900064E4F5F0122C1275820F29
:1010110012298EE582609B0210E47408B52C2474B9
:1010210001B53009852882121C950210E47402B5BD
:10103100300280030210E4C3E49528F582121C9566
:101041000210E47409B52C0280030210E47401B5A6
:101051003008852882121C95800E7402B53009C3B0
:10106100E49528F582121C95900064E4F5F0122CA9
:101071001275820F12298EE58260D28066E52C708E
:1010810008852882121AA0805A7401B52C2974FF90
:10109100B530028015AF307E00AC287D00EC2EFE0D
:1010A100ED3FFF8E828F83121BC6AE287F008E829A
:1010B1008F83121BC6802C7402B52C277E047F00FF
:1010C100EF20E71FEE2434F98705BDFF02800D8D67
:1010D10082C007C006121AA0D006D0071EBEFF01AB
:1010E1001F80DDE556B525030213FAE556F5257097
:1010F10003021394E52D70098529821219DF021369
:10110100FA7401B52D2A74FFB531028015AF317E15
:1011110000AC297D00EC2EFEED3FFF8E828F831205
:101121001B39AE297F008E828F83121B390213FA7D
:101131007402B52D317E007F00C3EE9405EF64800B
:10114100948040030213FAEE2439F98705BDFF02AA
:10115100800D8D82C007C0061219DFD006D0070EA0
:10116100BE00D60F80D37403B52D477E007F00C328
:10117100EE941EEF648094805025EE2449F582EFB1
:101181003401F583E0FDBDFF0280148D82C007C0EC
:1011910006121C06D006D0070EBE00D30F80D074F5
:1011A10001B5310280030213FA7582B0121C0602E6
:1011B10013FA7404B52D2AE5317009852982121CB0
:1011C1004E0213FA7401B5310280030213FA852924
:1011D10082121C4E75821012298EE58260F0021374
:1011E100FA7405B52D0280028077900014E4F5F0C1
:1011F100122D4CE58224F6FC900014E4F5F0C004B5
:10120100122D4CAB82D004EB24F6F5108C82121C0B
:1012110075900064E4F5F0122C1275821012298E7B
:10122100E58260C6900014E4F5F0122D4CE58224AD
:10123100F6FC900014E4F5F0C004122D4CAB82D002
:1012410004EB24F6F5108C82121C75900064E4F511
:10125100F0122C1275821012298EE58270C60213CB
:10126100FA7406B52D5D7401B53113E52924E1FF4A
:10127100C3E49FF510758200121C750213FA740203
:10128100B5310FE52924E1F510758200121C7502B4
:1012910013FA7403B53113E52924E1FFC3E49FF583
:1012A10082751000121C750213FA7404B5310280A4
:1012B100030213FAE52924E1F582751000121C7569
:1012C1000213FA7407B52D687401B53112E52924AA
:1012D100E1FFC3E49FF510758200121C75803B7419
:1012E10002B5310EE52924E1F510758200121C7555
:1012F10080287403B53112E52924E1FFC3E49FF589
:1013010082751000121C7580117404B5310CE52929
:1013110024E1F582751000121C75900064E4F5F06B
:10132100122C1275821012298EE582609B0213FA2B
:101331007408B52D247401B53109852982121C95D3
:101341000213FA7402B5310280030213FAC3E49561
:1013510029F582121C950213FA7409B52D02800336
:101361000213FA7401B53108852982121C95800E89
:101371007402B53109C3E49529F582121C959000D8
:1013810064E4F5F0122C1275821012298EE5826048
:10139100D28066E52D7008852982121AA0805A74C0
:1013A10001B52D2974FFB531028015AF317E00AC36
:1013B100297D00EC2EFEED3FFF8E828F83121BC62E
:1013C100AE297F008E828F83121BC6802C7402B5DA
:1013D1002D277E047F00EF20E71FEE2439F98705D2
:1013E100BDFF02800D8D82C007C006121AA0D00673
:1013F100D0071EBEFF011F80DDE557B5260302178A
:1014010010E557F52670030216AAE52E7009852A04
:10141100821219DF0217107401B52E2A74FFB5323A
:10142100028015AF327E00AC2A7D00EC2EFEED3F2E
:10143100FF8E828F83121B39AE2A7F008E828F83AB
:10144100121B390217107402B52E317E007F00C3C2
:10145100EE9405EF648094804003021710EE243E61
:10146100F98705BDFF02800D8D82C007C0061219E4
:10147100DFD006D0070EBE00D60F80D37403B52E81
:10148100477E007F00C3EE941EEF64809480502558
:10149100EE2467F582EF3401F583E0FDBDFF0280A4
:1014A100148D82C007C006121C06D006D0070EBEDE
:1014B10000D30F80D07401B532028003021710757A
:1014C10082B0121C060217107404B52E2AE5327080
:1014D10009852A82121C4E0217107401B53202804E
:1014E10003021710852A82121C4E75820E12298E54
:1014F100E58260F00217107405B52E028002807734
:10150100900014E4F5F0122D4CE58224F6FC9000D5
:1015110014E4F5F0C004122D4CAB82D004EB24F698
:10152100F5108C82121C75900064E4F5F0122C12F7
:1015310075820E12298EE58260C6900014E4F5F0E2
:10154100122D4CE58224F6FC900014E4F5F0C00461
:10155100122D4CAB82D004EB24F6F5108C82121CB8
:1015610075900064E4F5F0122C1275820E12298E2A
:10157100E58270C60217107406B52E5D7401B5328E
:1015810013E52A24E1FFC3E49FF510758200121CC4
:10159100750217107402B5320FE52A24E1F51075B2
:1015A1008200121C750217107403B53213E52A2448
:1015B100E1FFC3E49FF582751000121C750217103C
:1015C1007404B532028003021710E52A24E1F58282
:1015D100751000121C750217107407B52E6874017E
:1015E100B53212E52A24E1FFC3E49FF510758200AC
:1015F100121C75803B7402B5320EE52A24E1F51008
:10160100758200121C7580287403B53212E52A24F4
:10161100E1FFC3E49FF582751000121C75801174FF
:1016210004B5320CE52A24E1F582751000121C750F
:10163100900064E4F5F0122C1275820E12298EE5E9
:1016410082609B0217107408B52E247401B532090B
:10165100852A82121C950217107402B5320280038A
:10166100021710C3E4952AF582121C950217107413
:1016710009B52E0280030217107401B53208852ABC
:1016810082121C95800E7402B53209C3E4952AF5C5
:1016910082121C95900064E4F5F0122C1275820EF2
:1016A10012298EE58260D28066E52E7008852A8235
:1016B100121AA0805A7401B52E2974FFB532028026
:1016C10015AF327E00AC2A7D00EC2EFEED3FFF8E81
:1016D100828F83121BC6AE2A7F008E828F83121BDC
:1016E100C6802C7402B52E277E047F00EF20E71FF1
:1016F100EE243EF98705BDFF02800D8D82C007C033
:1017010006121AA0D006D0071EBEFF011F80DD9071
:081711000032E4F5F0022C1295
:10171900900227E4F0C200227F00C3E5DB94079220
:101729000140067D077E008004ADDB7E008F037CCF
:1017390000C3EB9DEC64808EF063F08095F0501748
:10174900EF2420FDE43402FE8F82758300E0FC8DD6
:10175900828E83F00F80C3227F008F057E00C3ED48
:101769009407EE940050188F057E00EF2420F5822F
:10177900E43402F583E0FC8D828E83F00F80DB90E8
:10178900000722900002E0FF900229F0E020E030FB
:10179900900220E0FCA3E0FDA3E0FEA3E0FFBCB0C3
:1017A9001FBD041CBE0019BF001675E200C2AF9030
:1017B900C350122CC390C350122CC312380080FEA0
:1017C90022757A00900229E06003757A01857A8290
:1017D9002220001490022AE0FFE0600C8FD553D438
:1017E900FCD20090022AE4F022AF82900229E06044
:1017F9005E7D007E003000240DBD00010E900005C5
:10180900C007C006C005122CC3D005D006D007C337
:10181900ED9450EE94C340DD7582002290022AE0D7
:10182900FEBE400050207D0074402EFEE43DFDEEDA
:101839002414F582ED3400F583EFF090022AE024B8
:1018490001F075820122C0071217DAD00780A2754C
:10185900820022900227E0F58222900227E070039D
:10186900F58222900228E02414F582E43400F583FD
:10187900E0FF900228E004F0900227E014F0E07005
:101889000353D4F38F822275D50074FC55D44402D6
:10189900F5D4C2002230DE19900227E5DBF0900270
:1018A90028E4F0900227E0600874F355D44408F561
:1018B900D4221222AD1222D71222C675DD0075D3A9
:0818C9000075D50075D700225F
:1018D10075D70074FC55D64402F5D690022BE4F07E
:1018E10022AE82AF83900094E07003F582227C00E7
:1018F1007D0090022BE060280CBC00010D900005DA
:10190100C007C006C005C004122CC3D004D005D046
:1019110006D007C3EC9450ED94C340D675820022E3
:101921008E059000E0EDF0BE0137BF00347D00BDB3
:10193100080050278D037C0074412BFBE43CFCEB39
:1019410024A0FBEC3400FCED242CF582E43402F5F8
:1019510083E0FA8B828C83F00D80D475D70902194C
:10196100D2BE0236BF00337D00BD080050278D0373
:101971007C0074412BFBE43CFCEB24A0FBEC340029
:10198100FCED2434F582E43402F583E0FA8B828C99
:1019910083F00D80D475D7098037BE0334BF003181
:1019A1007F00BF040050278F057E0074412DFDE4A8
:1019B1003EFEED24A0FDEE3400FEEF243CF582E472
:1019C1003402F583E0FC8D828E83F00F80D475D7CD
:1019D1000590022B7401F053D6FC75820122AF826F
:1019E100BF880040088F06EE2478FE8042BF800049
:1019F100402390022CE0FD8F04EC2480F5F005F0EB
:101A01007401800225E0D5F0FBFC420590022CED2B
:101A1100F07E00801AEF90334E93FE7003F5822220
:101A2100EE30E70B90022CE04402FFF053067F906A
:101A3100022EE0FFB50602805C90022FE0FFB506A2
:101A4100028052900230E0FFB506028048900231D8
:101A5100E0FFB50602803E900232E0FFB50602804B
:101A610034900233E0FFB50602802A7F027D02ED49
:101A7100242CFBE43402FC8B828C83E070088B8283
:101A81008C83EEF080080D8D07BD080040E1BF0892
:101A910004758200229000011218E275820122AFC2
:101AA10082BF880040088F06EE2478FE8043BF8005
:101AB10000402490022CE0FD8F04EC2480F5F00519
:101AC100F07401800225E0D5F0FBF4FC5205900290
:101AD1002CEDF07E00801AEF90334E93FE7003F5EB
:101AE1008222EE30E70B90022CE054FDFFF053060A
:101AF1007F7F02EE6016EF242CFCE43402FD8C8221
:101B01008D83E0B506068C828D83E4F00FBF08005B
:101B110040E19000011218E2758201227F00BF08A6
:101B210000500FEF242CF582E43402F583E4F00F2A
:101B310080EC9000010218E2AE82AF83900234E0A3
:101B4100FCA3E0FDECB50606EDB50702806D900241
:101B510036E0FCA3E0FDECB50606EDB50702805BBF
:101B6100900238E0FCA3E0FDECB50606EDB50702F6
:101B7100804990023AE0FCA3E0FDECB50606EDB524
:101B8100070280377D007C00EC75F002A42434FA52
:101B9100740235F0FB8A828B83E0F8A3E0F9487088
:101BA1000B8A828B83EEF0EFA3F080080C8C05BCCE
:101BB100040040D4BD040475820022900002121872
:101BC100E275820122AE82AF837D00EE4F6026ED89
:101BD10075F002A42434FB740235F0FC8B828C83F3
:101BE100E0F9A3E0FAE9B5060CEAB507088B828CA7
:101BF10083E4F0A3F00DBD040040D0900002121860
:101C0100E275820122AF82C0071219DFAE82D007CE
:101C11008F82C006121AA0D0068E8222AF82900255
:101C21003CE0420790023CEFF09000031218E2758D
:101C3100820122AF8290023CE0FEEFF45206900254
:101C41003CEEF09000031218E275820122AF8290FF
:101C5100023DE4F090023EF090023FF08F82C00717
:101C6100121C1D902710122CC3D0078F82121C3416
:101C710075820122AF8290023DEFF090023EE510A5
:101C8100F090023CE4F090023FF09000031218E261
:101C910075820122AF8290023FEFF090023CE4F0A6
:101CA10090023DF090023EF09000031218E275821E
:021CB10001220E
:101CB300AFDBBF08028003022106900007E0FE7F2E
:101CC30000900006E0FD7C004FF511EC4EF5127F0D
:101CD30000900001E0F513900000E0FE54606053B3
:101CE300900000E0FE5306607D00BE2005BD0002AB
:101CF300800BBE4039BD00367FFF0221087420B53A
:101D030013030221087421B5130280077422B5134B
:101D130018800C121761AD82AE838D07022108C0B3
:101D23000712178CD0070221087FFF0221087FFFCB
:101D3300022108E51324F45003022102E513240BC6
:101D430083F582E513241083F583E473E41202D24E
:101D530002DC6702E9060808201F211F211E1D213E
:101D63001E1F2121900003E0FEBE01028013BE026C
:101D7300028023BE03028033BE2203021E4E021ED4
:101D83006C7514CE7515339033E0E493FD740193B1
:101D9300FE8D07021E6E7514E27515339034DDE473
:101DA30093FD740193FE8D07021E6E900002E07096
:101DB300157514DF7515349034E3E493FD740193C2
:101DC300FE8D07021E6E900002E0FEBE0115751423
:101DD30025751535903533E493FD740193FE8D0716
:101DE300021E6E900002E0FEBE02147514F3751518
:101DF30034903509E493FD740193FE8D07806C9054
:101E03000002E0FEBE03147514E57515349034F139
:101E1300E493FD740193FE8D078050900002E0FE71
:101E2300BE041475140B751535903523E493FD74B6
:101E33000193FE8D0780347514E57515349034F1E4
:101E4300E493FD740193FE8D078020900002E070FF
:101E530014751448751534903446E493FD74019356
:101E6300FE8D0780067FFF80027FFFBFFF030221F5
:101E7300088F057E00C3ED9511EE951250048D1168
:101E83008E12AD11AE12C3ED9408EE94009202408F
:101E9300067B087C008004AB11AC128B077C00C36B
:101EA300EC9F50198C027B00EC2514F582E4351568
:101EB300F583E493F98A828B83F00C80E28F037CB1
:101EC30000EDC39BFDEE9CFE8D118E12EF2514F5E4
:101ED30014E43515F515022108900002E0FE8E1179
:101EE300751200022108900094E0900000F0AD11FB
:101EF300AE12C3ED9401EE940050030221087F015A
:101F0300022108900002E0FE900094F00221089064
:101F13000000E0541F702F900003E0FD7E0090004E
:101F230002E0FC7B004206EB4205BE0114BD00113A
:101F33009033E9E493FE30E5030221087FFF022199
:101F4300087FFF022108900000E0FE53061F7D007A
:101F5300BE0277BD0074900004E0FEBE0102805F04
:101F6300BE02028049BE03028033BE0402801DBE4E
:101F730081028040BE8202802ABE83028014BE8416
:101F83004474BC55DE4402F5DE02210853DE7302BD
:101F9300210874BC55D64402F5D602210853D673E2
:101FA30002210874BC55D44402F5D402210853D449
:101FB3007302210874BC55D24402F5D2022108539E
:101FC300D2730221087FFF0221087FFF02210890BC
:101FD3000000E0541F702F900003E0FD7E0090008E
:101FE30002E0FC7B004206EB4205BE0114BD00117A
:101FF3009033E9E493FE30E5030221087FFF0221D9
:10200300087FFF022108900000E0FE53061F7D00B9
:10201300BE0205BD000280030220E0900003E0FD44
:102023007E00900002E0FC7B004206EB4205EE4D91
:1020330060030220DC900005E0FD7E00900004E0D8
:10204300FC7B004206EB4205BE0106BD00030220F5
:10205300D0BE0205BD00028060BE0305BD00028044
:1020630044BE0405BD00028028BE8105BD00028078
:1020730052BE8205BD00028036BE8305BD000280CC
:102083001ABE8451BD004E74BF55DE4403F5DE8095
:1020930074747F55DE440CF5DE806A74BF55D644F4
:1020A30003F5D68060747F55D6440CF5D6805674FC
:1020B300BF55D44403F5D4804C747F55D4440CF5F8
:1020C300D4804274BF55D24403F5D28038747F550F
:1020D300D2440CF5D27FFF802C7FFF80287FFF80C6
:1020E30024900000E4F0900001F0AD11AE12C3EDB6
:1020F3009402EE940040047F02800AAF1180067FB1
:10210300FF80027FFFBFFF077513FF75DCCF22EF50
:1021130024F740068FDD75DCC02275DD0075DCC059
:10212300227405B51302805D7406B51366AE11AF54
:1021330012C3EE9408EF9400920340067C087D00DE
:102143008004AC11AD127D00C3ED9C50198D027B50
:1021530000ED2514F582E43515F583E493F98A82BD
:102163008B83F00D80E28C037D00EEC39BFEEF9D1D
:10217300FF8E118F12EC2514F514E43515F5158C2B
:10218300DD63DC4022E5E35480FFE5114FF5E375A1
:10219300DC022275DD0075DC02227420B5130D30DC
:1021A300DE1012172175DD0085DCDC2275DD0043AE
:1021B300DC022275D30074FC55D24402F5D222907E
:1021C30002407401F075D30853D2FC7582012220BA
:1021D300D903022283E5D9540FFFADD95305307ECD
:1021E30000BD0005BE0002801CBD1005BE000280BC
:1021F30037BD2005BE00028044BD3006BE00030289
:102203002269022281EF24FB5003022281EF2F90E7
:1022130022167380088067800A8063806112219D83
:1022230002228112189E8056EF24FB4051EF2F901B
:1022330022367380498047804580438041EF24FBE9
:10224300403CEF2F90224B738008800B800E80114F
:10225300802C12212480271221B68022121890800C
:102263001D1218D18018EF24FB4013EF2F90227416
:102273007380088009800780058003121CB3C2D9CC
:1022830030D81A75DC0275D21275D41275E300C208
:10229300DAC2D9C2D8900094E4F012171910DA0107
:1022A30022E5DA20E20375D8FF2275E20053E27FCC
:1022B30043E22975E30053E2BF53D1FB75D1804359
:1022C300D1012243E10443E10243E10143D81FD298
:1022D300EAD2AF227E007F008EEC8FED7E0A7F0074
:1022E3008EEE8FEF7E147F008EE48FE57EA07F005D
:1022F3008EE68FE775EB0C43EB4043EB8075D21210
:0D23030075D41275D61275EA4075DC022201
:10231100C021C0E0C0F0C082C083C007C006C005B4
:10232100C004C003C002C001C000C0D075D00012FB
:1023310021D2D0D0D000D001D002D003D004D0051A
:10234100D006D007D083D082D0F0D0E0D02132C0E7
:1023510021C0E0C0F0C082C083C007C006C005C074
:1023610004C003C002C001C000C0D075D0003098C5
:10237100051231D2C298309905123208C299D0D0D3
:10238100D000D001D002D003D004D005D006D007B0
:10239100D083D082D0F0D0E0D02132C021C0E0C0C3
:1023A100F0C082C083C007C006C005C004C003C01E
:1023B10002C001C000C0D075D00030C00512324C3F
:1023C100C2C030C105123282C2C1D0D0D000D0010A
:1023D100D002D003D004D005D006D007D083D0825C
:1023E100D0F0D0E0D02132C021C0E0C0F0C082C026
:1023F10083C007C006C005C004C003C002C001C03D
:1024010000C0D075D000900243E0FEA3E0FFC007FA
:10241100C0068E828F83120069D006D007D0D0D03B
:1024210000D001D002D003D004D005D006D007D00F
:1024310083D082D0F0D0E0D02132C021C0E0C0F002
:10244100C082C083C007C006C005C004C003C0026B
:10245100C001C000C0D075D000900245E0FEA3E0ED
:10246100FFC007C0068E828F83120069D006D00795
:10247100D0D0D000D001D002D003D004D005D006F6
:10248100D007D083D082D0F0D0E0D02132C021C09B
:10249100E0C0F0C082C083C007C006C005C004C050
:1024A10003C002C001C000C0D075D000900241E05D
:1024B100FEA3E04E600E900241E0F8A3E0F58388B0
:1024C10082120069D0D0D000D001D002D003D00454
:1024D100D005D006D007D083D082D0F0D0E0D02173
:1024E10032122CFE12016112039F80FB75820022C1
:1024F100AE82AF83900095E0FBA3E0FCA3E0FD7A00
:1025010000900098E0F9890019E8603F8B828C8384
:102511008DF0123148F8A3AB82AC83C007C006C06E
:1025210005C004C003C002C00112252F8007C006E8
:10253100C007888222A882D001D002D003D004D063
:1025410005D006D007E860030A80BB8A8222AE82EA
:10255100AF83900099E0FBA3E0FCA3E0FD9000991C
:10256100E0F5F0A3E045F07003F582227A008B825A
:102571008C838DF0123148F9A3AB82AC83E9F8600A
:102581002CC007C006C005C004C003C002122593B9
:102591008007C006C007888222A982D002D003D05A
:1025A10004D005D006D007E960030A80C18A8222DF
:1025B100AE82AF8390009CE0FAA3E0FBA3E0FCA312
:1025C100E0FD9000A4EAF0EBA3F0ECA3F0EDA3F0A2
:1025D1009000A8740AF08E828F83022642AE82AFE9
:1025E100839000A0E0FAA3E0FBA3E0FCA3E0FD9050
:1025F10000CAEAF0EBA3F0ECA3F0EDA3F09000CE5B
:10260100740AF08E828F83022727AE82AF83C007C0
:10261100C0061226188008C006C00775820D22ADBB
:1026210082D006D007C007C00512262F8008C00639
:10263100C00775820A22AE82D005D007EE2DF58241
:10264100228582588583599000C9E4F09000A8E062
:10265100FDBD020050069000A8740AF09000A8E0A9
:10266100F55A7BC97C009000A4E0F55BA3E0F55C22
:10267100A3E0F55DA3E0F55E855A5F7560007561C5
:1026810000756200855F7A85607B85617C85627DEE
:10269100855B82855C83855DF0E55EC004C00312C5
:1026A1002F1EA882855F7A85607B85617C85627D2E
:1026B100855B82855C83855DF0E55EC000122FF34A
:1026C100AA82AD83AEF0FFD000D003D0049000A465
:1026D100EAF0EDA3F0EEA3F0EFA3F01BBBFF011CAA
:1026E1008B068C07B80A005008880574302DFD80D0
:1026F10004743728FD8E828F83EDF09000A4E0F5FD
:10270100F0A3E042F0A3E042F0A3E045F060030251
:102711002667900099EBF0ECA3F0E4A3F0855882D2
:1027210085598302254F8582638583649000CEE0BD
:10273100FD70199000CAE0F9A3E0FAA3E0FBA3E061
:10274100FC022745C063C06489822222BD0A02803F
:10275100030227F29000CAE0F9A3E0FAA3E0FBA389
:10276100E0FC30E76FC004C003C002C00112277350
:102771008008C063C06475822D22A882D001D00276
:10278100D003D00488659000CAC3E499F0E49AA309
:10279100F0E49BA3F0E49CA3F09000CAE0F566A3EB
:1027A100E0F567A3E0F568A3E0F5699000A4E566AC
:1027B100F0E567A3F0E568A3F0E569A3F09000A850
:1027C100740AF0856382856483122642AF82E565CF
:1027D1002FF582229000A4E9F0EAA3F0EBA3F0EC3C
:1027E100A3F09000A8740AF08563828564830226B1
:1027F100429000CAE0FBA3E0FCA3E0FEA3E0FF904F
:1028010000A4EBF0ECA3F0EEA3F0EFA3F09000A88E
:0B281100EDF08563828564830226429F
:10281D0022AC82AD83AEF0FF9000A0ECF0EDA3F002
:10282D00EEA3F0EFA3F09017F20225DEAC82AD839C
:10283D00AEF0FF9000CFE0FB9000CAECF0EDA3F0FE
:10284D00EEA3F0EFA3F09000CEEBF09017F202277D
:10285D0027AC82AD83AEF0FF90009CECF0EDA3F0C1
:10286D00EEA3F0EFA3F09017F20225B1AC82AD8389
:10287D00AEF0FF9000D0E0FB9000CAECF0EDA3F0BD
:10288D00EEA3F0EFA3F09000CEEBF09017F202273D
:10289D0027AD82AE83AFF0900099EDF0EEA3F0EF8F
:1028AD00A3F09017F202254FAD82AE83AFF09000EA
:1028BD00D1E0FC900095EDF0EEA3F0EFA3F09000C9
:0928CD0098ECF09017F20224F1DE
:1028D700E582FF90358593FEEF90355D93FF70019C
:1028E700229000D2E0FD701BBF0209EEF4FC529269
:1028F700EC529322BF0402800122EEF4FC5296ECC4
:10290700529722BD0214BF0207EE4292EE42932273
:10291700BF0439EE4296EE429722BD0116BF020868
:10292700EEF45292EE429322BF0421EEF45296EE59
:10293700429722BD0316BF0208EE4292EEF452936D
:1029470022BF0408EE4296EEF4FE529722AF82BFF2
:102957000102800FBF02028013BF03028017BF046A
:1029670025801BE5C620E21E539DFB22E5C620E31A
:1029770015539DF722E5C630E20C539DFB22E5C6B1
:1029870030E303539DF722E582FF90353593FEEF41
:1029970090358593FDEF90355D93FF7003F58222A7
:1029A700EE600D8E82C007C005122954D005D007EE
:1029B7007E00BF0202800ABF03028009BF040C80A9
:1029C70008AE908006AEA08002AEB0ED5E600475E2
:1029D70082012275820022E582FF90353593FEEF52
:1029E70090358593FDEF90355D93FFEE600D8E82F8
:1029F700C007C005122954D005D007A2AFE433FEA3
:102A0700C2AFBF0202800ABF03028017BF0436802D
:102A1700249000D3E07007EDF4FF52908027ED4239
:102A27009080229000D3E07007EDF4FF52A080154C
:102A3700ED42A080109000D3E07007EDF4FF52B094
:0B2A47008003ED42B0EE6002D2AF222F
:102A5300E5829035AD93FFBFFF0475820022759A1E
:102A63000974FC5580FE74035F4EF580D284208484
:102A7300FD859F8222AF829000D27401F08F82C0C5
:102A8300071228D7D0079000D4E0FDA3E0FE4D70D5
:102A93000A9000D3E4F08F820229DE8D038E047442
:102AA300FF2C500B9000D37401F08F820229DEEFCC
:102AB30090353593FA24FB4034EA2A902AC2738076
:102AC3002C8006800D8014801B53C6FB439D048D10
:102AD3009C2253C6F7439D088D9B2243C604439D06
:102AE300048D9C2243C608439D088D9B22C3EB940F
:102AF30080EC9400500A9000D3E4F08F820229DE28
:0B2B03009000D37401F08F820229DEE5
:102B0F00AE82AF838F05BD800040012275A1557540
:102B1F00A1AA43B10475A1007585C0ED2DF5848E72
:102B2F008EE58630E60375869A75A15575A1AA5371
:102B3F00B1FB75A10022AF827585C0EF2FF58475AB
:102B4F00868E858E8222C0D075D00808B8000D09F8
:102B5F00B900090ABA00050BBB00010CD0D032A294
:102B6F00AFC2AFA808A909AA0AAB0BAC8A8588F037
:102B7F0092AF30F51274012C600D08B8000909B935
:102B8F0000050ABA00010BC3EC9406FCECC313FC5E
:102B9F0075F07DE8A4F8ADF075F07DE9A42DF9E4AA
:102BAF0035F0FD75F07DEAA42DFAE435F0FD75F0F2
:102BBF007DEBA42DFB7D00EC28F582E93DF583EA42
:102BCF003DF5F0EB3D22A2AFC2AFA808A909AA0AB2
:102BDF00AB0BAC0C92AF75F020E8A4A8F075F02009
:102BEF00E9A428F582A8F075F020EAA428F583A8B7
:102BFF00F075F020EBA428F9A8F075F020ECA428CC
:102C0F0089F02285826A85836B85F06CF56D122BB6
:102C1F006E85826E85836F85F070F571E56A456B01
:102C2F00456C456D700122A86AA96BAA6CAB6D85C6
:102C3F006E72856F73857074857175E8494A4B6044
:102C4F00DBC003C002C001C000122B6EAC82AD838B
:102C5F00AEF0FFD000D001D002D003ECC39572FCD0
:102C6F00ED9573FDEE9574FEEF9575FFC3EC94E84B
:102C7F00ED9403EE9400EF940040A118B8FF0919EA
:102C8F00B9FF051ABAFF011B886A896B8A6C8B6DB5
:102C9F0074E82572F57274033573F573E43574F5C2
:102CAF0074E43575F57585726E85736F85747085EF
:102CBF0075718087AE82AF83C374019EE49F40021B
:102CCF002200C374029EFE74009FFF00BE0005BF6A
:102CDF0000020022000000000000000000000000C1
:102CEF0000000000000EBE00EB0FBF00ED002275CC
:102CFF00A15575A1AA74F855B94406F5B975A10087
:102D0F00901388122CC3759E5D759D0074F05589C4
:102D1F004402F58953C9EF758C06C28DD2A9D28CA6
:032D2F00D2AF22FE
:012D3300326D
:012D3500326B
:102D3700AC82AD83AEF0FFEC4D4E4F60078C828DB9
:102D47008302313422AC82AD83AEF0FFEC4D4E4F9F
:102D57007007900000E4F5F022C007C006C005C068
:102D6700041230C8AA82AB83D004D005D006D0079E
:102D77008A00EBF93395E0FAFB8C7A8D7B8E7C8F9A
:102D87007D888289838AF0EB022ECFAC82AD83AE39
:102D9700F0FF9000D6E0F8A3E0F9A3E0FAA3E0FB88
:102DA700C3EC98ED99EE9AEF64808BF063F0809511
:102DB700F040088C828D838EF0EF22E8C39CF8E9FF
:102DC7009DF9EA9EFAEB9F888289838AF0C007C043
:102DD70006C005C004122D4CA882A983AAF0FBD017
:102DE70004D005D006D007EC28FCED39FDEE3AFEFD
:102DF700EF3B8C828D838EF022AC82AD83AEF0FFE9
:102E07009000DAE0F8A3E0F9A3E0FAA3E0FBECC353
:102E170098F516ED99F517EE9AF518EF9BF51990B9
:102E270000E2E0F51AA3E0F51BA3E0F51CA3E0F52B
:102E37001D9000E6E0FCA3E0FDA3E0FEA3E0FFECAD
:102E4700C3951AF57AED951BF57BEE951CF57CEF8E
:102E5700951DF57D8516828517838518F0E519C0C0
:102E670003C002C001C00012316485821685831732
:102E770085F018F519D000D001D002D0039000DEFC
:102E8700E0FCA3E0FDA3E0FEA3E0FFECC398F57A26
:102E9700ED99F57BEE9AF57CEF9BF57D851682859E
:102EA70017838518F0E519122FA1AC82AD83AEF018
:102EB700FFE51A2CFCE51B3DFDE51C3EFEE51D3F2D
:072EC7008C828D838EF02246
:102ECF00F9C2D530E715D2D5E4C39582F582E495E2
:102EDF0083F583E495F0F5F0E499F9E57D30E71596
:102EEF00E4C3957AF57AE4957BF57BE4957CF57CE4
:102EFF00E4957DF57DE9122F1E30D512E4C395823E
:102F0F00F582E49583F583E495F0F5F0E49922F9E1
:102F1F00E57A457B457C457D60777800C308E57D84
:102F2F0020E73BE57A25E0F57AE57B33F57BE57C19
:102F3F0033F57CE57D33F57DE582957AE583957BE9
:102F4F00E5F0957CE9957D50D4C3E57D13F57DE5DE
:102F5F007C13F57CE57B13F57BE57A13F57AE58237
:102F6F00957AFCE583957BFDE5F0957CFEE9957DF3
:102F7F004007F98EF08D838C82C3E57D13F57DE5D7
:102F8F007C13F57CE57B13F57BE57A13F57AD8CEC8
:102F9F00E922FBC2D530E715D2D5E4C39582F5827D
:102FAF00E49583F583E495F0F5F0E49BFBE57D3044
:102FBF00E717B2D5E4C3957AF57AE4957BF57BE410
:102FCF00957CF57CE4957DF57DEB122FF330D513D1
:102FDF00FBE4C39582F582E49583F583E495F0F5E0
:102FEF00F0E49B22FB7A20E4FCFDFEFFE5822582C4
:102FFF00F582E58333F583E5F033F5F0EB33FB40F2
:10300F0017DAE98042E5822582F582E58333F5837D
:10301F00E5F033F5F0EB33FBEC33FCED33FDEE3342
:10302F00FEEF33FFEC957AED957BEE957CEF957D7A
:10303F004013EC957AFCED957BFDEE957CFEEF95BC
:09304F007DFF438201DABEEB2291
:1030580022AF82BF02005036EF75F002A42443F578
:1030680082740235F0F583E57AF0E57BA3F0BF00C2
:10307800028005BF0118800B9000EAE024FF9288C7
:10308800D2A8229000EAE0FF24FF928AD2AA22AFB7
:1030980082BF02005028BF00028005BF01088004DB
:1030A800C2A88002C2AAEF75F002A42443FE7402EB
:0F30B80035F0FF8E828F837458F07430A3F022AE
:1030C800AC76AD77AE78AF798D00EEC313C813C870
:1030D800C313C813C8F9EF030354C049F9EF030336
:1030E800543FFA7B00EC6200ED6201EE6202EF628F
:1030F80003E828FDE933FEEA33FF7C00E86204E9CF
:103108006205EA6206EB6207EFC313F8E4F9FAFB1B
:10311800E86204E96205EA6206EB62078C768D775D
:103128008E788F798C82747F5DF58322AE82AF832F
:103138007D007C008E768F778D7874804CF57922AF
:1031480020F71430F6148883A88220F507E6A883B0
:1031580075830022E280F7E49322E022AAF0FBE5DF
:1031680082857AF0A4FCADF0E583857AF0A42DFD84
:10317800E435F0FEE582857BF0A42DFDE5F03EFE0A
:10318800E433FFEA857AF0A42EFEE5F03FFFE583FD
:10319800857BF0A42EFEE5F03FFFE582857CF0A458
:1031A8002EFEE5F03FFFEB857AF0A42FFFEA857B42
:1031B800F0A42FFFE583857CF0A42FFFE582857DB1
:0A31C800F0A42F8EF08D838C82227C
:1031D200900247E0FF7E008F828E83A3757A108E65
:1031E2007B123313AE82900248E0FFEEB507012254
:1031F200900247E024EBF582E43400F583E599F090
:10320200900247EEF022300440900249E0FF900223
:103212004AE0FEEFB50605A204C2042290024AE08B
:1032220024FBF582E43400F583E0F59990024AE04C
:10323200FF7E008F828E83A3757A108E7B123313EA
:0A324200AE82AF8390024AEEF02244
:10324C0090024BE0FF7E008F828E83A3757A108EE6
:10325C007B123313AE8290024CE0FFEEB5070122D5
:10326C0090024BE0240BF582E43401F583E5C1F0C8
:10327C0090024BEEF02230054090024DE0FF9002A0
:10328C004EE0FEEFB50605A205C2052290024EE007
:10329C00241BF582E43401F583E0F5C190024EE085
:1032AC00FF7E008F828E83A3757A108E7B12331370
:0A32BC00AE82AF8390024EEEF022C6
:1032C600E57A457B60467A01E57A25E0F57AE57B85
:1032D600334012F57BE582957AE583957B40030AB8
:1032E60080E6C3E57B13F57BE57A13F57AC3E582C1
:1032F600957AF5F0E583957B4005F58385F082C3E5
:10330600E57B13F57BE57A13F57ADAE122C2D5E59A
:103316008330E70DD2D5E4C39582F582E49583F533
:1033260083E57B30E70BE4C3957AF57AE4957BF584
:103336007B1232C630D50BE4C39582F582E49583C1
:03334600F58322EA
:053349007636003100A2
:10334E0000000000000000002A2B280000000000F2
:10335E00000000000000000000000000000000005F
:10336E002C9EB4A0A1A2A434A6A7A5AE362D3738A4
:10337E00271E1F20212223242526B333B62EB7B8AD
:10338E009F8485868788898A8B8C8D8E8F9091926B
:10339E00939495969798999A9B9C9D2F3130A3ADB7
:1033AE00350405060708090A0B0C0D0E0F10111235
:1033BE00131415161718191A1B1C1DAFB1B0B50032
:1033CE0012011001EF020108091250C5010101029C
:1033DE0003011200090264000301008064080B005F
:1033EE000202020104090400000102020104052484
:1033FE000010010524010000042402020524060029
:10340E00010705810308004009040100020A0000BB
:10341E000407050202400000070582024000000971
:10342E00040200010301010009211001210122956E
:10343E00000705830310000A950005010906A10186
:10344E008501050719E029E7150025019508750185
:10345E00810295017508810395067508150026FFF2
:10346E00000507190029E78100050819012905152E
:10347E00002501950575019102950175039103C013
:10348E00050C0901A1018502150026FF0319002A6A
:10349E00FF03950475108100C005010902A1010901
:1034AE0001A10085030509190129031500250195C0
:1034BE000375018102950175058103050109300926
:1034CE003109381581257F750895038106C0C064C2
:1034DE00000403090404000C0343004800350035C2
:1034EE000078000C0016032D005900750061006E67
:1034FE00002D0033006B006500790016001703598C
:10350E0000750061006E002D0053006500720069A9
:10351E000061006C0018000E032D0059007500614B
:07352E00006E002D000E00ED
:103535000000000000000000000000000000000185
:10354500000000000000000000000000000003046F
:10355500000002000000000001010101010101015C
:10356500000002020202020202020000030303033A
:10357500030303030000040404040404040400001A
:1035850001020408102040800000010204081020F8
:103595004080000001020408102040800000010264
:1035A5000408102040800000FFFFFFFFFFFFFFFF22
:1035B500FFFFFF00FFFF0102FFFFFFFFFFFFFFFF10
:1035C500FFFFFFFFFFFFFFFF03FFFFFFFFFFFFFF02
:1035D500FFFFFFFFFFFFFFFFFFFFFFFFFFFFFFFFF6
:1035E500FFFFFFFFFFFFFFFFFFFFFFFFFFFFFFFFE6
:1035F500FFFFFFFFFFFFFFFFFFFFFFFFFFFFFFFFD6
:10360500FFFFFFFFFFFFFFFFFFFFFFFFFFFFFFFFC5
:10361500FFFFFFFFFFFFFFFFFFFFFFFFFFFFFFFFB5
:10362500FFFFFFFFFFFFFFFFFFFFFFFFFFFFFFFFA5
:10363500FFFFFFFFFFFFFFFFFFFFFFFFFFFFFFFF95
:10364500FFFFFFFFFFFFFFFFFFFFFFFFFFFFFFFF85
:10365500FFFFFFFFFFFFFFFFFFFFFFFFFFFFFFFF75
:10366500FFFFFFFFFFFFFFFFFFFFFFFFFFFFFFFF65
:10367500FFFFFFFFFFFFFFFFFFFFFFFFFFFFFFFF55
:10368500FFFFFFFFFFFFFFFFFFFFFFFFFFFFFFFF45
:10369500FFFFFFFFFFFFFFFFFFFFFFFFFFFFFFFF35
:1036A500FFFFFFFFFFFFFFFFFFFFFFFFFFFFFFFF25
:1036B500FFFFFFFFFFFFFFFFFFFFFFFFFFFFFFFF15
:0536C500FFFFFFFFFF05
:0B36CA0000E10000000008000000000C
:1036D50000000000000000000000000000000000E5
:0536E5000000000000E0
:0136EA0000DF
:0236EB000000DD
:0436ED0058305830C9
:0436F10000000000D5
:0436F50000000000D1
:00000001FF
