:0600000002006B021C1758
:03000B000222C806
:03001300021C6A62
:01001B0032B2
:03002300021B7F3E
:03002B000224A804
:01003300329A
:03003B00021CBDE7
:03004300021B405D
:01004B003282
:03005300021BCBC2
:01005B003272
:030063000224A6CE
:03006600021D1167
:02006900E4733E
:0D006B00758174121D1CE5826003020066A1
:10007800793EE94401601B7A029029EB789075A0DB
:1000880001E493F2A308B8000205A0D9F4DAF275E6
:02009800A0FFC7
:06009A00E478FFF6D8FD3A
:1000A0007800E84400600A790A75A001E4F309D8F1
:1000B000FC7886E84400600C790190010AE4F0A322
:0400C000D8FCD9FA95
:1000C40075221175231D752400752500752600758C
:1000D40027007528FF7529FF752AFF752BFF752CDE
:1000E40002752D03752E02752F027530FF7531FFD1
:1000F4007532FF7533FF7534807535637536FF755A
:1001040037FF7538FF7539FF753AFF753BFF753C4E
:10011400FF753DFF753E80753F767540FF7541FF65
:100124007542FF75438775446C7545FF7546FF75C9
:0A01340047FF754801E4F549F54A5C
:02013E00C200FD
:0E0140007808E4F608F608F608F6780C760063
:02014E00C204E9
:02015000C205E6
:0301520002006642
:1001560012119590014D7402F075820F12210690CE
:10016600014D7402F075821012210690014D740241
:10017600F075820E1221067582001222B8AF8275C2
:100186008201C0071222B8AE82758202C006122210
:10019600B8AD82758203C0051222B8AC827582049E
:1001A600C0041222B8AB82758205C0031222B8853C
:1001B600824B7582061222B885824C7582071222FE
:1001C600B885824D7582081222B8AA82D003D0045F
:1001D600D005D006D007BFFF0280028F28BEFF02DF
:1001E60080028E29BDFF0280028D2ABCFF0280029A
:1001F6008C2CBBFF0280028B2D74FFB54B02800353
:10020600854B2E74FFB54C028003854C3074FFB5C8
:100216004D028003854D31BAFF0280028A327E008C
:100226007F00C3EE941EEF6480948040030202D2E6
:100236008E0574092DF582C007C0061222B8AD825C
:10024600D006D007BDFF02800CEE2490F582EF3475
:1002560001F583EDF08E0574272DF582C007C006E3
:100266001222B8AD82D006D007BDFF02800CEE2464
:10027600AEF582EF3401F583EDF08E0574452DF56C
:1002860082C007C0061222B8AD82D006D007BDFFD5
:1002960002800CEE24CCF582EF3401F583EDF08E6E
:1002A6000574752DF582C007C0061222B8AD82D03E
:1002B60006D007BDFF02800CEE24EAF582EF34017A
:1002C600F583EDF00EBE00010F0202287E007F00CE
:1002D600C3EE9405EF6480948040030203688E05A4
:1002E60074632DF582C007C0061222B8AD82D0060F
:1002F600D007BDFF028006EE2434F8A6058E0574ED
:10030600682DF582C007C0061222B8AD82D006D08D
:1003160007BDFF028006EE2439F8A6058E05746D2A
:100326002DF582C007C0061222B8AD82D006D007CE
:10033600BDFF028006EE243EF8A6058E0574932DB9
:10034600F582C007C0061222B8AD82D006D007BD1E
:10035600FF028006EE2443F8A6050EBE00010F023A
:1003660002D67582721222B8AF82BFFF0280028F58
:100376002B7582731222B8AF82BFFF0280028F2FC5
:100386007582741222B8AF82BFFF0280028F337566
:1003960082981222B8AF82BFFF01228F4822121123
:1003A60036E58270030207A312113DAF82BF0A022F
:1003B60080ECBF0D0280E7C3749A95497480854A24
:1003C600F063F08095F05005E4F549F54AE54945B6
:1003D6004A7003BF02C87401B5490614B54A0280C3
:1003E6000302078ABF0302800302078A90279575D6
:1003F600F0801220CD900FF5121E3AAB287C007DBE
:10040600007E0090014A7410F08B828C838DF0EE92
:10041600122068900FF5121E3AAB297C007D007EF3
:100426000090014A7410F08B828C838DF0EE1220BE
:1004360068900FF5121E3AAB2A7C007D007E009074
:10044600014A7410F08B828C838DF0EE1220689036
:100456000FF5121E3AAB2C7C007D007E0090014BFE
:100466007410F08B828C838DF0EE1220A8900FF51D
:10047600121E3AAB2D7C007D007E0090014B74105D
:10048600F08B828C838DF0EE1220A8900FF5121E51
:100496003AAB2E7C007D007E0090014B7410F08BF1
:1004A600828C838DF0EE1220A8900FF5121E3AABC7
:1004B600307C007D007E0090014A7410F08B828CA7
:1004C600838DF0EE122068900FF5121E3AAB317C48
:1004D600007D007E0090014A7410F08B828C838D23
:1004E600F0EE122068900FF5121E3AAB327C007DBA
:1004F600007E0090014A7410F08B828C838DF0EEA2
:10050600122068900FF5121E3A7D007E00C3ED940E
:100516001EEE648094805025ED2490F582EE340121
:10052600F583E0FCBCFF0280148C82C006C0051275
:100536000FF5D005D0060DBD00D30E80D012204C8D
:10054600900FF5121E3A7D007E00C3ED941EEE64F8
:100556008094805025ED24AEF582EE3401F583E0DB
:10056600FCBCFF0280148C82C006C005120FF5D0B9
:1005760005D0060DBD00D30E80D012204C900FF58D
:10058600121E3A7D007E00C3ED941EEE64809480B8
:100596005025ED24CCF582EE3401F583E0FCBCFF5A
:1005A6000280148C82C006C005120FF5D005D00655
:1005B6000DBD00D30E80D012204C900FF5121E3ABE
:1005C600E4F54EF54FC3E54E9405E54F64809480FF
:1005D600502FE54E2434F987048C027B007C007E84
:1005E6000090014A7410F08A828B838CF0EE122000
:1005F60068900FF5121E3A054EE4B54EC8054F80B9
:10060600C4E4F550F551C3E5509405E55164809472
:1006160080502FE5502439F987048C027B007C003A
:100626007E0090014A7410F08A828B838CF0EE1261
:100636002068900FF5121E3A0550E4B550C80551D2
:1006460080C4E4F552F553C3E5529405E55364803E
:100656009480502FE552243EF987048C027B007C5F
:10066600007E0090014A7410F08A828B838CF0EE33
:10067600122068900FF5121E3A0552E4B552C805CD
:100686005380C4AB2B7C007D007E0090014A741021
:10069600F08B828C838DF0EE122068900FF5121E7F
:1006A6003AAB2F7C007D007E0090014B7410F08BDE
:1006B600828C838DF0EE1220A8900FF5121E3AABB5
:1006C600337C007D007E0090014A7410F08B828C92
:1006D600838DF0EE122068900FF5121E3A7D007E93
:1006E60000C3ED941EEE648094805025ED24EAF557
:1006F60082EE3401F583E0FCBCFF0280148C82C0DC
:1007060006C005120FF5D005D0060DBD00D30E802C
:10071600D012204C900FF5121E3AE4F554F555C34D
:10072600E5549405E55564809480502FE5542443A0
:10073600F987048C027B007C007E0090014A7410CD
:10074600F08A828B838CF0EE122068900FF5121ED1
:100756003A0554E4B554C8055580C4AB487C007DC1
:10076600007E0090014B7410F08B828C838DF0EE2E
:100776001220A8900FF5121E3A120FDDE4F549F586
:100786004A0203A4E5492408F582E54A3402F583C2
:10079600EFF00549E4B54902054A0203A4749BB586
:1007A6004906E4B54A028003020975E4F549F54AAB
:1007B600900208E0FFBF020280030209759002A2C0
:1007C600E0FFBF030280030209759001147498F0DC
:1007D6007427A3F07480A3F0900FF5121D7E120FFC
:1007E600DD7E007F00C3EE9499EF648094805027ED
:1007F60074012EFCE43FFDEC2408F582ED3402F58D
:1008060083E0F5828E83C005C004122282D004D014
:10081600058C068D0780CE900209E0F52890020A25
:10082600E0F52990020BE0F52A90020CE0F52C90F9
:10083600020DE0F52D90020EE0F52E90020FE0F588
:1008460030900210E0F531900211E0F5327E007F23
:1008560000C3EE941EEF6480948040030208EAEE23
:100866002490FCEF3401FD740A2EFAE43FFBEA24DF
:1008760008F582EB3402F583E08C828D83F0EE245A
:10088600AEFCEF3401FD74282EFAE43FFBEA24089F
:10089600F582EB3402F583E08C828D83F0EE24CC76
:1008A600FCEF3401FD74462EFAE43FFBEA2408F51A
:1008B60082EB3402F583E08C828D83F0EE24EAFC31
:1008C600EF3401FD74762EFAE43FFBEA2408F58244
:1008D600EB3402F583E0FB8C828D83F00EBE0001C3
:1008E6000F0208577E007F00C3EE9405EF648094E4
:1008F600805064EE2434F974642EFCE43FFDEC244D
:1009060008F582ED3402F583E0F7EE2439F97469CF
:100916002EFCE43FFDEC2408F582ED3402F583E07D
:10092600F7EE243EF9746E2EFCE43FFDEC2408F548
:1009360082ED3402F583E0F7EE2443F974942EFC3D
:10094600E43FFDEC2408F582ED3402F583E0FDF783
:100956000EBE00940F809190027BE0F52B90027CF6
:10096600E0F52F90027DE0F5339002A1E0F54875A1
:10097600820F1221BDE582B40100E433FF758210B7
:10098600C0071221BDAE82D007EEB40100E433FEEB
:1009960075820EC007C0061221BDAD82D006D007F3
:1009A600EDB40100E433F5567401B5480280030244
:1009B6000B66E5276003020AC7EFB52403020B693D
:1009C600EEB52503020B69E556B52603020B69EF62
:1009D6007003020B69EE7003020B69E556700302A1
:1009E6000B698F248E25855626E52F7011852B825F
:1009F600C007C0061212ABD006D007020AC17401A6
:100A0600B52F3C74FFB533028020AC337B00AA2B94
:100A16007D00EA2BFBED3CFC8B828C83C007C00675
:100A26001213FCD006D007020AC1AC2B7D008C82C3
:100A36008D83C007C0061213FCD006D007807C74D5
:100A460002B52F367C007D00C3EC9405ED648094DE
:100A5600805068EC2443F98703BBFF0280158B8224
:100A6600C007C006C005C0041212ABD004D005D022
:100A760006D0070CBC00D10D80CE7403B52F3C7C8C
:100A8600007D00C3EC941EED64809480502DEC2410
:100A9600EAF582ED3401F583E0FBBBFF02801C8B97
:100AA60082C007C006C005C0041214C3D004D00516
:100AB600D006D0070CBC00CB0D80C8752701020BF1
:100AC60069EF600AEE6007E5566003020B698F2442
:100AD6008E25855626E52F7010852B82C007C00609
:100AE600121369D006D00780727401B52F3974FFCE
:100AF600B53302801DAD337C00AA2B7B00EA2CFCAB
:100B0600EB3DFD8C828D83C007C006121486D0068D
:100B1600D007AC2B7D008C828D83C007C0061214D3
:100B260086D006D00780347402B52F2F7C047D0052
:100B3600ED20E727EC2443F98703BBFF0280158BE2
:100B460082C007C006C005C004121369D004D005D0
:100B5600D006D0071CBCFF011D80D5752700800379
:100B6600752700E5276003020F12EFB52403020C78
:100B7600C0EFF5247003020C4AE52C700D8528821F
:100B8600C0061212ABD006020CC07401B52C357427
:100B9600FFB53002801CAF307D00AB287C00EB2D0A
:100BA600FDEC3FFF8D828F83C0061213FCD0060238
:100BB6000CC0AD287F008D828F83C0061213FCD037
:100BC60006020CC07402B52C357D007F00C3ED947F
:100BD60005EF648094804003020CC0ED2434F9874D
:100BE60004BCFF0280118C82C007C006C005121229
:100BF600ABD005D006D0070DBD00D20F80CF740351
:100C0600B52C028003020CC07D007F00C3ED941E4C
:100C1600EF648094804003020CC0ED2490F582EFCF
:100C26003401F583E0FCBCFF03020CC08C82C007D4
:100C3600C006C0051214C3D005D006D0070DBD00EE
:100C4600CB0F80C8E52C700C852882C0061213696C
:100C5600D00680667401B52C3174FFB53002801958
:100C6600AF307D00AB287C00EB2DFDEC3FFF8D8285
:100C76008F83C006121486D006AD287F008D828F22
:100C860083C006121486D00680307402B52C2B7DE4
:100C9600047F00EF20E723ED2434F98704BCFF022C
:100CA60080118C82C007C006C005121369D005D01A
:100CB60006D0071DBDFF011F80D9EEB52503020D25
:100CC600E8EEF5257003020D82E52D70098529826F
:100CD6001212AB020DE87401B52D2A74FFB531026C
:100CE6008015AF317E00AC297D00EC2EFEED3FFF76
:100CF6008E828F831213FCAE297F008E828F831221
:100D060013FC020DE87402B52D317E007F00C3EEA0
:100D16009405EF648094804003020DE8EE2439F9CF
:100D26008705BDFF02800D8D82C007C0061212AB7B
:100D3600D006D0070EBE00D60F80D37403B52D02A1
:100D46008003020DE87E007F00C3EE941EEF6480F0
:100D560094804003020DE8EE24AEF582EF3401F5EF
:100D660083E0FDBDFF02807A8D82C007C0061214A3
:100D7600C3D006D0070EBE00D00F80CDE52D70087B
:100D8600852982121369805A7401B52D2974FFB51D
:100D960031028015AF317E00AC297D00EC2EFEEDD0
:100DA6003FFF8E828F83121486AE297F008E828F3C
:100DB60083121486802C7402B52D277E047F00EFE3
:100DC60020E71FEE2439F98705BDFF02800D8D82CD
:100DD600C007C006121369D006D0071EBEFF011F4A
:100DE60080DDE556B52603020F12E556F52670039B
:100DF600020EACE52E7009852A821212AB020F1282
:100E06007401B52E2A74FFB532028015AF327E000A
:100E1600AC2A7D00EC2EFEED3FFF8E828F831213EF
:100E2600FCAE2A7F008E828F831213FC020F12748F
:100E360002B52E317E007F00C3EE9405EF648094E8
:100E4600804003020F12EE243EF98705BDFF0280A3
:100E56000D8D82C007C0061212ABD006D0070EBE9B
:100E660000D60F80D37403B52E028003020F127EC4
:100E7600007F00C3EE941EEF648094804003020F4F
:100E860012EE24CCF582EF3401F583E0FDBDFF02BE
:100E9600807A8D82C007C0061214C3D006D0070E12
:100EA600BE00D00F80CDE52E7008852A8212136908
:100EB600805A7401B52E2974FFB532028015AF32FF
:100EC6007E00AC2A7D00EC2EFEED3FFF8E828F83E6
:100ED600121486AE2A7F008E828F83121486802C8F
:100EE6007402B52E277E047F00EF20E71FEE243E16
:100EF600F98705BDFF02800D8D82C007C00612135B
:100F060069D006D0071EBEFF011F80DD900032E4C7
:050F1600F5F002238547
:100F1C009002AAE4F0C200227F00C3E5DB940792A2
:100F2C000140067D077E008004ADDB7E008F037CD4
:100F3C0000C3EB9DEC64808EF063F08095F050174D
:100F4C00EF24A3FDE43402FE8F82758300E0FC8D58
:100F5C00828E83F00F80C3227F008F057E00C3ED4D
:100F6C009407EE940050188F057E00EF24A3F582B1
:100F7C00E43402F583E0FC8D828E83F00F80DB90ED
:100F8C00000722900002E0FF9002ACF0E020E0307D
:100F9C009002A3E0FCA3E0FDA3E0FEA3E0FFBCB045
:100FAC001FBD041CBE0019BF001675E200C2AF9035
:100FBC00C35012243690C35012243612380080FECF
:100FCC00227515009002ACE0600375150185158241
:100FDC00222000149002ADE0FFE0600C8FD553D4BA
:100FEC00FCD2009002ADE4F022AF829002ACE06043
:100FFC005E7D007E003000240DBD00010E900005CA
:10100C00C007C006C005122436D005D006D007C3D1
:10101C00ED9450EE94C340DD758200229002ADE059
:10102C00FEBE400050207D0074402EFEE43DFDEEDF
:10103C002414F582ED3400F583EFF09002ADE0243A
:10104C0001F075820122C007120FDDD00780A27556
:10105C00820022AFF0AE83E58290010CF0EEA3F09B
:10106C00EFA3F09002ACE0700302113290010AE0A1
:10107C00FEA3E0FFC3E49E74808FF063F08095F0D4
:10108C0040030211327E007F003000200EBE0001B2
:10109C000F900005C007C006122436D006D007C337
:1010AC00EE9450EF94C340E17582002290010CE065
:1010BC00FDA3E0FEA3E0FF90010AE0FBA3E0FCC36C
:1010CC00E49B74808CF063F08095F0509F9002AD9F
:1010DC00E0FABA400050498A017A00744029F9E4D8
:1010EC003AFAE92414F9EA3400FA8D828E838FF0EF
:1010FC00122602F8A3AD82AE8390010CEDF0EEA3A4
:10110C00F0EFA3F089828A83E8F09002ADE024012D
:10111C00F01BBBFF011C90010AEBF0ECA3F0809FCD
:10112C00120FDD021078758200229002AAE0F5827F
:10113C00229002AAE07003F582229002ABE0241404
:10114C00F582E43400F583E0FF9002ABE004F0900C
:10115C0002AAE014F0E0700353D4F38F822275D509
:10116C000074FC55D44402F5D4C2002230DE199030
:10117C0002AAE5DBF09002ABE4F09002AAE0600872
:10118C0074F355D44408F5D422121ADC121B06123F
:0F119C001AF575DD0075D30075D50075D70022E3
:1011AC0075D70074FC55D64402F5D69002AEE4F027
:1011BC002290010FE07003F582227E007F009002E6
:1011CC00AEE060200EBE00010F900005C007C00607
:1011DC00122436D006D007C3EE9450EF94C340DEF1
:1011EC00758200229000E07401F07F00BF0800506F
:1011FC00278F057E0074412DFDE43EFEED24A0FDFD
:10120C00EE3400FEEF24AFF582E43402F583E0FC0B
:10121C008D828E83F00F80D475D7099002AE740145
:10122C00F053D6FC7582012290010FE07003F58219
:10123C00227E007F009002AEE060200EBE00010F07
:10124C00900005C007C006122436D006D007C3EEA6
:10125C009450EF94C340DE758200229000E074023B
:10126C00F07F00BF080050278F057E0074412DFDD4
:10127C00E43EFEED24A0FDEE3400FEEF24B7F58233
:10128C00E43402F583E0FC8D828E83F00F80D475FC
:10129C00D7099002AE7401F053D6FC75820122AFCF
:1012AC0082BF880040088F06EE2478FE8042BF8003
:1012BC000040239002AFE0FD8F04EC2480F5F00594
:1012CC00F07401800225E0D5F0FBFC42059002AFE2
:1012DC00EDF07E00801AEF90279A93FE7003F58252
:1012EC0022EE30E70B9002AFE04402FFF053067F92
:1012FC009002B1E0FFB50602805C9002B2E0FFB54F
:10130C00060280529002B3E0FFB5060280489002BC
:10131C00B4E0FFB50602803E9002B5E0FFB50602D0
:10132C0080349002B6E0FFB50602802A7F027D026F
:10133C00ED24AFFBE43402FC8B828C83E070088BD1
:10134C00828C83EEF080080D8D07BD080040E1BF54
:10135C000804758200221211BD75820122AF82BF72
:10136C00880040088F06EE2478FE8043BF80004042
:10137C00249002AFE0FD8F04EC2480F5F005F074AE
:10138C0001800225E0D5F0FBF4FC52059002AFED94
:10139C00F07E00801AEF90279A93FE7003F582225C
:1013AC00EE30E70B9002AFE054FDFFF053067F7F69
:1013BC0002EE6016EF24AFFCE43402FD8C828D83C8
:1013CC00E0B506068C828D83E4F00FBF080040E187
:1013DC001211BD758201227F00BF0800500FEF244F
:1013EC00AFF582E43402F583E4F00F80EC0211BD1A
:1013FC00AE82AF839002B7E0FCA3E0FDECB506062D
:10140C00EDB50702806D9002B9E0FCA3E0FDECB5F0
:10141C000606EDB50702805B9002BBE0FCA3E0FD85
:10142C00ECB50606EDB5070280499002BDE0FCA3C1
:10143C00E0FDECB50606EDB5070280377D007C00BB
:10144C00EC75F002A424B7FA740235F0FB8A828B97
:10145C0083E0F8A3E0F948700B8A828B83EEF0EFFF
:10146C00A3F080080C8C05BC040040D4BD040475AA
:10147C0082002212123475820122AE82AF837D006B
:10148C00EE4F6026ED75F002A424B7FB740235F024
:10149C00FC8B828C83E0F9A3E0FAE9B5060CEAB583
:1014AC0007088B828C83E4F0A3F00DBD040040D0C0
:1014BC0012123475820122AF82C0071212ABAE82B7
:1014CC00D0078F82C006121369D0068E822290003C
:0514DC00A0E0F58222F2
:1014E200AFDBBF08028003021935900007E0FE7FE0
:1014F20000900006E0FD7C004FF510EC4EF5117FE8
:1015020000900001E0F512900000E0FE546060538C
:10151200900000E0FE5306607D00BE2005BD000283
:10152200800BBE4039BD00367FFF0219377420B5EB
:1015320012030219377421B5120280077422B51200
:1015420018800C120F64AD82AE838D07021937C06A
:1015520007120F8FD0070219377FFF0219377FFF5B
:10156200021937E51224F45003021931E512240B53
:1015720083F582E512241083F583E473134131016C
:10158200310B9631183537371917191819171519DC
:1015920017171919900003E0FEBE01028013BE0264
:1015A200028023BE03028033BE220302167D02168E
:1015B2009B75131A75142890282CE493FD740193DB
:1015C200FE8D0702169D75132E7514289028F3E4DC
:1015D20093FD740193FE8D0702169D900002E07048
:1015E200157513F57514289028F9E493FD74019389
:1015F200FE8D0702169D900002E0FEBE01157513D6
:101602003B751429902949E493FD740193FE8D07DB
:1016120002169D900002E0FEBE02147513097514B5
:101622002990291FE493FD740193FE8D07806C902D
:101632000002E0FEBE03147513FB751428902907FF
:10164200E493FD740193FE8D078050900002E0FE4A
:10165200BE0414751321751429902939E493FD747D
:101662000193FE8D0780347513FB751428902907AA
:10167200E493FD740193FE8D078020900002E070D8
:1016820014751394751428902892E493FD740193B1
:10169200FE8D0780067FFF80027FFFBFFF030219D6
:1016A200378F057E00C3ED9510EE951150048D1015
:1016B2008E11AD10AE11C3ED9408EE94009202406B
:1016C200067B087C008004AB10AC118B077C00C346
:1016D200EC9F50198C027B00EC2513F582E4351443
:1016E200F583E493F98A828B83F00C80E28F037C8A
:1016F20000EDC39BFDEE9CFE8D108E11EF2513F5C0
:1017020013E43514F514021937900002E0FE8E102E
:1017120075110002193790010FE0900000F0AD1032
:10172200AE11C3ED9401EE940050030219377F010C
:10173200021937900002E0FE90010FF00219379073
:101742000000E0541F702F900003E0FD7E00900027
:1017520002E0FC7B004206EB4205BE0114BD001113
:10176200902835E493FE30E5030219377FFF021912
:10177200377FFF021937900000E0FE53061F7D00FD
:10178200BE0277BD0074900004E0FEBE0102805FDD
:10179200BE02028049BE03028033BE0402801DBE27
:1017A20081028040BE8202802ABE83028014BE84EF
:1017B2004474BC55DE4402F5DE02193753DE73026F
:1017C200193774BC55D64402F5D602193753D6736D
:1017D20002193774BC55D44402F5D402193753D4D4
:1017E2007302193774BC55D24402F5D20219375329
:1017F200D2730219377FFF0219377FFF0219379020
:101802000000E0541F702F900003E0FD7E00900066
:1018120002E0FC7B004206EB4205BE0114BD001152
:10182200902835E493FE30E5030219377FFF021951
:10183200377FFF021937900000E0FE53061F7D003C
:10184200BE0205BD0002800302190F900003E0FDF5
:101852007E00900002E0FC7B004206EB4205EE4D6A
:10186200600302190B900005E0FD7E00900004E089
:10187200FC7B004206EB4205BE0106BD00030218D6
:10188200FFBE0205BD00028060BE0305BD000280EE
:1018920044BE0405BD00028028BE8105BD00028051
:1018A20052BE8205BD00028036BE8305BD000280A5
:1018B2001ABE8451BD004E74BF55DE4403F5DE806E
:1018C20074747F55DE440CF5DE806A74BF55D644CD
:1018D20003F5D68060747F55D6440CF5D6805674D5
:1018E200BF55D44403F5D4804C747F55D4440CF5D1
:1018F200D4804274BF55D24403F5D28038747F55E8
:10190200D2440CF5D27FFF802C7FFF80287FFF809E
:1019120024900000E4F0900001F0AD10AE11C3ED90
:101922009402EE940040047F02800AAF1080067F8A
:10193200FF80027FFFBFFF077512FF75DCCF22EF2A
:1019420024F740068FDD75DCC02275DD0075DCC032
:10195200227405B51202805D7406B51266AE10AF30
:1019620011C3EE9408EF9400920340067C087D00B8
:101972008004AC10AD117D00C3ED9C50198D027B2B
:1019820000ED2513F582E43514F583E493F98A8298
:101992008B83F00D80E28C037D00EEC39BFEEF9DF6
:1019A200FF8E108F11EC2513F513E43514F5148C0A
:1019B200DD63DC4022E5E35480FFE5104FF5E3757B
:1019C200DC022275DD0075DC02227420B5120D30B6
:1019D200DE10120F2475DD0085DCDC2275DD00438C
:1019E200DC022275D30074FC55D24402F5D2229057
:1019F20002BF7401F075D30853D2FC758201222014
:101A0200D903021AB2E5D9540FFFADD95305307E7E
:101A120000BD0005BE0002801CBD1005BE00028094
:101A220037BD2005BE00028044BD3006BE00030261
:101A32001A98021AB0EF24FB5003021AB0EF2F904B
:101A42001A457380088067800A806380611219CC0E
:101A5200021AB01211788056EF24FB4051EF2F90FA
:101A62001A657380498047804580438041EF24FB9B
:101A7200403CEF2F901A7A738008800B800E801101
:101A8200802C12195380271219E5802212116A80C4
:101A92001D1211AC8018EF24FB4013EF2F901AA3F4
:101AA20073800880098007800580031214E2C2D97E
:101AB20030D81A75DC0275D21275D41275E300C2E1
:101AC200DAC2D9C2D890010FE4F0120F1C10DA0169
:101AD20022E5DA20E20375D8FF2275E20053E27FA5
:101AE20043E22975E30053E2BF53D1FB75D1804332
:101AF200D1012243E10443E10243E10143D81FD271
:101B0200EAD2AF227E007F008EEC8FED7E0A7F004C
:101B12008EEE8FEF7E147F008EE48FE57EA07F0035
:101B22008EE68FE775EB0C43EB4043EB8075D212E8
:0D1B320075D41275D61275EA4075DC0222DA
:101B4000C021C0E0C0F0C082C083C007C006C0058D
:101B5000C004C003C002C001C000C0D075D00012D4
:101B60001A01D0D0D000D001D002D003D004D005CB
:101B7000D006D007D083D082D0F0D0E0D02132C0C0
:101B800021C0E0C0F0C082C083C007C006C005C04D
:101B900004C003C002C001C000C0D075D00030989E
:101BA0000512261EC298309905122654C299D0D02B
:101BB000D000D001D002D003D004D005D006D00789
:101BC000D083D082D0F0D0E0D02132C021C0E0C09C
:101BD000F0C082C083C007C006C005C004C003C0F7
:101BE00002C001C000C0D075D00030C005122698D8
:101BF000C2C030C1051226CEC2C1D0D0D000D001A3
:101C0000D002D003D004D005D006D007D083D08234
:101C1000D0F0D0E0D02132C021C0E0C0F0C082C0FE
:101C200083C007C006C005C004C003C002C001C015
:101C300000C0D075D0009002C2E0FEA3E0FFC00754
:101C4000C0068E828F83120069D006D007D0D0D014
:101C500000D001D002D003D004D005D006D007D0E8
:101C600083D082D0F0D0E0D02132C021C0E0C0F0DB
:101C7000C082C083C007C006C005C004C003C00244
:101C8000C001C000C0D075D0009002C4E0FEA3E047
:101C9000FFC007C0068E828F83120069D006D0076E
:101CA000D0D0D000D001D002D003D004D005D006CF
:101CB000D007D083D082D0F0D0E0D02132C021C074
:101CC000E0C0F0C082C083C007C006C005C004C029
:101CD00003C002C001C000C0D075D0009002C0E0B7
:101CE000FEA3E04E600E9002C0E0F8A3E0F583880A
:101CF00082120069D0D0D000D001D002D003D0042D
:101D0000D005D006D007D083D082D0F0D0E0D0214B
:101D1000321224711201561203A480FB7582002234
:101D2000AE82AF83900110E0FBA3E0FCA3E0FD7A5C
:101D300000900113E0F9890019E8603F8B828C83E1
:101D40008DF0122602F8A3AB82AC83C007C006C098
:101D500005C004C003C002C001121D5E8007C0069A
:101D6000C007888222A882D001D002D003D004D03C
:101D700005D006D007E860030A80BB8A8222AE82C3
:101D8000AF83900114E0FBA3E0FCA3E0FD900114FD
:101D9000E0F5F0A3E045F07003F582227A008B8233
:101DA0008C838DF0122602F9A3AB82AC83E9F86034
:101DB0002CC007C006C005C004C003C002121DC26B
:101DC0008007C006C007888222A982D002D003D033
:101DD00004D005D006D007E960030A80C18A8222B8
:101DE000AE82AF83900117E0FAA3E0FBA3E0FCA36F
:101DF000E0FD90011FEAF0EBA3F0ECA3F0EDA3F0FF
:101E0000900123740AF08E828F83021E71AE82AF1E
:101E10008390011BE0FAA3E0FBA3E0FCA3E0FD90AC
:101E20000145EAF0EBA3F0ECA3F0EDA3F09001493B
:101E3000740AF08E828F83021F56AE82AF83C00772
:101E4000C006121E478008C006C00775820D22AD6D
:101E500082D006D007C007C005121E5E8008C006EB
:101E6000C00775820A22AE82D005D007EE2DF5821A
:101E700022858257858358900144E4F0900123E045
:101E8000FDBD02005006900123740AF0900123E08A
:101E9000F5597B447C0190011FE0F55AA3E0F55B06
:101EA000A3E0F55CA3E0F55D85595E755F007560A4
:101EB00000756100855E15855F1685601785611860
:101EC000855A82855B83855CF0E55DC004C00312A2
:101ED00024AAA882855E15855F168560178561181E
:101EE000855A82855B83855CF0E55DC00012252DF7
:101EF000AA82AD83AEF0FFD000D003D00490011FC2
:101F0000EAF0EDA3F0EEA3F0EFA3F01BBBFF011C82
:101F10008B068C07B80A005008880574302DFD80A8
:101F200004743728FD8E828F83EDF090011FE0F559
:101F3000F0A3E042F0A3E042F0A3E045F06003022A
:101F40001E96900114EBF0ECA3F0E4A3F085578209
:101F5000855883021D7E858262858363900149E0F6
:101F6000FD7019900145E0F9A3E0FAA3E0FBA3E0BE
:101F7000FC021F74C062C06389822222BD0A0280F3
:101F800003022021900145E0F9A3E0FAA3E0FBA3BE
:101F9000E0FC30E76FC004C003C002C001121FA202
:101FA0008008C062C06375822D22A882D001D00251
:101FB000D003D0048864900145C3E499F0E49AA367
:101FC000F0E49BA3F0E49CA3F0900145E0F565A349
:101FD000E0F566A3E0F567A3E0F56890011FE5650D
:101FE000F0E566A3F0E567A3F0E568A3F0900123B0
:101FF000740AF0856282856383121E71AF82E56484
:102000002FF5822290011FE9F0EAA3F0EBA3F0EC98
:10201000A3F0900123740AF0856282856383021E17
:1020200071900145E0FBA3E0FCA3E0FEA3E0FF907C
:10203000011FEBF0ECA3F0EEA3F0EFA3F09001236F
:0B204000EDF0856282856383021E7153
:10204C0022AC82AD83AEF0FF90011BECF0EDA3F05F
:10205C00EEA3F0EFA3F0900FF5021E0DAC82AD8352
:10206C00AEF0FF90014AE0FB900145ECF0EDA3F0DF
:10207C00EEA3F0EFA3F0900149EBF0900FF5021FE7
:10208C0056AC82AD83AEF0FF900117ECF0EDA3F0EF
:10209C00EEA3F0EFA3F0900FF5021DE0AC82AD8340
:1020AC00AEF0FF90014BE0FB900145ECF0EDA3F09E
:1020BC00EEA3F0EFA3F0900149EBF0900FF5021FA7
:1020CC0056AD82AE83AFF0900114EDF0EEA3F0EFBD
:1020DC00A3F0900FF5021D7EAD82AE83AFF09001A0
:1020EC004CE0FC900110EDF0EEA3F0EFA3F09001AA
:0920FC0013ECF0900FF5021D2019
:10210600E582FF90299B93FEEF90297393FF700160
:102116002290014DE0FD701BBF0209EEF4FC5292C5
:10212600EC529322BF0402800122EEF4FC5296EC9C
:10213600529722BD0214BF0207EE4292EE4293224C
:10214600BF0439EE4296EE429722BD0116BF020841
:10215600EEF45292EE429322BF0421EEF45296EE32
:10216600429722BD0316BF0208EE4292EEF4529346
:1021760022BF0408EE4296EEF4FE529722AF82BFCB
:102186000102800FBF02028013BF03028017BF0443
:1021960025801BE5C620E21E539DFB22E5C620E3F3
:1021A60015539DF722E5C630E20C539DFB22E5C68A
:1021B60030E303539DF722E582FF90294B93FEEF10
:1021C60090299B93FDEF90297393FF7003F582226C
:1021D600EE600D8E82C007C005122183D005D007A0
:1021E6007E00BF0202800ABF03028009BF040C8082
:1021F60008AE908006AEA08002AEB0ED5E600475BB
:1022060082012275820022E582FF90294B93FEEF20
:1022160090299B93FDEF90297393FFEE600D8E82BC
:10222600C007C005122183D005D007A2AFE433FE54
:10223600C2AFBF0202800ABF03028017BF04368006
:102246002490014EE07007EDF4FF52908027ED4296
:1022560090802290014EE07007EDF4FF52A08015A9
:10226600ED42A0801090014EE07007EDF4FF52B0F1
:0B2276008003ED42B0EE6002D2AF2208
:10228200AE82AF838F05BD800040012275A15575D6
:10229200A1AA43B10475A1007585C0ED2DF5848E08
:1022A2008EE58630E60375869A75A15575A1AA5307
:1022B200B1FB75A10022AF827585C0EF2FF5847541
:1022C200868E858E8222C0D075D00808B8000D098E
:1022D200B900090ABA00050BBB00010CD0D032A22A
:1022E200AFC2AFA808A909AA0AAB0BAC8A8588F0CD
:1022F20092AF30F51274012C600D08B8000909B9CB
:1023020000050ABA00010BC3EC9406FCECC313FCF3
:1023120075F07DE8A4F8ADF075F07DE9A42DF9E43F
:1023220035F0FD75F07DEAA42DFAE435F0FD75F087
:102332007DEBA42DFB7D00EC28F582E93DF583EAD7
:102342003DF5F0EB3D22A2AFC2AFA808A909AA0A47
:10235200AB0BAC0C92AF75F020E8A4A8F075F0209E
:10236200E9A428F582A8F075F020EAA428F583A84C
:10237200F075F020EBA428F9A8F075F020ECA42861
:1023820089F02285826985836A85F06BF56C122259
:10239200E185826D85836E85F06FF570E569456A2A
:1023A200456B456C700122A869A96AAA6BAB6C8562
:1023B2006D71856E72856F73857074E8494A4B60E2
:1023C200DBC003C002C001C0001222E1AC82AD83B7
:1023D200AEF0FFD000D001D002D003ECC39571FC67
:1023E200ED9572FDEE9573FEEF9574FFC3EC94E8E4
:1023F200ED9403EE9400EF940040A118B8FF091980
:10240200B9FF051ABAFF011B8869896A8A6B8B6C4E
:1024120074E82571F57174033572F572E43573F55C
:1024220073E43574F57485716D85726E85736F858D
:1024320074708087AE82AF83C374019EE49F4002B2
:102442002200C374029EFE74009FFF00BE0005BFFF
:102452000002002200000000000000000000000056
:1024620000000000000EBE00EB0FBF00ED00227561
:10247200A15575A1AA74F855B94406F5B975A1001C
:10248200901388122436759E5D759D0074F05589EF
:102492004402F58953C9EF758C06C28DD2A9D28C3C
:0324A200D2AF2294
:0124A6003203
:0124A8003201
:1024AA00F9E51545164517451860777800C308E51C
:1024BA001820E73BE51525E0F515E51633F516E591
:1024CA001733F517E51833F518E5829515E5839561
:1024DA0016E5F09517E9951850D4C3E51813F518C1
:1024EA00E51713F517E51613F516E51513F515E5B2
:1024FA00829515FCE5839516FDE5F09517FEE9959D
:10250A00184007F98EF08D838C82C3E51813F518ED
:10251A00E51713F517E51613F516E51513F515D88E
:10252A00CEE922FB7A20E4FCFDFEFFE5822582F556
:10253A0082E58333F583E5F033F5F0EB33FB40179F
:10254A00DAE98042E5822582F582E58333F583E57F
:10255A00F033F5F0EB33FBEC33FCED33FDEE33FEF9
:10256A00EF33FFEC9515ED9516EE9517EF9518409C
:10257A0013EC9515FCED9516FDEE9517FEEF9518E3
:08258A00FF438201DABEEB22DF
:1025920022AF82BF02005036EF75F002A424C2F5CA
:1025A20082740235F0F583E515F0E516A3F0BF005D
:1025B200028005BF0118800B90014FE024FF928832
:1025C200D2A82290014FE0FF24FF928AD2AA22AF22
:1025D20082BF02005028BF00028005BF01088004AC
:1025E200C2A88002C2AAEF75F002A424C2FE74023D
:0F25F20035F0FF8E828F837492F07425A3F02250
:1026020020F71430F6148883A88220F507E6A88301
:0C26120075830022E280F7E49322E022AE
:10261E009002C6E0FF7E008F828E83A37515108E0A
:10262E001612275FAE829002C7E0FFEEB5070122B9
:10263E009002C6E02450F582E43401F583E599F06A
:10264E009002C6EEF0223004409002C8E0FF9002E5
:10265E00C9E0FEEFB50605A204C204229002C9E04D
:10266E002460F582E43401F583E0F5999002C9E027
:10267E00FF7E008F828E83A37515108E1612275F34
:0A268E00AE82AF839002C9EEF02285
:102698009002CAE0FF7E008F828E83A37515108E8C
:1026A8001612275FAE829002CBE0FFEEB50701223B
:1026B8009002CAE02470F582E43401F583E5C1F0A4
:1026C8009002CAEEF0223005409002CCE0FF900262
:1026D800CDE0FEEFB50605A205C205229002CDE0C9
:1026E8002480F582E43401F583E0F5C19002CDE061
:1026F800FF7E008F828E83A37515108E1612275FBA
:0A270800AE82AF839002CDEEF02206
:10271200E515451660467A01E51525E0F515E5163D
:10272200334012F516E5829515E583951640030AA6
:1027320080E6C3E51613F516E51513F515C3E58214
:102742009515F5F0E58395164005F58385F082C36E
:10275200E51613F516E51513F515DAE122C2D5E5EE
:102762008330E70DD2D5E4C39582F582E49583F5F3
:1027720083E51630E70BE4C39515F515E49516F5D8
:102782001612271230D50BE4C39582F582E49583A5
:03279200F58322AA
:05279500763300310065
:10279A0000000000000000002A2B280000000000B2
:1027AA00000000000000000000000000000000001F
:1027BA002C9EB4A0A1A2A434A6A7A5AE362D373864
:1027CA00271E1F20212223242526B333B62EB7B86D
:1027DA009F8485868788898A8B8C8D8E8F9091922B
:1027EA00939495969798999A9B9C9D2F3130A3AD77
:1027FA00350405060708090A0B0C0D0E0F101112F5
:10280A00131415161718191A1B1C1DAFB1B0B500F1
:10281A0012011001EF020108091250C5010101025B
:10282A0003011200090264000301008064080B001E
:10283A000202020104090400000102020104052443
:10284A0000100105240100000424020205240600E8
:10285A00010705810308004009040100020A00007B
:10286A000407050202400000070582024000000931
:10287A000402000103010100092110012101225F64
:10288A00000705830309000A5F0005010906A10183
:10289A008501050719E029E7150025019508750145
:1028AA00810295017508810395067508150026FFB2
:1028BA00000507190029E7810005081901290515EE
:1028CA00002501950575019102950175039103C0D3
:1028DA00050C0901A1018502150026FF0319002A2A
:1028EA00FF03950475108100C06400040309040401
:1028FA00000C03430048003500350078000C001630
:10290A00032D005900750061006E002D0033006B25
:10291A000065007900160017035900750061006E02
:10292A00002D00530065007200690061006C0018F8
:10293A00000E032D005900750061006E002D000E77
:01294A00008C
:10294B00000000000000000000000000000000017B
:10295B000000000000000000000000000000030465
:10296B000000020000000000010101010101010152
:10297B000000020202020202020200000303030330
:10298B000303030300000404040404040404000010
:10299B0001020408102040800000010204081020EE
:1029AB00408000000102040810204080000001025A
:1029BB000408102040800000FFFFFFFFFFFFFFFF18
:1029CB00FFFFFF00FFFF0102FFFFFFFFFFFFFFFF06
:1029DB00FFFFFFFFFFFFFFFF03FFFFFFFFFFFFFFF8
:1029EB00FFFFFFFFFFFFFFFFFFFFFFFFFFFFFFFFEC
:1029FB00FFFFFFFFFFFFFFFFFFFFFFFFFFFF6874FE
:102A0B007470733A2F2F746F707975616E2E746FAB
:102A1B00702F336B6579FFFFFFFFFFFFFFFFFFFF9A
:102A2B00FFFFFFFFFFFFFFFFFFFFFFFFFFFFFFFFAB
:102A3B00FFFFFFFFFFFFFFFFFFFFFFFFFFFFFFFF9B
:102A4B00FFFFFFFFFFFFFFFFFFFFFFFFFFFFFFFF8B
:102A5B00FFFFFFFFFFFFFFFFFFFFFFFFFFFFFFFF7B
:102A6B00FFFFFFFFFFFFFFFFFFFFFFFFFFFFFFFF6B
:102A7B00FFFFFFFFFFFFFFFFFFFFFFFFFFFFFFFF5B
:102A8B00FFFFFFFFFFFFFFFFFFFFFFFFFFFFFFFF4B
:102A9B00FFFFFFFFFFFFFFFFFFFFFFFFFFFFFFFF3B
:102AAB00FFFFFFFFFFFFFFFFFFFFFFFFFFFFFFFF2B
:102ABB00FFFFFFFFFFFFFFFFFFFFFFFFFFFFFFFF1B
:102ACB00FFFFFFFFFFFFFFFFFFFFFFFFFFFFFFFF0B
:102ADB00FFFFFFFFFFFFFFFFFFFFFFFFFFFFFFFFFB
:102AEB00FFFFFFFFFFFFFFFFFFFFFFFFFFFFFFFFEB
:032AFB00FFFFFFDB
:0B2AFE0000E1000000000800000000E4
:102B090000000000000000000000000000000000BC
:012B190000BB
:012B1A0000BA
:022B1B000000B8
:042B1D009225922546
:042B210000000000B0
:042B250000000000AC
:00000001FF
