:0600000002006B0215A1D5
:03000B00021C5282
:030013000215F4DF
:01001B0032B2
:03002300021509BA
:03002B00021E3280
:01003300329A
:03003B0002164763
:030043000214CADA
:01004B003282
:030053000215553E
:01005B003272
:03006300021E304A
:0300660002169BE4
:02006900E4733E
:0D006B007581501216A6E582600302006642
:1000780079EAE94400601B7A01902372788F75A0B1
:1000880001E493F2A308B8000205A0D9F4DAF275E6
:02009800A0FFC7
:06009A00E478FFF6D8FD3A
:1000A0007800E84400600A790A75A001E4F309D8F1
:1000B000FC7885E84400600C790190010AE4F0A323
:0400C000D8FCD9FA95
:1000C40075229B7523167524007525007526007509
:1000D4002780752863752976752A00752B00752C81
:0F00E40000752DFF752EFF752FFFE4F530F531F8
:0200F400C20048
:0E00F6007808E4F608F608F608F6780C7600AE
:02010400C20433
:02010600C20530
:030108000200668C
:10010C00120B3B90014C7402F075820F121A9090F6
:10011C00014C7402F0758210121A9090014C74020A
:10012C00F075820E121A90758200121C42AF827505
:10013C008201C007121C42AE82758202C006121CDC
:10014C0042AD82758203C005121C42AC82758204DA
:10015C00C004121C42AB82758205C003121C42AA59
:10016C0082758206C002121C42A982758207C001E8
:10017C00121C42858232758208121C42A882D00160
:10018C00D002D003D004D005D006D007BFFF028028
:10019C00028F27BEFF0280028E28BDFF0280028DD7
:1001AC0029BCFF0280028C2ABBFF0280028B2BBA77
:1001BC00FF0280028A2CB9FF028002892D74FFB5E0
:1001CC003202800385322EB8FF028002882F7E0017
:1001DC007F00C3EE941EEF64809480400122EE24D5
:1001EC008FFCEF3401FD8E0374092BF582C007C020
:1001FC0006C005C004C003121C42AA82D003D0045E
:10020C00D005D006D0078C828D83EAF0EE24ADFCAD
:10021C00EF3401FD74272BF582C007C006C005C062
:10022C0004C003121C42AA82D003D004D005D0060D
:10023C00D0078C828D83EAF0EE24CBFCEF3401FDE9
:10024C0074452BF582C007C006C005C004121C42C1
:10025C00AB82D004D005D006D0078C828D83EBF016
:10026C000EBE00010F0201DE120ADCE582700302F1
:10027C0004AB120AE3AF82BF0A0280ECBF0D02800E
:10028C00E7C37464953074808531F063F08095F029
:10029C005005E4F530F531E53045317003BF02C847
:1002AC007401B5300614B531028003020492BF0309
:1002BC00028003020492AB277C007D007E0090013B
:1002CC00497410F08B828C838DF0EE1219F2900928
:1002DC009B1217C4AB287C007D007E0090014974F2
:1002EC0010F08B828C838DF0EE1219F290099B1218
:1002FC0017C4AB297C007D007E009001497410F07E
:10030C008B828C838DF0EE1219F290099B1217C41C
:10031C00AB2A7C007D007E0090014A7410F08B8229
:10032C008C838DF0EE121A3290099B1217C4AB2BF2
:10033C007C007D007E0090014A7410F08B828C83CF
:10034C008DF0EE121A3290099B1217C4AB2C7C0064
:10035C007D007E0090014A7410F08B828C838DF0AE
:10036C00EE121A3290099B1217C4AB2D7C007D0043
:10037C007E009001497410F08B828C838DF0EE120C
:10038C0019F290099B1217C4AB2E7C007D007E00E5
:10039C009001497410F08B828C838DF0EE1219F25F
:1003AC0090099B1217C4AB2F7C007D007E0090013E
:1003BC00497410F08B828C838DF0EE1219F2900937
:1003CC009B1217C47D007E00C3ED941EEE648094D6
:1003DC00805025ED248FF582EE3401F583E0FCBCD2
:1003EC00FF0280148C82C006C00512099BD005D078
:1003FC00060DBD00D30E80D01219D690099B121792
:10040C00C47D007E00C3ED941EEE64809480502564
:10041C00ED24ADF582EE3401F583E0FCBCFF0280E7
:10042C00148C82C006C00512099BD005D0060DBDE8
:10043C0000D30E80D01219D690099B1217C47D00E0
:10044C007E00C3ED941EEE648094805025ED24CB89
:10045C00F582EE3401F583E0FCBCFF0280148C8243
:10046C00C006C00512099BD005D0060DBD00D30EE9
:10047C0080D01219D690099B1217C4120983E4F587
:10048C0030F531020274E53024E9F582E5313401AE
:10049C00F583EFF00530E4B53002053102027474D7
:1004AC0065B53006E4B5310280030205D6E4F530BB
:1004BC00F5319001E9E0FFBF020280030205D690FE
:1004CC00024DE0FFBF030280030205D690011374B6
:1004DC001FF07421A3F07480A3F090099B121708ED
:1004EC001209837E007F00C3EE9462EF64809480D7
:1004FC0050298E050DED3395E0FCED24E9F582ECE9
:10050C003401F583E0F5828E83C007C006121C0C03
:10051C00D006D0070EBE00CF0F80CC9001EAE0F5DC
:10052C00279001EBE0F5289001ECE0F5299001ED26
:10053C00E0F52A9001EEE0F52B9001EFE0F52C9020
:10054C0001F0E0F52D9001F1E0F52E9001F2E0F5CF
:10055C002F7E007F00C3EE941EEF64809480506A5F
:10056C00EE248FFCEF3401FD8E03740A2BF93395C6
:10057C00E0FAE924E9F582EA3401F583E08C828D16
:10058C0083F0EE24ADFCEF3401FD74282BF9339588
:10059C00E0FAE924E9F582EA3401F583E08C828DF6
:1005AC0083F0EE24CBFCEF3401FD74462BFB33952A
:1005BC00E0FAEB24E9F582EA3401F583E0FB8C8266
:1005CC008D83F00EBE008E0F808B75820F121B4731
:1005DC00E582B40100E433FFB524030206CEEFF547
:1005EC00247003020683E52A7009852782120C3FCA
:1005FC000206CE7401B52A2D74FFB52D028018AFFA
:10060C002D7E00AC277D00EC2EFEED3FFF8E828F01
:10061C0083120D900206CEAE277F008E828F83123E
:10062C000D900206CE7402B52A0F852D82120C3F56
:10063C00852782120C3F0206CE7403B52A02800372
:10064C000206CE7E007F00C3EE941EEF6480948081
:10065C005070EE248FF582EF3401F583E0FDBDFF81
:10066C0002805F8D82C007C006120E57D006D007DD
:10067C000EBE00D30F80D0E52A7008852782120C9D
:10068C00FD803F7401B52A2974FFB52D028015AF8A
:10069C002D7E00AC277D00EC2EFEED3FFF8E828F71
:1006AC0083120E1AAE277F008E828F83120E1A8051
:1006BC00117402B52A0C852782120CFD852D82122D
:1006CC000CFD758210121B47E582B40100E433FF68
:1006DC00B525030207C3EFF5257003020778E52B58
:1006EC007009852882120C3F0207C37401B52B2AAE
:1006FC0074FFB52E028015AF2E7E00AC287D00EC69
:10070C002EFEED3FFF8E828F83120D90AE287F0060
:10071C008E828F83120D900207C37402B52B0F8546
:10072C002E82120C3F852882120C3F0207C37403E1
:10073C00B52B0280030207C37E007F00C3EE941E1C
:10074C00EF648094805070EE24ADF582EF3401F5A7
:10075C0083E0FDBDFF02805F8D82C007C006120ED4
:10076C0057D006D0070EBE00D30F80D0E52B7008F3
:10077C00852882120CFD803F7401B52B2974FFB5BE
:10078C002E028015AF2E7E00AC287D00EC2EFEEDE7
:10079C003FFF8E828F83120E1AAE287F008E828FBF
:1007AC0083120E1A80117402B52B0C852882120C40
:1007BC00FD852E82120CFD75820E121B47E582B44C
:1007CC000100E433FFB526030208B8EFF5267003E9
:1007DC0002086DE52C7009852982120C3F0208B8BD
:1007EC007401B52C2A74FFB52F028015AF2F7E0033
:1007FC00AC297D00EC2EFEED3FFF8E828F83120D17
:10080C0090AE297F008E828F83120D900208B874EF
:10081C0002B52C0F852F82120C3F852982120C3FBA
:10082C000208B87403B52C0280030208B87E007F5E
:10083C0000C3EE941EEF648094805070EE24CBF5D0
:10084C0082EF3401F583E0FDBDFF02805F8D82C035
:10085C0007C006120E57D006D0070EBE00D30F806D
:10086C00D0E52C7008852982120CFD803F7401B5EF
:10087C002C2974FFB52F028015AF2F7E00AC297D7B
:10088C0000EC2EFEED3FFF8E828F83120E1AAE29E6
:10089C007F008E828F83120E1A80117402B52C0C7D
:1008AC00852982120CFD852F82120CFD900032E4FA
:0508BC00F5F0021D0F24
:1008C200900255E4F0C200227F00C3E5DB94079258
:1008D2000140067D077E008004ADDB7E008F037C35
:1008E20000C3EB9DEC64808EF063F08095F05017AE
:1008F200EF244EFDE43402FE8F82758300E0FC8D0E
:10090200828E83F00F80C3227F008F057E00C3EDAD
:100912009407EE940050188F057E00EF244EF58266
:10092200E43402F583E0FC8D828E83F00F80DB904D
:10093200000722900002E0FF900257F0E020E03032
:1009420090024EE0FCA3E0FDA3E0FEA3E0FFBCB0FA
:100952001FBD041CBE0019BF001675E200C2AF9095
:10096200C350121DC090C350121DC012380080FE29
:1009720022751600900257E06003751601851682F3
:1009820022200014900258E0FFE0600C8FD553D46F
:10099200FCD200900258E4F022AF82900257E0604D
:1009A2005E7D007E003000240DBD00010E9000052A
:1009B200C007C006C005121DC0D005D006D007C3AF
:1009C200ED9450EE94C340DD75820022900258E00F
:1009D200FEBE400050207D0074402EFEE43DFDEE40
:1009E2002414F582ED3400F583EFF0900258E024F0
:1009F20001F075820122C007120983D00780A27517
:100A0200820022AFF0AE83E58290010CF0EEA3F0FB
:100A1200EFA3F0900257E07003020AD890010AE0B7
:100A2200FEA3E0FFC3E49E74808FF063F08095F034
:100A32004003020AD87E007F003000200EBE000173
:100A42000F900005C007C006121DC0D006D007C314
:100A5200EE9450EF94C340E17582002290010CE0C5
:100A6200FDA3E0FEA3E0FF90010AE0FBA3E0FCC3CC
:100A7200E49B74808CF063F08095F0509F90025854
:100A8200E0FABA400050498A017A00744029F9E438
:100A92003AFAE92414F9EA3400FA8D828E838FF04F
:100AA200121F8CF8A3AD82AE8390010CEDF0EEA381
:100AB200F0EFA3F089828A83E8F0900258E02401E3
:100AC200F01BBBFF011C90010AEBF0ECA3F0809F2E
:100AD200120983020A1E75820022900255E0F582F5
:100AE20022900255E07003F58222900256E024140F
:100AF200F582E43400F583E0FF900256E004F090C2
:100B02000255E014F0E0700353D4F38F822275D5BE
:100B12000074FC55D44402F5D4C2002230DE199090
:100B22000255E5DBF0900256E4F0900255E06008D1
:100B320074F355D44408F5D4221214661214901298
:0F0B4200147F75DD0075D30075D50075D70022BF
:100B520075D70074FC55D64402F5D6900259E4F0DC
:100B6200227E007F00900259E060200EBE00010F3D
:100B7200900005C007C006121DC0D006D007C3EE04
:100B82009450EF94C340DE758200229000E074011D
:100B9200F07F00BF080050278F057E0074412DFDB5
:100BA200E43EFEED24A0FDEE3400FEEF245AF58271
:100BB200E43402F583E0FC8D828E83F00F80D475DD
:100BC200D7099002597401F053D6FC758201227E36
:100BD200007F00900259E060200EBE00010F9000DD
:100BE20005C007C006121DC0D006D007C3EE945040
:100BF200EF94C340DE758200229000E07402F07F21
:100C020000BF080050278F057E0074412DFDE43E91
:100C1200FEED24A0FDEE3400FEEF2462F582E43402
:100C220002F583E0FC8D828E83F00F80D475D709A4
:100C32009002597401F053D6FC75820122AF82BF33
:100C4200880040088F06EE2478FE8042BF80004074
:100C52002390025AE0FD8F04EC2480F5F005F07435
:100C620001800225E0D5F0FBFC420590025AEDF02E
:100C72007E00801AEF90212193FE7003F58222EE0E
:100C820030E70B90025AE04402FFF053067F9002D5
:100C92005CE0FFB50602805C90025DE0FFB50602F3
:100CA200805290025EE0FFB50602804890025FE04B
:100CB200FFB50602803E900260E0FFB50602803476
:100CC200900261E0FFB50602802A7F027D02ED24D8
:100CD2005AFBE43402FC8B828C83E070088B828C9A
:100CE20083EEF080080D8D07BD080040E1BF0804C7
:100CF20075820022120B6375820122AF82BF8800C7
:100D020040088F06EE2478FE8043BF800040249086
:100D1200025AE0FD8F04EC2480F5F005F0740180A6
:100D22000225E0D5F0FBF4FC520590025AEDF07E6C
:100D320000801AEF90212193FE7003F58222EE309B
:100D4200E70B90025AE054FDFFF053067F7F02EE5C
:100D52006016EF245AFCE43402FD8C828D83E0B5E8
:100D620006068C828D83E4F00FBF080040E1120B6F
:100D720063758201227F00BF0800500FEF245AF5ED
:100D820082E43402F583E4F00F80EC020B63AE825E
:100D9200AF83900262E0FCA3E0FDECB50606EDB580
:100DA2000702806D900264E0FCA3E0FDECB506064C
:100DB200EDB50702805B900266E0FCA3E0FDECB5B6
:100DC2000606EDB507028049900268E0FCA3E0FD4B
:100DD200ECB50606EDB5070280377D007C00EC75A8
:100DE200F002A42462FA740235F0FB8A828B83E05B
:100DF200F8A3E0F948700B8A828B83EEF0EFA3F040
:100E020080080C8C05BC040040D4BD04047582002B
:100E120022120BD175820122AE82AF837D00EE4F8A
:100E22006026ED75F002A42462FB740235F0FC8B9F
:100E3200828C83E0F9A3E0FAE9B5060CEAB507086B
:100E42008B828C83E4F0A3F00DBD040040D0120B22
:100E5200D175820122AF82C007120C3FAE82D00749
:100E62008F82C006120CFDD0068E82229000A0E076
:030E7200F58222E4
:100E7600AFDBBF080280030212C4900007E0FE7FCA
:100E860000900006E0FD7C004FF510EC4EF5117F5A
:100E960000900001E0F512900000E0FE54606053FF
:100EA600900000E0FE5306607D00BE2005BD0002F6
:100EB600800BBE4039BD00367FFF0212C67420B5D6
:100EC60012030212C67421B5120280077422B512EB
:100ED60018800C12090AAD82AE838D070212C6C0B5
:100EE60007120935D0070212C67FFF0212C67FFF1E
:100EF6000212C6E51224F450030212C0E512240BB6
:100F060083F582E512241083F583E473A2D0C090A2
:100F1600C09F2AC0ACC7C6C61210121112100F12FB
:100F260010101212900003E0FEBE01028013BE02F2
:100F3600028023BE03028033BE2203021011021078
:100F46002F7514A17515219021B3E493FD740193B7
:100F5600FE8D070210317514B575152190227AE4BD
:100F660093FD740193FE8D07021031900002E0702C
:100F76001575147C751522902280E493FD740193F7
:100F8600FE8D07021031900002E0FEBE01157514B9
:100F9600C27515229022D0E493FD740193FE8D074D
:100FA600021031900002E0FEBE0214751490751511
:100FB600229022A6E493FD740193FE8D07806C9027
:100FC6000002E0FEBE031475148275152290228E6F
:100FD600E493FD740193FE8D078050900002E0FEBD
:100FE600BE04147514A87515229022C0E493FD74EE
:100FF6000193FE8D07803475148275152290228E1A
:10100600E493FD740193FE8D078020900002E0704A
:101016001475141B751522902219E493FD7401931F
:10102600FE8D0780067FFF80027FFFBFFF0302124F
:10103600C68F057E00C3ED9510EE951150048D10F8
:101046008E11AD10AE11C3ED9408EE9400920240DD
:10105600067B087C008004AB10AC118B077C00C3B8
:10106600EC9F50198C027B00EC2514F582E43515B3
:10107600F583E493F98A828B83F00C80E28F037CFC
:1010860000EDC39BFDEE9CFE8D108E11EF2514F531
:1010960014E43515F5150212C6900002E0FE8E1016
:1010A6007511000212C6900000E513F0AD10AE11E6
:1010B600C3ED9401EE940050030212C67F010212A2
:1010C600C6900002E0F5130212C6900000E0541F1D
:1010D600702F900003E0FD7E00900002E0FC7B0094
:1010E6004206EB4205BE0114BD00119021BCE493FB
:1010F600FE30E5030212C67FFF0212C67FFF021210
:10110600C6900000E0FE53061F7D00BE0277BD00BC
:1011160074900004E0FEBE0102805FBE02028049B8
:10112600BE03028033BE0402801DBE81028040BE23
:101136008202802ABE83028014BE844474BC55DEBB
:101146004402F5DE0212C653DE730212C674BC55A3
:10115600D64402F5D60212C653D6730212C674BC22
:1011660055D44402F5D40212C653D4730212C6747F
:10117600BC55D24402F5D20212C653D2730212C62D
:101186007FFF0212C67FFF0212C6900000E0541FC6
:10119600702F900003E0FD7E00900002E0FC7B00D3
:1011A6004206EB4205BE0114BD00119021BCE4933A
:1011B600FE30E5030212C67FFF0212C67FFF02124F
:1011C600C6900000E0FE53061F7D00BE0205BD006E
:1011D60002800302129E900003E0FD7E0090000252
:1011E600E0FC7B004206EB4205EE4D600302129ADC
:1011F600900005E0FD7E00900004E0FC7B004206C6
:10120600EB4205BE0106BD000302128EBE0205BDFD
:1012160000028060BE0305BD00028044BE0405BD19
:1012260000028028BE8105BD00028052BE8205BD37
:1012360000028036BE8305BD0002801ABE8451BD01
:10124600004E74BF55DE4403F5DE8074747F55DEB0
:10125600440CF5DE806A74BF55D64403F5D680602B
:10126600747F55D6440CF5D6805674BF55D44403C6
:10127600F5D4804C747F55D4440CF5D4804274BFA9
:1012860055D24403F5D28038747F55D2440CF5D23A
:101296007FFF802C7FFF80287FFF8024900000E462
:1012A600F0900001F0AD10AE11C3ED9402EE940083
:1012B60040047F02800AAF1080067FFF80027FFF16
:1012C600BFFF077512FF75DCCF22EF24F740068FAC
:1012D600DD75DCC02275DD0075DCC0227405B51233
:1012E60002805D7406B51266AE10AF11C3EE9408A7
:1012F600EF9400920340067C087D008004AC10AD9C
:10130600117D00C3ED9C50198D027B00ED2514F56F
:1013160082E43515F583E493F98A828B83F00D8098
:10132600E28C037D00EEC39BFEEF9DFF8E108F11B6
:10133600EC2514F514E43515F5158CDD63DC402237
:10134600E5E35480FFE5104FF5E375DC022275DD19
:101356000075DC02227420B5120D30DE101208CAA8
:1013660075DD0085DCDC2275DD0043DC022275D3E9
:101376000074FC55D24402F5D22290026A7401F040
:1013860075D30853D2FC7582012220D90302144179
:10139600E5D9540FFFADD95305307E00BD0005BE1B
:1013A6000002801CBD1005BE00028037BD2005BEB0
:1013B60000028044BD3006BE000302142702143F1B
:1013C600EF24FB500302143FEF2F9013D4738008D1
:1013D6008067800A8063806112135B02143F120BE0
:1013E6001E8056EF24FB4051EF2F9013F473804973
:1013F6008047804580438041EF24FB403CEF2F909F
:101406001409738008800B800E8011802C1212E262
:1014160080271213748022120B10801D120B52802B
:1014260018EF24FB4013EF2F9014327380088009C5
:10143600800780058003120E76C2D930D81575DC78
:101446000275D21275D41275E300C2DAC2D9C2D8B7
:101456001208C210DA0122E5DA20E20375D8FF226B
:1014660075E20053E27F43E22975E30053E2BF537E
:10147600D1FB75D18043D1012243E10443E102430C
:10148600E10143D81FD2EAD2AF227E007F008EEC64
:101496008FED7E0A7F008EEE8FEF7E147F008EE446
:1014A6008FE57EA07F008EE68FE775EB0C43EB4061
:1014B60043EB8075D21275D41275D61275EA407553
:0314C600DC022223
:1014CA00C021C0E0C0F0C082C083C007C006C0050A
:1014DA00C004C003C002C001C000C0D075D0001251
:1014EA001390D0D0D000D001D002D003D004D005C0
:1014FA00D006D007D083D082D0F0D0E0D02132C03D
:10150A0021C0E0C0F0C082C083C007C006C005C0C9
:10151A0004C003C002C001C000C0D075D00030981A
:10152A0005121FA8C298309905121FDEC299D0D0A1
:10153A00D000D001D002D003D004D005D006D00705
:10154A00D083D082D0F0D0E0D02132C021C0E0C018
:10155A00F0C082C083C007C006C005C004C003C073
:10156A0002C001C000C0D075D00030C005122022D0
:10157A00C2C030C105122058C2C1D0D0D000D0019B
:10158A00D002D003D004D005D006D007D083D082B1
:10159A00D0F0D0E0D02132C021C0E0C0F0C082C07B
:1015AA0083C007C006C005C004C003C002C001C092
:1015BA0000C0D075D00090026DE0FEA3E0FFC00726
:1015CA00C0068E828F83120069D006D007D0D0D091
:1015DA0000D001D002D003D004D005D006D007D065
:1015EA0083D082D0F0D0E0D02132C021C0E0C0F058
:1015FA00C082C083C007C006C005C004C003C002C1
:10160A00C001C000C0D075D00090026FE0FEA3E018
:10161A00FFC007C0068E828F83120069D006D007EA
:10162A00D0D0D000D001D002D003D004D005D0064B
:10163A00D007D083D082D0F0D0E0D02132C021C0F0
:10164A00E0C0F0C082C083C007C006C005C004C0A5
:10165A0003C002C001C000C0D075D00090026BE088
:10166A00FEA3E04E600E90026BE0F8A3E0F58388DB
:10167A0082120069D0D0D000D001D002D003D004A9
:10168A00D005D006D007D083D082D0F0D0E0D021C8
:10169A0032121DFB12010C12027480FB75820022A9
:1016AA00AE82AF8390010FE0FBA3E0FCA3E0FD7ADA
:1016BA0000900112E0F9890019E8603F8B828C835F
:1016CA008DF0121F8CF8A3AB82AC83C007C006C092
:1016DA0005C004C003C002C0011216E88007C00694
:1016EA00C007888222A882D001D002D003D004D0B9
:1016FA0005D006D007E860030A80BB8A8222AE8240
:10170A00AF83900113E0FBA3E0FCA3E0FD9001137B
:10171A00E0F5F0A3E045F07003F582227A008B82AF
:10172A008C838DF0121F8CF9A3AB82AC83E9F8602D
:10173A002CC007C006C005C004C003C00212174C63
:10174A008007C006C007888222A982D002D003D0AF
:10175A0004D005D006D007E960030A80C18A822234
:10176A00AE82AF83900116E0FAA3E0FBA3E0FCA3EC
:10177A00E0FD90011EEAF0EBA3F0ECA3F0EDA3F07C
:10178A00900122740AF08E828F830217FBAE82AF19
:10179A008390011AE0FAA3E0FBA3E0FCA3E0FD902A
:1017AA000144EAF0EBA3F0ECA3F0EDA3F0900148BA
:1017BA00740AF08E828F830218E0AE82AF83C0076C
:1017CA00C0061217D18008C006C00775820D22AD67
:1017DA0082D006D007C007C0051217E88008C006E5
:1017EA00C00775820A22AE82D005D007EE2DF58297
:1017FA0022858233858334900143E4F0900122E00C
:10180A00FDBD02005006900122740AF0900122E008
:10181A00F5357B437C0190011EE0F536A3E0F537F0
:10182A00A3E0F538A3E0F53985353A753B00753CF8
:10183A0000753D00853A16853B17853C18853D198C
:10184A008536828537838538F0E539C004C00312AE
:10185A001E34A882853A16853B17853C18853D19A2
:10186A008536828537838538F0E539C000121EB780
:10187A00AA82AD83AEF0FFD000D003D00490011E3F
:10188A00EAF0EDA3F0EEA3F0EFA3F01BBBFF011CFF
:10189A008B068C07B80A005008880574302DFD8025
:1018AA0004743728FD8E828F83EDF090011EE0F5D7
:1018BA00F0A3E042F0A3E042F0A3E045F0600302A7
:1018CA001820900113EBF0ECA3F0E4A3F085338227
:1018DA0085348302170885823E85833F900148E05C
:1018EA00FD7019900144E0F9A3E0FAA3E0FBA3E03C
:1018FA00FC0218FEC03EC03F89822222BD0A028035
:10190A00030219AB900144E0F9A3E0FAA3E0FBA3B8
:10191A00E0FC30E76FC004C003C002C00112192CFA
:10192A008008C03EC03F75822D22A882D001D00215
:10193A00D003D0048840900144C3E499F0E49AA308
:10194A00F0E49BA3F0E49CA3F0900144E0F541A3EA
:10195A00E0F542A3E0F543A3E0F54490011EE5411A
:10196A00F0E542A3F0E543A3F0E544A3F090012299
:10197A00740AF0853E82853F831217FBAF82E540E9
:10198A002FF5822290011EE9F0EAA3F0EBA3F0EC16
:10199A00A3F0900122740AF0853E82853F830217E4
:1019AA00FB900144E0FBA3E0FCA3E0FEA3E0FF9070
:1019BA00011EEBF0ECA3F0EEA3F0EFA3F0900122EE
:0B19CA00EDF0853E82853F830217FB95
:1019D60022AC82AD83AEF0FF90011AECF0EDA3F0DD
:1019E600EEA3F0EFA3F090099B021797AC82AD83AC
:1019F600AEF0FF900149E0FB900144ECF0EDA3F05E
:101A0600EEA3F0EFA3F0900148EBF090099B0218CB
:101A1600E0AC82AD83AEF0FF900116ECF0EDA3F0E2
:101A2600EEA3F0EFA3F090099B02176AAC82AD8398
:101A3600AEF0FF90014AE0FB900144ECF0EDA3F01C
:101A4600EEA3F0EFA3F0900148EBF090099B02188B
:101A5600E0AD82AE83AFF0900113EDF0EEA3F0EFB0
:101A6600A3F090099B021708AD82AE83AFF09001F8
:101A76004BE0FC90010FEDF0EEA3F0EFA3F0900128
:091A860012ECF090099B0216AA73
:101A9000E582FF90232293FEEF9022FA93FF7001DC
:101AA0002290014CE0FD701BBF0209EEF4FC529243
:101AB000EC529322BF0402800122EEF4FC5296EC19
:101AC000529722BD0214BF0207EE4292EE429322C9
:101AD000BF0439EE4296EE429722BD0116BF0208BE
:101AE000EEF45292EE429322BF0421EEF45296EEAF
:101AF000429722BD0316BF0208EE4292EEF45293C3
:101B000022BF0408EE4296EEF4FE529722AF82BF47
:101B10000102800FBF02028013BF03028017BF04BF
:101B200025801BE5C620E21E539DFB22E5C620E36F
:101B300015539DF722E5C630E20C539DFB22E5C606
:101B400030E303539DF722E582FF9022D293FEEF0C
:101B500090232293FDEF9022FA93FF7003F58222E7
:101B6000EE600D8E82C007C005121B0DD005D00798
:101B70007E00BF0202800ABF03028009BF040C80FE
:101B800008AE908006AEA08002AEB0ED5E60047537
:101B900082012275820022E582FF9022D293FEEF1D
:101BA00090232293FDEF9022FA93FFEE600D8E8238
:101BB000C007C005121B0DD005D007A2AFE433FE4D
:101BC000C2AFBF0202800ABF03028017BF04368083
:101BD0002490014DE07007EDF4FF52908027ED4214
:101BE00090802290014DE07007EDF4FF52A0801527
:101BF000ED42A0801090014DE07007EDF4FF52B06F
:0B1C00008003ED42B0EE6002D2AF2284
:101C0C00AE82AF838F05BD800040012275A1557552
:101C1C00A1AA43B10475A1007585C0ED2DF5848E84
:101C2C008EE58630E60375869A75A15575A1AA5383
:101C3C00B1FB75A10022AF827585C0EF2FF58475BD
:101C4C00868E858E8222C0D075D00808B8000D090A
:101C5C00B900090ABA00050BBB00010CD0D032A2A6
:101C6C00AFC2AFA808A909AA0AAB0BAC8A8588F049
:101C7C0092AF30F51274012C600D08B8000909B947
:101C8C0000050ABA00010BC3EC9406FCECC313FC70
:101C9C0075F07DE8A4F8ADF075F07DE9A42DF9E4BC
:101CAC0035F0FD75F07DEAA42DFAE435F0FD75F004
:101CBC007DEBA42DFB7D00EC28F582E93DF583EA54
:101CCC003DF5F0EB3D22A2AFC2AFA808A909AA0AC4
:101CDC00AB0BAC0C92AF75F020E8A4A8F075F0201B
:101CEC00E9A428F582A8F075F020EAA428F583A8C9
:101CFC00F075F020EBA428F9A8F075F020ECA428DE
:101D0C0089F02285824585834685F047F548121C6B
:101D1C006B85824985834A85F04BF54CE5454546F4
:101D2C0045474548700122A845A946AA47AB4885B6
:101D3C00494D854A4E854B4F854C50E8494A4B607E
:101D4C00DBC003C002C001C000121C6BAC82AD83AF
:101D5C00AEF0FFD000D001D002D003ECC3954DFC07
:101D6C00ED954EFDEE954FFEEF9550FFC3EC94E8CC
:101D7C00ED9403EE9400EF940040A118B8FF0919FC
:101D8C00B9FF051ABAFF011B884589468A478B485B
:101D9C0074E8254DF54D7403354EF54EE4354FF58D
:101DAC004FE43550F550854D49854E4A854F4B854E
:101DBC00504C8087AE82AF83C374019EE49F400277
:101DCC002200C374029EFE74009FFF00BE0005BF7C
:101DDC0000020022000000000000000000000000D3
:101DEC0000000000000EBE00EB0FBF00ED002275DE
:101DFC00A15575A1AA74F855B94406F5B975A10099
:101E0C00901388121DC0759E5D759D0074F05589E8
:101E1C004402F58953C9EF758C06C28DD2A9D28CB8
:031E2C00D2AF2210
:011E3000327F
:011E3200327D
:101E3400F9E51645174518451960777800C308E594
:101E44001920E73BE51625E0F516E51733F517E508
:101E54001833F518E51933F519E5829516E58395D8
:101E640017E5F09518E9951950D4C3E51913F51938
:101E7400E51813F518E51713F517E51613F516E528
:101E8400829516FCE5839517FDE5F09518FEE99516
:101E9400194007F98EF08D838C82C3E51913F51967
:101EA400E51813F518E51713F517E51613F516D805
:101EB400CEE922FB7A20E4FCFDFEFFE5822582F5D3
:101EC40082E58333F583E5F033F5F0EB33FB40171C
:101ED400DAE98042E5822582F582E58333F583E5FC
:101EE400F033F5F0EB33FBEC33FCED33FDEE33FE76
:101EF400EF33FFEC9516ED9517EE9518EF95194015
:101F040013EC9516FCED9517FDEE9518FEEF95195B
:081F1400FF438201DABEEB225B
:101F1C0022AF82BF02005036EF75F002A4246DF59B
:101F2C0082740235F0F583E516F0E517A3F0BF00D7
:101F3C00028005BF0118800B90014EE024FF9288AF
:101F4C00D2A82290014EE0FF24FF928AD2AA22AF9F
:101F5C0082BF02005028BF00028005BF0108800428
:101F6C00C2A88002C2AAEF75F002A4246DFE74020E
:0F1F7C0035F0FF8E828F83741CF0741FA3F02248
:101F8C0020F71430F6148883A88220F507E6A8837E
:0C1F9C0075830022E280F7E49322E0222B
:101FA800900271E0FF7E008F828E83A37516108EDB
:101FB800171220E9AE82900272E0FFEEB507012207
:101FC800900271E0244FF582E43401F583E599F03D
:101FD800900271EEF022300440900273E0FF90020C
:101FE80074E0FEEFB50605A204C20422900274E074
:101FF800245FF582E43401F583E0F599900274E0FA
:10200800FF7E008F828E83A37516108E171220E92B
:0A201800AE82AF83900274EEF02256
:10202200900275E0FF7E008F828E83A37516108E5C
:10203200171220E9AE82900276E0FFEEB507012288
:10204200900275E0246FF582E43401F583E5C1F076
:10205200900275EEF022300540900277E0FF900288
:1020620078E0FEEFB50605A205C20522900278E0EF
:10207200247FF582E43401F583E0F5C1900278E033
:10208200FF7E008F828E83A37516108E171220E9B1
:0A209200AE82AF83900278EEF022D8
:10209C00E516451760467A01E51625E0F516E517B5
:1020AC00334012F517E5829516E583951740030A20
:1020BC0080E6C3E51713F517E51613F516C3E5828D
:1020CC009516F5F0E58395174005F58385F082C3E9
:1020DC00E51713F517E51613F516DAE122C2D5E567
:1020EC008330E70DD2D5E4C39582F582E49583F570
:1020FC0083E51730E70BE4C39516F516E49517F551
:10210C001712209C30D50BE4C39582F582E495839D
:03211C00F5832226
:02211F0031008D
:1021210000000000000000002A2B28000000000031
:10213100000000000000000000000000000000009E
:102141002C9EB4A0A1A2A434A6A7A5AE362D3738E3
:10215100271E1F20212223242526B333B62EB7B8EC
:102161009F8485868788898A8B8C8D8E8F909192AA
:10217100939495969798999A9B9C9D2F3130A3ADF6
:10218100350405060708090A0B0C0D0E0F10111274
:10219100131415161718191A1B1C1DAFB1B0B50071
:1021A10012011001EF020108091250C501010102DB
:1021B10003011200090264000301008064080B009E
:1021C10002020201040904000001020201040524C3
:1021D1000010010524010000042402020524060068
:1021E100010705810308004009040100020A0000FB
:1021F10004070502024000000705820240000009B1
:102201000402000103010100092110012101225FE3
:10221100000705830309000A5F0005010906A10102
:102221008501050719E029E71500250195087501C4
:10223100810295017508810395067508150026FF31
:10224100000507190029E78100050819012905156D
:10225100002501950575019102950175039103C052
:10226100050C0901A1018502150026FF0319002AA9
:10227100FF03950475108100C06400040309040480
:10228100000C03430048003500350078000C0016AF
:10229100032D005900750061006E002D0033006BA5
:1022A1000065007900160017035900750061006E82
:1022B100002D00530065007200690061006C001878
:1022C100000E032D005900750061006E002D000EF7
:0122D100000C
:1022D20000000000000000000000000000000001FB
:1022E20000000000000000000000000000000304E5
:1022F20000000200000000000101010101010101D2
:1023020000000202020202020202000003030303AF
:10231200030303030000040404040404040400008F
:10232200010204081020408000000102040810206D
:1023320040800000010204081020408000000102D9
:102342000408102040800000FFFFFFFFFFFFFFFF97
:10235200FFFFFF00FFFF0102FFFFFFFFFFFFFFFF85
:10236200FFFFFFFFFFFFFFFF03FFFFFFFFFFFFFF77
:10237200FFFFFFFFFFFFFFFFFFFFFFFFFFFFFFFF6B
:10238200FFFFFFFFFFFFFFFFFFFFFFFFFFFFFFFF5B
:10239200FFFFFFFFFFFFFFFFFFFFFFFFFFFFFFFF4B
:1023A200FFFFFFFFFFFFFFFFFFFFFFFFFFFFFFFF3B
:1023B200FFFFFFFFFFFFFFFFFFFFFFFFFFFFFFFF2B
:1023C200FFFFFFFFFFFFFFFFFFFFFFFFFFFFFFFF1B
:1023D200FFFFFFFFFFFFFFFFFFFFFFFFFFFFFFFF0B
:1023E200FFFFFFFFFFFFFFFFFFFFFFFFFFFFFFFFFB
:1023F200FFFFFFFFFFFFFFFFFFFFFFFFFFFFFFFFEB
:10240200FFFFFFFFFFFFFFFFFFFFFFFFFFFFFFFFDA
:10241200FFFFFFFFFFFFFFFFFFFFFFFFFFFFFFFFCA
:0F242200FFFFFFFFFFFFFFFFFFFFFFFFFFFFFFBA
:0B24310000E1000000000800000000B7
:10243C000000000000000000000000000000000090
:01244C00008F
:01244D00008E
:02244E0000008C
:042450001C1F1C1F12
:042454000000000084
:042458000000000080
:00000001FF
