:0600000002006B02112159
:03000B000217D207
:0300130002117463
:01001B0032B2
:030023000210893F
:03002B000219B205
:01003300329A
:03003B000211C7E8
:0300430002104A5E
:01004B003282
:030053000210D5C3
:01005B003272
:030063000219B0CF
:0300660002121B68
:02006900E4733E
:0D006B00758154121226E5826003020066C2
:10007800792BE94400601B7A01901EF2788F75A0F5
:1000880001E493F2A308B8000205A0D9F4DAF275E6
:02009800A0FFC7
:06009A00E478FFF6D8FD3A
:1000A0007800E84400600A790A75A001E4F309D8F1
:1000B000FC7885E84400600C790190010AE4F0A323
:0400C000D8FCD9FA95
:1000C40075221B752312752400752500752600758D
:1000D4002780752863752976752A00752B00752C81
:1000E40000752DFF752EFF752FFF7530FF7531FFDD
:0E00F4007532FF7533FF7534FFE4F535F536D0
:02010200C20039
:0E0104007808E4F608F608F608F6780C76009F
:02011200C20425
:02011400C20522
:030116000200667E
:10011A001206BB90014C7402F075820F12161090F1
:10012A00014C7402F075821012161090014C740280
:10013A00F075820E1216107582001217C2AF827500
:10014A008201C0071217C2AE82758202C006121758
:10015A00C2AD82758203C0051217C2AC82758204D1
:10016A00C0041217C2AB82758205C0031217C2AA55
:10017A0082D003D004D005D006D007BFFF02800288
:10018A008F27BEFF0280028E28BDFF0280028D29C2
:10019A00BCFF028007EC24FFE433F52ABBFF028090
:1001AA0007EB24FFE433F52BBAFF0122EA24FFE42C
:1001BA0033F52C2212065CE582603F120663AF8299
:1001CA00BF0A0280EFBF0D0280EAC3740795357437
:1001DA00808536F063F08095F05005E4F535F53604
:1001EA00E53545367003BF03CBE535242DF8A60760
:1001FA000535E4B535BE053680BA7408B53506E46A
:10020A00B536028003020361E4F535F5367403B5A9
:10021A002D0474018001E4FF60767440B534719056
:10022A000113749FF0741CA3F07480A3F090051B53
:10023A00121288120503852E8275830012178C8587
:10024A002F8275830112178C8530827583021217EB
:10025A008C85318275830312178C853282758304EB
:10026A0012178C85338275830512178C852E278584
:10027A002F28853029E53124FFE433F52AE5322495
:10028A00FFE433F52BE53324FFE433F52C02036155
:10029A00EF70030203617423B53402800302036121
:1002AA00AC277D007E007F009001497410F08C829B
:1002BA008D838EF0EF12157290051B121344AC2831
:1002CA007D007E007F009001497410F08C828D833E
:1002DA008EF0EF12157290051B121344AC297D00A3
:1002EA007E007F009001497410F08C828D838EF01D
:1002FA00EF12157290051B121344AF2A7E007D007F
:10030A007C0090014A7410F08F828E838DF0EC127B
:10031A0015B290051B121344AF2B7E007D007C00A2
:10032A0090014A7410F08F828E838DF0EC1215B210
:10033A0090051B121344AF2C7E007D007C009001B7
:10034A004A7410F08F828E838DF0EC1215B29005EC
:10035A001B12134412050375820F1216C7E582B4E5
:10036A000100E433FFB524028035EFF5246019E576
:10037A002A600DAE277F008E828F83120910801F9C
:10038A008527821207BF8017E52A600DAE277F00F6
:10039A008E828F8312099A800685278212087D75BC
:1003AA0082101216C7E582B40100E433FFB52502B4
:1003BA008035EFF5256019E52B600DAE287F008E9C
:1003CA00828F83120910801F8528821207BF801727
:1003DA00E52B600DAE287F008E828F8312099A80EA
:1003EA000685288212087D75820E1216C7E582B428
:1003FA000100E433FFB526028035EFF5266019E5E2
:10040A002C600DAE297F008E828F83120910801F07
:10041A008529821207BF8017E52C600DAE297F005F
:10042A008E828F8312099A800685298212087D900E
:08043A000032E4F5F002188F16
:10044200900196E4F0C200227F00C3E5DB9407929C
:100452000140067D077E008004ADDB7E008F037CB9
:1004620000C3EB9DEC64808EF063F08095F0501732
:10047200EF248FFDE43401FE8F82758300E0FC8D52
:10048200828E83F00F80C3227F008F057E00C3ED32
:100492009407EE940050188F057E00EF248FF582AA
:1004A200E43401F583E0FC8D828E83F00F80DB90D3
:1004B200000722900002E0FF900198F0E020E03077
:1004C20090018FE0FCA3E0FDA3E0FEA3E0FFBCB03F
:1004D2001FBD041CBE0019BF001675E200C2AF901A
:1004E200C35012194090C35012194012380080FEB6
:1004F20022751600900198E0600375160185168238
:1005020022200014900199E0FFE0600C8FD553D4B3
:10051200FCD200900199E4F022AF82900198E06051
:100522005E7D007E003000240DBD00010E900005AE
:10053200C007C006C005121940D005D006D007C3B7
:10054200ED9450EE94C340DD75820022900199E053
:10055200FEBE400050207D0074402EFEE43DFDEEC4
:100562002414F582ED3400F583EFF0900199E02434
:1005720001F075820122C007120503D00780A2751F
:10058200820022AFF0AE83E58290010CF0EEA3F080
:10059200EFA3F0900198E0700302065890010AE080
:1005A200FEA3E0FFC3E49E74808FF063F08095F0B9
:1005B20040030206587E007F003000200EBE00017C
:1005C2000F900005C007C006121940D006D007C31D
:1005D200EE9450EF94C340E17582002290010CE04A
:1005E200FDA3E0FEA3E0FF90010AE0FBA3E0FCC351
:1005F200E49B74808CF063F08095F0509F90019999
:10060200E0FABA400050498A017A00744029F9E4BC
:100612003AFAE92414F9EA3400FA8D828E838FF0D3
:10062200121B0CF8A3AD82AE8390010CEDF0EEA389
:10063200F0EFA3F089828A83E8F0900199E0240127
:10064200F01BBBFF011C90010AEBF0ECA3F0809FB2
:1006520012050302059E75820022900196E0F58242
:1006620022900196E07003F58222900197E0241413
:10067200F582E43400F583E0FF900197E004F09006
:100682000196E014F0E0700353D4F38F822275D503
:100692000074FC55D44402F5D4C2002230DE199015
:1006A2000196E5DBF0900197E4F0900196E0600896
:1006B20074F355D44408F5D422120FE61210101226
:0F06C2000FFF75DD0075D30075D50075D70022C9
:1006D20075D70074FC55D64402F5D690019AE4F021
:1006E200227E007F0090019AE060200EBE00010F82
:1006F200900005C007C006121940D006D007C3EE0D
:100702009450EF94C340DE758200229000E07401A1
:10071200F07F00BF080050278F057E0074412DFD39
:10072200E43EFEED24A0FDEE3400FEEF249BF582B4
:10073200E43401F583E0FC8D828E83F00F80D47562
:10074200D70990019A7401F053D6FC758201227E7A
:10075200007F0090019AE060200EBE00010F900021
:1007620005C007C006121940D006D007C3EE945048
:10077200EF94C340DE758200229000E07402F07FA5
:1007820000BF080050278F057E0074412DFDE43E16
:10079200FEED24A0FDEE3400FEEF24A3F582E43446
:1007A20001F583E0FC8D828E83F00F80D475D7092A
:1007B20090019A7401F053D6FC75820122AF82BF78
:1007C200880040088F06EE2478FE8042BF800040F9
:1007D2002390019BE0FD8F04EC2480F5F005F0747A
:1007E20001800225E0D5F0FBFC420590019BEDF073
:1007F2007E00801AEF901CA193FE7003F58222EE18
:1008020030E70B90019BE04402FFF053067F90011A
:100812009DE0FFB50602805C90019EE0FFB50602F6
:10082200805290019FE0FFB5060280489001A0E04F
:10083200FFB50602803E9001A1E0FFB506028034BA
:100842009001A2E0FFB50602802A7F027D02ED241C
:100852009BFBE43401FC8B828C83E070088B828CDE
:1008620083EEF080080D8D07BD080040E1BF08044B
:10087200758200221206E375820122AF82BF8800D0
:1008820040088F06EE2478FE8043BF80004024900B
:10089200019BE0FD8F04EC2480F5F005F0740180EB
:1008A2000225E0D5F0FBF4FC520590019BEDF07EB1
:1008B20000801AEF901CA193FE7003F58222EE30A5
:1008C200E70B90019BE054FDFFF053067F7F02EEA1
:1008D2006016EF249BFCE43401FD8C828D83E0B52D
:1008E20006068C828D83E4F00FBF080040E11206F9
:1008F200E3758201227F00BF0800500FEF249BF5B1
:1009020082E43401F583E4F00F80EC0206E3AE8268
:10091200AF839001A3E0FCA3E0FDECB50606EDB5C4
:100922000702806D9001A5E0FCA3E0FDECB5060690
:10093200EDB50702805B9001A7E0FCA3E0FDECB5FA
:100942000606EDB5070280499001A9E0FCA3E0FD8F
:10095200ECB50606EDB5070280377D007C00EC752C
:10096200F002A424A3FA740135F0FB8A828B83E09F
:10097200F8A3E0F948700B8A828B83EEF0EFA3F0C4
:1009820080080C8C05BC040040D4BD0404758200B0
:100992002212075175820122AE82AF837D00EE4F93
:1009A2006026ED75F002A424A3FB740135F0FC8BE4
:1009B200828C83E0F9A3E0FAE9B5060CEAB50708F0
:1009C2008B828C83E4F0A3F00DBD040040D01207AB
:1009D2005175820122AF82C0071207BFAE82D007D3
:1009E2008F82C00612087DD0068E82229000A0E07F
:0309F200F5822269
:1009F600AFDBBF08028003020E44900007E0FE7FD3
:100A060000900006E0FD7C004FF510EC4EF5117FDE
:100A160000900001E0F512900000E0FE5460605383
:100A2600900000E0FE5306607D00BE2005BD00027A
:100A3600800BBE4039BD00367FFF020E467420B5DE
:100A46001203020E467421B5120280077422B512F3
:100A560018800C12048AAD82AE838D07020E46C042
:100A6600071204B5D007020E467FFF020E467FFF2F
:100A7600020E46E51224F45003020E40E512240B42
:100A860083F582E512241083F583E4732250401027
:100A9600401FAA402C4746460E0C0E0D0E0C0A0EA1
:100AA6000C0C0E0E900003E0FEBE01028013BE0287
:100AB600028023BE03028033BE2203020B91020B87
:100AC600AF75142175151D901D33E493FD740193C4
:100AD600FE8D07020BB175143575151D901DFAE4D0
:100AE60093FD740193FE8D07020BB1900002E07036
:100AF600157514FC75151D901E00E493FD74019385
:100B0600FE8D07020BB1900002E0FEBE01157514C2
:100B16004275151E901E50E493FD740193FE8D07D9
:100B2600020BB1900002E0FEBE021475141075159A
:100B36001E901E26E493FD740193FE8D07806C9033
:100B46000002E0FEBE031475140275151E901E0EFB
:100B5600E493FD740193FE8D078050900002E0FE41
:100B6600BE041475142875151E901E40E493FD747A
:100B76000193FE8D07803475140275151E901E0EA6
:100B8600E493FD740193FE8D078020900002E070CF
:100B96001475149B75151D901D99E493FD740193AE
:100BA600FE8D0780067FFF80027FFFBFFF03020ED8
:100BB600468F057E00C3ED9510EE951150048D10FD
:100BC6008E11AD10AE11C3ED9408EE940092024062
:100BD600067B087C008004AB10AC118B077C00C33D
:100BE600EC9F50198C027B00EC2514F582E4351538
:100BF600F583E493F98A828B83F00C80E28F037C81
:100C060000EDC39BFDEE9CFE8D108E11EF2514F5B5
:100C160014E43515F515020E46900002E0FE8E101E
:100C2600751100020E46900000E513F0AD10AE11EE
:100C3600C3ED9401EE94005003020E467F01020EAE
:100C460046900002E0F513020E46900000E0541FA5
:100C5600702F900003E0FD7E00900002E0FC7B0018
:100C66004206EB4205BE0114BD0011901D3CE49303
:100C7600FE30E503020E467FFF020E467FFF020EA0
:100C860046900000E0FE53061F7D00BE0277BD00C1
:100C960074900004E0FEBE0102805FBE020280493D
:100CA600BE03028033BE0402801DBE81028040BEA8
:100CB6008202802ABE83028014BE844474BC55DE40
:100CC6004402F5DE020E4653DE73020E4674BC5530
:100CD600D64402F5D6020E4653D673020E4674BCAF
:100CE60055D44402F5D4020E4653D473020E46740C
:100CF600BC55D24402F5D2020E4653D273020E46BA
:100D06007FFF020E467FFF020E46900000E0541F52
:100D1600702F900003E0FD7E00900002E0FC7B0057
:100D26004206EB4205BE0114BD0011901D3CE49342
:100D3600FE30E503020E467FFF020E467FFF020EDF
:100D460046900000E0FE53061F7D00BE0205BD0072
:100D5600028003020E1E900003E0FD7E009000025A
:100D6600E0FC7B004206EB4205EE4D6003020E1AE4
:100D7600900005E0FD7E00900004E0FC7B0042064A
:100D8600EB4205BE0106BD0003020E0EBE0205BD06
:100D960000028060BE0305BD00028044BE0405BD9E
:100DA60000028028BE8105BD00028052BE8205BDBC
:100DB60000028036BE8305BD0002801ABE8451BD86
:100DC600004E74BF55DE4403F5DE8074747F55DE35
:100DD600440CF5DE806A74BF55D64403F5D68060B0
:100DE600747F55D6440CF5D6805674BF55D444034B
:100DF600F5D4804C747F55D4440CF5D4804274BF2E
:100E060055D24403F5D28038747F55D2440CF5D2BE
:100E16007FFF802C7FFF80287FFF8024900000E4E6
:100E2600F0900001F0AD10AE11C3ED9402EE940007
:100E360040047F02800AAF1080067FFF80027FFF9A
:100E4600BFFF077512FF75DCCF22EF24F740068F30
:100E5600DD75DCC02275DD0075DCC0227405B512B7
:100E660002805D7406B51266AE10AF11C3EE94082B
:100E7600EF9400920340067C087D008004AC10AD20
:100E8600117D00C3ED9C50198D027B00ED2514F5F4
:100E960082E43515F583E493F98A828B83F00D801D
:100EA600E28C037D00EEC39BFEEF9DFF8E108F113B
:100EB600EC2514F514E43515F5158CDD63DC4022BC
:100EC600E5E35480FFE5104FF5E375DC022275DD9E
:100ED6000075DC02227420B5120D30DE1012044AB1
:100EE60075DD0085DCDC2275DD0043DC022275D36E
:100EF6000074FC55D24402F5D2229001AB7401F085
:100F060075D30853D2FC7582012220D903020FC182
:100F1600E5D9540FFFADD95305307E00BD0005BE9F
:100F26000002801CBD1005BE00028037BD2005BE34
:100F360000028044BD3006BE0003020FA7020FBFA9
:100F4600EF24FB5003020FBFEF2F900F547380085E
:100F56008067800A80638061120EDB020FBF120673
:100F66009E8056EF24FB4051EF2F900F74738049FB
:100F76008047804580438041EF24FB403CEF2F9023
:100F86000F89738008800B800E8011802C120E62F0
:100F96008027120EF48022120690801D1206D2803F
:100FA60018EF24FB4013EF2F900FB27380088009CF
:100FB6008007800580031209F6C2D930D81575DC82
:100FC6000275D21275D41275E300C2DAC2D9C2D83C
:100FD60012044210DA0122E5DA20E20375D8FF2274
:100FE60075E20053E27F43E22975E30053E2BF5303
:100FF600D1FB75D18043D1012243E10443E1024391
:10100600E10143D81FD2EAD2AF227E007F008EECE8
:101016008FED7E0A7F008EEE8FEF7E147F008EE4CA
:101026008FE57EA07F008EE68FE775EB0C43EB40E5
:1010360043EB8075D21275D41275D61275EA4075D7
:03104600DC0222A7
:10104A00C021C0E0C0F0C082C083C007C006C0058E
:10105A00C004C003C002C001C000C0D075D00012D5
:10106A000F10D0D0D000D001D002D003D004D005C8
:10107A00D006D007D083D082D0F0D0E0D02132C0C1
:10108A0021C0E0C0F0C082C083C007C006C005C04E
:10109A0004C003C002C001C000C0D075D00030989F
:1010AA0005121B28C298309905121B5EC299D0D02E
:1010BA00D000D001D002D003D004D005D006D0078A
:1010CA00D083D082D0F0D0E0D02132C021C0E0C09D
:1010DA00F0C082C083C007C006C005C004C003C0F8
:1010EA0002C001C000C0D075D00030C005121BA2DA
:1010FA00C2C030C105121BD8C2C1D0D0D000D001A5
:10110A00D002D003D004D005D006D007D083D08235
:10111A00D0F0D0E0D02132C021C0E0C0F0C082C0FF
:10112A0083C007C006C005C004C003C002C001C016
:10113A0000C0D075D0009001AEE0FEA3E0FFC0076A
:10114A00C0068E828F83120069D006D007D0D0D015
:10115A0000D001D002D003D004D005D006D007D0E9
:10116A0083D082D0F0D0E0D02132C021C0E0C0F0DC
:10117A00C082C083C007C006C005C004C003C00245
:10118A00C001C000C0D075D0009001B0E0FEA3E05D
:10119A00FFC007C0068E828F83120069D006D0076F
:1011AA00D0D0D000D001D002D003D004D005D006D0
:1011BA00D007D083D082D0F0D0E0D02132C021C075
:1011CA00E0C0F0C082C083C007C006C005C004C02A
:1011DA0003C002C001C000C0D075D0009001ACE0CD
:1011EA00FEA3E04E600E9001ACE0F8A3E0F5838820
:1011FA0082120069D0D0D000D001D002D003D0042E
:10120A00D005D006D007D083D082D0F0D0E0D0214C
:10121A003212197B12011A1201BE80FB758200225A
:10122A00AE82AF8390010FE0FBA3E0FCA3E0FD7A5E
:10123A0000900112E0F9890019E8603F8B828C83E3
:10124A008DF0121B0CF8A3AB82AC83C007C006C09A
:10125A0005C004C003C002C0011212688007C0069C
:10126A00C007888222A882D001D002D003D004D03D
:10127A0005D006D007E860030A80BB8A8222AE82C4
:10128A00AF83900113E0FBA3E0FCA3E0FD90011300
:10129A00E0F5F0A3E045F07003F582227A008B8234
:1012AA008C838DF0121B0CF9A3AB82AC83E9F86036
:1012BA002CC007C006C005C004C003C0021212CC6D
:1012CA008007C006C007888222A982D002D003D034
:1012DA0004D005D006D007E960030A80C18A8222B9
:1012EA00AE82AF83900116E0FAA3E0FBA3E0FCA371
:1012FA00E0FD90011EEAF0EBA3F0ECA3F0EDA3F001
:10130A00900122740AF08E828F8302137BAE82AF21
:10131A008390011AE0FAA3E0FBA3E0FCA3E0FD90AE
:10132A000144EAF0EBA3F0ECA3F0EDA3F09001483E
:10133A00740AF08E828F83021460AE82AF83C00774
:10134A00C0061213518008C006C00775820D22AD6F
:10135A0082D006D007C007C0051213688008C006ED
:10136A00C00775820A22AE82D005D007EE2DF5821B
:10137A0022858237858338900143E4F0900122E088
:10138A00FDBD02005006900122740AF0900122E08D
:10139A00F5397B437C0190011EE0F53AA3E0F53B69
:1013AA00A3E0F53CA3E0F53D85393E753F00754065
:1013BA0000754100853E16853F17854018854119FD
:1013CA00853A82853B83853CF0E53DC004C0031223
:1013DA0019B4A882853E16853F178540188541199C
:1013EA00853A82853B83853CF0E53DC000121A3779
:1013FA00AA82AD83AEF0FFD000D003D00490011EC4
:10140A00EAF0EDA3F0EEA3F0EFA3F01BBBFF011C83
:10141A008B068C07B80A005008880574302DFD80A9
:10142A0004743728FD8E828F83EDF090011EE0F55B
:10143A00F0A3E042F0A3E042F0A3E045F06003022B
:10144A0013A0900113EBF0ECA3F0E4A3F08537822C
:10145A00853883021288858242858343900148E059
:10146A00FD7019900144E0F9A3E0FAA3E0FBA3E0C0
:10147A00FC02147EC042C04389822222BD0A028035
:10148A000302152B900144E0F9A3E0FAA3E0FBA3C1
:10149A00E0FC30E76FC004C003C002C0011214AC04
:1014AA008008C042C04375822D22A882D001D00292
:1014BA00D003D0048844900144C3E499F0E49AA389
:1014CA00F0E49BA3F0E49CA3F0900144E0F545A36B
:1014DA00E0F546A3E0F547A3E0F54890011EE5458F
:1014EA00F0E546A3F0E547A3F0E548A3F090012212
:1014FA00740AF085428285438312137BAF82E544E6
:10150A002FF5822290011EE9F0EAA3F0EBA3F0EC9A
:10151A00A3F0900122740AF0854282854383021364
:10152A007B900144E0FBA3E0FCA3E0FEA3E0FF9074
:10153A00011EEBF0ECA3F0EEA3F0EFA3F090012272
:0B154A00EDF085428285438302137B95
:1015560022AC82AD83AEF0FF90011AECF0EDA3F061
:10156600EEA3F0EFA3F090051B021317AC82AD8338
:10157600AEF0FF900149E0FB900144ECF0EDA3F0E2
:10158600EEA3F0EFA3F0900148EBF090051B0214D8
:1015960060AC82AD83AEF0FF900116ECF0EDA3F0E7
:1015A600EEA3F0EFA3F090051B0212EAAC82AD8326
:1015B600AEF0FF90014AE0FB900144ECF0EDA3F0A1
:1015C600EEA3F0EFA3F0900148EBF090051B021498
:1015D60060AD82AE83AFF0900113EDF0EEA3F0EFB5
:1015E600A3F090051B021288AD82AE83AFF0900186
:1015F6004BE0FC90010FEDF0EEA3F0EFA3F09001AD
:0916060012ECF090051B02122AFF
:10161000E582FF901EA293FEEF901E7A93FF700169
:101620002290014CE0FD701BBF0209EEF4FC5292C7
:10163000EC529322BF0402800122EEF4FC5296EC9D
:10164000529722BD0214BF0207EE4292EE4293224D
:10165000BF0439EE4296EE429722BD0116BF020842
:10166000EEF45292EE429322BF0421EEF45296EE33
:10167000429722BD0316BF0208EE4292EEF4529347
:1016800022BF0408EE4296EEF4FE529722AF82BFCC
:101690000102800FBF02028013BF03028017BF0444
:1016A00025801BE5C620E21E539DFB22E5C620E3F4
:1016B00015539DF722E5C630E20C539DFB22E5C68B
:1016C00030E303539DF722E582FF901E5293FEEF15
:1016D000901EA293FDEF901E7A93FF7003F5822275
:1016E000EE600D8E82C007C00512168DD005D007A2
:1016F0007E00BF0202800ABF03028009BF040C8083
:1017000008AE908006AEA08002AEB0ED5E600475BB
:1017100082012275820022E582FF901E5293FEEF25
:10172000901EA293FDEF901E7A93FFEE600D8E82C5
:10173000C007C00512168DD005D007A2AFE433FE56
:10174000C2AFBF0202800ABF03028017BF04368007
:101750002490014DE07007EDF4FF52908027ED4298
:1017600090802290014DE07007EDF4FF52A08015AB
:10177000ED42A0801090014DE07007EDF4FF52B0F3
:0B1780008003ED42B0EE6002D2AF2209
:10178C00AE82AF838F05BD800040012275A15575D7
:10179C00A1AA43B10475A1007585C0ED2DF5848E09
:1017AC008EE58630E60375869A75A15575A1AA5308
:1017BC00B1FB75A10022AF827585C0EF2FF5847542
:1017CC00868E858E8222C0D075D00808B8000D098F
:1017DC00B900090ABA00050BBB00010CD0D032A22B
:1017EC00AFC2AFA808A909AA0AAB0BAC8A8588F0CE
:1017FC0092AF30F51274012C600D08B8000909B9CC
:10180C0000050ABA00010BC3EC9406FCECC313FCF4
:10181C0075F07DE8A4F8ADF075F07DE9A42DF9E440
:10182C0035F0FD75F07DEAA42DFAE435F0FD75F088
:10183C007DEBA42DFB7D00EC28F582E93DF583EAD8
:10184C003DF5F0EB3D22A2AFC2AFA808A909AA0A48
:10185C00AB0BAC0C92AF75F020E8A4A8F075F0209F
:10186C00E9A428F582A8F075F020EAA428F583A84D
:10187C00F075F020EBA428F9A8F075F020ECA42862
:10188C0089F02285824985834A85F04BF54C1217E5
:10189C00EB85824D85834E85F04FF550E549454AE1
:1018AC00454B454C700122A849A94AAA4BAB4C8523
:1018BC004D51854E52854F53855054E8494A4B60E3
:1018CC00DBC003C002C001C0001217EBAC82AD83B9
:1018DC00AEF0FFD000D001D002D003ECC39551FC88
:1018EC00ED9552FDEE9553FEEF9554FFC3EC94E845
:1018FC00ED9403EE9400EF940040A118B8FF091981
:10190C00B9FF051ABAFF011B8849894A8A4B8B4CCF
:10191C0074E82551F55174033552F552E43553F5FD
:10192C0053E43554F55485514D85524E85534F85AE
:10193C0054508087AE82AF83C374019EE49F4002F3
:10194C002200C374029EFE74009FFF00BE0005BF00
:10195C000002002200000000000000000000000057
:10196C0000000000000EBE00EB0FBF00ED00227562
:10197C00A15575A1AA74F855B94406F5B975A1001D
:10198C00901388121940759E5D759D0074F05589F1
:10199C004402F58953C9EF758C06C28DD2A9D28C3D
:0319AC00D2AF2295
:0119B0003204
:0119B2003202
:1019B400F9E51645174518451960777800C308E519
:1019C4001920E73BE51625E0F516E51733F517E58D
:1019D4001833F518E51933F519E5829516E583955D
:1019E40017E5F09518E9951950D4C3E51913F519BD
:1019F400E51813F518E51713F517E51613F516E5AD
:101A0400829516FCE5839517FDE5F09518FEE9959A
:101A1400194007F98EF08D838C82C3E51913F519EB
:101A2400E51813F518E51713F517E51613F516D889
:101A3400CEE922FB7A20E4FCFDFEFFE5822582F557
:101A440082E58333F583E5F033F5F0EB33FB4017A0
:101A5400DAE98042E5822582F582E58333F583E580
:101A6400F033F5F0EB33FBEC33FCED33FDEE33FEFA
:101A7400EF33FFEC9516ED9517EE9518EF95194099
:101A840013EC9516FCED9517FDEE9518FEEF9519E0
:081A9400FF438201DABEEB22E0
:101A9C0022AF82BF02005036EF75F002A424AEF5DF
:101AAC0082740135F0F583E516F0E517A3F0BF005D
:101ABC00028005BF0118800B90014EE024FF928834
:101ACC00D2A82290014EE0FF24FF928AD2AA22AF24
:101ADC0082BF02005028BF00028005BF01088004AD
:101AEC00C2A88002C2AAEF75F002A424AEFE740153
:0F1AFC0035F0FF8E828F83749CF0741AA3F02252
:101B0C0020F71430F6148883A88220F507E6A88302
:0C1B1C0075830022E280F7E49322E022AF
:101B28009001B2E0FF7E008F828E83A37516108E1F
:101B380017121C69AE829001B3E0FFEEB5070122CF
:101B48009001B2E0244FF582E43401F583E599F081
:101B58009001B2EEF0223004409001B4E0FF900111
:101B6800B5E0FEEFB50605A204C204229001B5E077
:101B7800245FF582E43401F583E0F5999001B5E03E
:101B8800FF7E008F828E83A37516108E17121C6934
:0A1B9800AE82AF839001B5EEF0229B
:101BA2009001B6E0FF7E008F828E83A37516108EA1
:101BB20017121C69AE829001B7E0FFEEB507012251
:101BC2009001B6E0246FF582E43401F583E5C1F0BB
:101BD2009001B6EEF0223005409001B8E0FF90018E
:101BE200B9E0FEEFB50605A205C205229001B9E0F3
:101BF200247FF582E43401F583E0F5C19001B9E078
:101C0200FF7E008F828E83A37516108E17121C69B9
:0A1C1200AE82AF839001B9EEF0221C
:101C1C00E516451760467A01E51625E0F516E51739
:101C2C00334012F517E5829516E583951740030AA4
:101C3C0080E6C3E51713F517E51613F516C3E58211
:101C4C009516F5F0E58395174005F58385F082C36D
:101C5C00E51713F517E51613F516DAE122C2D5E5EB
:101C6C008330E70DD2D5E4C39582F582E49583F5F4
:101C7C0083E51730E70BE4C39516F516E49517F5D5
:101C8C0017121C1C30D50BE4C39582F582E49583A6
:031C9C00F58322AB
:021C9F00310012
:101CA10000000000000000002A2B280000000000B6
:101CB1000000000000000000000000000000000023
:101CC1002C9EB4A0A1A2A434A6A7A5AE362D373868
:101CD100271E1F20212223242526B333B62EB7B871
:101CE1009F8485868788898A8B8C8D8E8F9091922F
:101CF100939495969798999A9B9C9D2F3130A3AD7B
:101D0100350405060708090A0B0C0D0E0F101112F8
:101D1100131415161718191A1B1C1DAFB1B0B500F5
:101D210012011001EF020108091250C5010101025F
:101D310003011200090264000301008064080B0022
:101D41000202020104090400000102020104052447
:101D510000100105240100000424020205240600EC
:101D6100010705810308004009040100020A00007F
:101D71000407050202400000070582024000000935
:101D81000402000103010100092110012101225F68
:101D9100000705830309000A5F0005010906A10187
:101DA1008501050719E029E7150025019508750149
:101DB100810295017508810395067508150026FFB6
:101DC100000507190029E7810005081901290515F2
:101DD100002501950575019102950175039103C0D7
:101DE100050C0901A1018502150026FF0319002A2E
:101DF100FF03950475108100C06400040309040405
:101E0100000C03430048003500350078000C001633
:101E1100032D005900750061006E002D0033006B29
:101E21000065007900160017035900750061006E06
:101E3100002D00530065007200690061006C0018FC
:101E4100000E032D005900750061006E002D000E7B
:011E51000090
:101E5200000000000000000000000000000000017F
:101E62000000000000000000000000000000030469
:101E72000000020000000000010101010101010156
:101E82000000020202020202020200000303030334
:101E92000303030300000404040404040404000014
:101EA20001020408102040800000010204081020F2
:101EB200408000000102040810204080000001025E
:101EC2000408102040800000FFFFFFFFFFFFFFFF1C
:101ED200FFFFFF00FFFF0102FFFFFFFFFFFFFFFF0A
:101EE200FFFFFFFFFFFFFFFF03FFFFFFFFFFFFFFFC
:0B1EF20000E1000000000800000000FC
:101EFD0000000000000000000000000000000000D5
:011F0D0000D3
:011F0E0000D2
:021F0F000000D0
:041F11009C1A9C1A60
:041F150000000000C8
:041F190000000000C4
:00000001FF
