:0600000002006B0223BCAC
:03000B00022B299C
:0300130002240FB5
:01001B0032B2
:0300230002232491
:03002B00022D099A
:01003300329A
:03003B000224623A
:030043000222E5B1
:01004B003282
:0300530002237015
:01005B003272
:03006300022D0764
:030066000224B6BB
:02006900E4733E
:0D006B0075817D1224C1E5826003020066EC
:100078007924E94401601B7A029035A978A175A01A
:1000880001E493F2A308B8000205A0D9F4DAF275E6
:02009800A0FFC7
:06009A00E478FFF6D8FD3A
:1000A0007800E84400600A790A75A001E4F309D8F1
:1000B000FC7897E84400600C790190010AE4F0A311
:0400C000D8FCD9FA95
:1000C4007522B675232475240075250075260075E0
:1000D40027007528FF752961752AFF752BFF752C7C
:1000E40002752D00752E02752F027530FF7531FFD4
:1000F4007532FF7533FF7534807535637536FF755A
:1001040037FF7538FF7539FF753AFF753BFF753C4E
:10011400FF753DFF753E80753F767540FF7541FF65
:100124007542FF75438775446C7545FF7546FF75C9
:0A01340047FF754801E4F549F54A5C
:02013E00C200FD
:0E0140007808E4F608F608F608F6780C760063
:0B014E00757601E4F577F5787579808F
:02015900C204DE
:02015B00C205DB
:03015D0002006637
:10016100758200122A27AF827E007D007C008F827B
:100171008E838DF0EC122D0B12188F9001487402B2
:10018100F075820F1228AB9001487402F07582104D
:100191001228AB9001487402F075820E1228AB75DB
:1001A1008200122B19AF82758201C007122B19AE82
:1001B10082758202C006122B19AD82758203C005B9
:1001C100122B19AC82758204C004122B19AB8275F3
:1001D1008205C003122B1985824B758206122B19D9
:1001E10085824C758207122B1985824D7582081202
:1001F1002B19AA82D003D004D005D006D007BFFFA7
:100201000280028F28BEFF0280028E29BDFF02807C
:10021100028D2ABCFF0280028C2CBBFF0280028B64
:100221002D74FFB54B028003854B2E74FFB54C0234
:100231008003854C3074FFB54D028003854D31BA82
:10024100FF0280028A327E007F00C3EE941EEF64BB
:1002510080948050778E0574092DF582C007C00601
:10026100122B19AD82D006D007BDFF02800CEE24FF
:10027100A1F582EF3401F583EDF08E0574272DF59C
:1002810082C007C006122B19AD82D006D007BDFF70
:1002910002800CEE24BFF582EF3401F583EDF08E80
:1002A1000574452DF582C007C006122B19AD82D009
:1002B10006D007BDFF02800CEE24DDF582EF34018C
:1002C100F583EDF00EBE00010F02024B7E007F00B0
:1002D100C3EE9405EF6480948040030203638E05AE
:1002E10074632DF582C007C006122B19AD82D006AA
:1002F100D007BDFF028006EE2434F8A6058E0574F2
:10030100682DF582C007C006122B19AD82D006D028
:1003110007BDFF028006EE2439F8A6058E05746D2F
:100321002DF582C007C006122B19AD82D006D00769
:10033100BDFF028006EE243EF8A6058E0574752DDC
:10034100F582C007C006122B19AD82D006D007BDB9
:10035100FF028006EE2443F8A6050EBE00010F023F
:1003610002D1758272122B19AF82BFFF0280028FF8
:100371002B758273122B19AF82BFFF0280028F2F60
:10038100758274122B19AF82BFFF0280028F337501
:10039100827A122B19AF82BFFF01228F48221218D5
:1003A10030E582700302076A121837AF82BF0A0272
:1003B10080ECBF0D0280E7C3749A95497480854A29
:1003C100F063F08095F05005E4F549F54AE54945BB
:1003D1004A7003BF02C87401B5490614B54A0280C8
:1003E10003020751BF0302800302075190331D75B9
:1003F100F0801228729017C61225DFAB287C007D91
:10040100007E009001457410F08B828C838DF0EE9C
:1004110012280D9017C61225DFAB297C007D007EC6
:10042100009001457410F08B828C838DF0EE1228C0
:100431000D9017C61225DFAB2A7C007D007E00904F
:1004410001457410F08B828C838DF0EE12280D9093
:1004510017C61225DFAB2C7C007D007E0090014683
:100461007410F08B828C838DF0EE12284D9017C69C
:100471001225DFAB2D7C007D007E009001467410BB
:10048100F08B828C838DF0EE12284D9017C61225C9
:10049100DFAB2E7C007D007E009001467410F08B56
:1004A100828C838DF0EE12284D9017C61225DFAB9A
:1004B100307C007D007E009001457410F08B828CB1
:1004C100838DF0EE12280D9017C61225DFAB317C1B
:1004D100007D007E009001457410F08B828C838D2D
:1004E100F0EE12280D9017C61225DFAB327C007D8D
:1004F100007E009001457410F08B828C838DF0EEAC
:1005010012280D9017C61225DF7D007E00C3ED94E1
:100511001EEE648094805025ED24A1F582EE340115
:10052100F583E0FCBCFF0280148C82C006C005127A
:1005310017C6D005D0060DBD00D30E80D01227F10D
:100541009017C61225DF7D007E00C3ED941EEE6478
:100551008094805025ED24BFF582EE3401F583E0CF
:10056100FCBCFF0280148C82C006C0051217C6D0E5
:1005710005D0060DBD00D30E80D01227F19017C60D
:100581001225DF7D007E00C3ED941EEE6480948011
:100591005025ED24DDF582EE3401F583E0FCBCFF4E
:1005A1000280148C82C006C0051217C6D005D00681
:1005B1000DBD00D30E80D01227F19017C61225DF92
:1005C100E4F54EF54FC3E54E9405E54F6480948004
:1005D100502FE54E2434F987048C027B007C007E89
:1005E100009001457410F08A828B838CF0EE122802
:1005F1000D9017C61225DF054EE4B54EC8054F8094
:10060100C4E4F550F551C3E5509405E55164809477
:1006110080502FE5502439F987048C027B007C003F
:100621007E009001457410F08A828B838CF0EE126B
:10063100280D9017C61225DF0550E4B550C80551A5
:1006410080C4E4F552F553C3E5529405E553648043
:100651009480502FE552243EF987048C027B007C64
:10066100007E009001457410F08A828B838CF0EE3D
:1006710012280D9017C61225DF0552E4B552C805A0
:100681005380C4AB2B7C007D007E0090014574102B
:10069100F08B828C838DF0EE12280D9017C61225F7
:1006A100DFAB2F7C007D007E009001467410F08B43
:1006B100828C838DF0EE12284D9017C61225DFAB88
:1006C100337C007D007E009001457410F08B828C9C
:1006D100838DF0EE12280D9017C61225DF1227F137
:1006E1009017C61225DFE4F554F555C3E55494057A
:1006F100E55564809480502FE5542443F987048C98
:10070100027B007C007E009001457410F08A828B90
:10071100838CF0EE12280D9017C61225DF0554E4E4
:10072100B554C8055580C4AB487C007D007E00905F
:1007310001467410F08B828C838DF0EE12284D905F
:1007410017C61225DF1217AEE4F549F54A02039FD9
:10075100E54924FBF582E54A3401F583EFF00549CB
:10076100E4B54902054A02039F749BB54906E4B505
:100771004A028003020961E4F549F54A9001FBE070
:10078100FFBF02028003020961900295E0FFBF03EF
:1007910002800302096190010F7420F07433A3F009
:1007A1007480A3F09017C61225231217AE7E007F26
:1007B10000C3EE9475EF64809480502774012EFC81
:1007C100E43FFDEC24FBF582ED3401F583E0F58295
:1007D1008E83C005C004122AE3D004D0058C068D97
:1007E1000780CE90028FE0F582758375122AE3901F
:1007F1000290E0F582758376122AE3900291E0F58A
:1008010082758377122AE3900292E0F582758378EC
:10081100122AE3900293E0F582758379122AE3901C
:100821000294E0F58275837A122AE39001FCE0F5E7
:10083100289001FDE0F5299001FEE0F52A9001FFE5
:10084100E0F52C900200E0F52D900201E0F52E90EC
:100851000202E0F530900203E0F531900204E0F588
:10086100327E007F00C3EE941EEF64809480506559
:10087100EE24A1FCEF3401FD740A2EFAE43FFBEAF9
:1008810024FBF582EB3401F583E08C828D83F0EE5D
:1008910024BFFCEF3401FD74282EFAE43FFBEA2467
:1008A100FBF582EB3401F583E08C828D83F0EE243D
:1008B100DDFCEF3401FD74462EFAE43FFBEA24FB34
:1008C100F582EB3401F583E0FB8C828D83F00EBE63
:1008D10000930F80907E007F00C3EE9405EF64804B
:1008E10094805064EE2434F974642EFCE43FFDECF2
:1008F10024FBF582ED3401F583E0F7EE2439F97438
:10090100692EFCE43FFDEC24FBF582ED3401F58317
:10091100E0F7EE243EF9746E2EFCE43FFDEC24FB7F
:10092100F582ED3401F583E0F7EE2443F974942E5A
:10093100FCE43FFDEC24FBF582ED3401F583E0FDA1
:10094100F70EBE00940F809190026EE0F52B90029D
:100951006FE0F52F900270E0F533900294E0F548D6
:1009610075820F122962E582B40100E433FF7582BA
:1009710010C007122962AE82D007EEB40100E43341
:10098100F55675820EC007122962AD82D007EDB40B
:100991000100E433F5577401B548028003020DC626
:1009A100E5276003020D35EFB52403020DC9E556B5
:1009B100B52503020DC9E557B52603020DC9EF7030
:1009C10003020DC9E5567003020DC9E55770030214
:1009D1000DC97527018F24855625855726E52F706A
:1009E1000D852B82C0071219B3D007020DC97401FE
:1009F100B52F3574FFB53302801CAC337B00AA2BB5
:100A01007D00EA2BFBED3CFC8B828C83C007121B23
:100A11000DD007020DC9AC2B7D008C828D83C007E0
:100A2100121B0DD007020DC97402B52F357C007D54
:100A310000C3EC9405ED648094804003020DC9EC81
:100A41002443F98703BBFF0280118B82C007C005D5
:100A5100C0041219B3D004D005D0070CBC00D20DCC
:100A610080CF7403B52F03020DC97404B52F51E56E
:100A710033700D852B82C007121C22D007020DC9CD
:100A81007401B533028003020DC9852B82C00712A0
:100A91001C2275820F122962E582D007701C7582B3
:100AA10010C007122962E582D007700E75820EC050
:100AB10007122962E582D00760D0752700020DC9AF
:100AC1007405B52F028003020B84900014E4F5F045
:100AD100C007122D20E58224F6FA900014E4F5F007
:100AE100C002122D20AB82D002EB24F6F5108A82CF
:100AF100121C49900064E4F5F0122BE675820F1286
:100B01002962E582D007701C758210C00712296224
:100B1100E582D007700E75820EC007122962E58248
:100B2100D00760A6900014E4F5F0C007122D20E56F
:100B31008224F6FB900014E4F5F0C003122D20AAE4
:100B410082D003EA24F6F5108B82121C49900064CE
:100B5100E4F5F0122BE675820F122962E582D007C7
:100B610070C2758210C007122962E582D00770B485
:100B710075820EC007122962E582D00770A6F5279B
:100B8100020DC97406B52F6D7401B53317E52B2419
:100B9100E1FEC3E49EF510758200C007121C49D026
:100BA10007020DC97402B53313E52B24E1F5107565
:100BB1008200C007121C49D007020DC97403B53366
:100BC10017E52B24E1FEC3E49EF582751000C007F2
:100BD100121C49D007020DC97404B5330280030207
:100BE1000DC9E52B24E1F582751000C007121C49DF
:100BF100D007020DC97407B52F028003020C9E7441
:100C010001B53316E52B24E1FEC3E49EF510758290
:100C110000C007121C49D00780477402B53312E5A2
:100C21002B24E1F510758200C007121C49D0078002
:100C3100307403B53316E52B24E1FEC3E49EF5823F
:100C4100751000C007121C49D00780157404B53314
:100C510010E52B24E1F582751000C007121C49D064
:100C610007900064E4F5F0C007122BE675820F12BD
:100C71002962E582D007701F758210C007122962B0
:100C8100E582D007701175820EC007122962E582D4
:100C9100D0077003020C00752700020DC97408B556
:100CA1002F2C7401B5330D852B82C007121C69D01E
:100CB10007020DC97402B533028003020DC9C3E4F2
:100CC100952BF582C007121C69D007020DC9740962
:100CD100B52F028003020DC97401B5330C852B8237
:100CE100C007121C69D00780127402B5330DC3E42A
:100CF100952BF582C007121C69D007900064E4F5BA
:100D0100F0C007122BE675820F122962E582D00727
:100D1100701C758210C007122962E582D007700E1F
:100D210075820EC007122962E582D00760AA752775
:100D310000020DC9EF600BE5566007E5576003023D
:100D41000DC98F24855625855726E52F700C852BD7
:100D510082C007121A74D00780667401B52F3174EE
:100D6100FFB533028019AE337D00AB2B7C00EB2D38
:100D7100FDEC3EFE8D828E83C007121B9AD007AD1B
:100D81002B7E008D828E83C007121B9AD007803084
:100D91007402B52F2B7D047E00EE20E723ED244362
:100DA100F98704BCFF0280118C82C007C006C00510
:100DB100121A74D005D006D0071DBDFF011E80D9BF
:100DC1007527008003752700E52760030216E3EF0E
:100DD100B524030210D5EFF524700302106FE52C42
:100DE10070098528821219B30210D57401B52C2A15
:100DF10074FFB530028015AF307E00AC287D00EC69
:100E01002EFEED3FFF8E828F83121B0DAE287F00D9
:100E11008E828F83121B0D0210D57402B52C317E88
:100E2100007F00C3EE9405EF6480948040030210BC
:100E3100D5EE2434F98705BDFF02800D8D82C007F0
:100E4100C0061219B3D006D0070EBE00D60F80D34C
:100E51007403B52C387E007F00C3EE941EEF6480CE
:100E6100948040030210D5EE24A1F582EF3401F500
:100E710083E0FDBDFF030210D58D82C007C00612BD
:100E81001BDAD006D0070EBE00CF0F80CC7404B59C
:100E91002C2AE5307009852882121C220210D57493
:100EA10001B5300280030210D5852882121C2275FB
:100EB100820F122962E58260F00210D57405B52C0B
:100EC1000280028077900014E4F5F0122D20E58273
:100ED10024F6FC900014E4F5F0C004122D20AB823E
:100EE100D004EB24F6F5108C82121C49900064E4C6
:100EF100F5F0122BE675820F122962E58260C69029
:100F01000014E4F5F0122D20E58224F6FC90001483
:100F1100E4F5F0C004122D20AB82D004EB24F6F5E9
:100F2100108C82121C49900064E4F5F0122BE675D6
:100F3100820F122962E58270C60210D57406B52CA3
:100F41005D7401B53013E52824E1FFC3E49FF5107A
:100F5100758200121C490210D57402B5300FE528C4
:100F610024E1F510758200121C490210D57403B5F5
:100F71003013E52824E1FFC3E49FF58275100012C8
:100F81001C490210D57404B5300280030210D5E566
:100F91002824E1F582751000121C490210D574074E
:100FA100B52C687401B53012E52824E1FFC3E49F34
:100FB100F510758200121C49803B7402B5300EE5B4
:100FC1002824E1F510758200121C4980287403B5AC
:100FD1003012E52824E1FFC3E49FF5827510001269
:100FE1001C4980117404B5300CE52824E1F58275A3
:100FF1001000121C49900064E4F5F0122BE6758292
:101001000F122962E582609B0210D57408B52C2469
:101011007401B53009852882121C690210D5740249
:10102100B5300280030210D5C3E49528F582121C65
:10103100690210D57409B52C0280030210D5740120
:10104100B53008852882121C69800E7402B53009FA
:10105100C3E49528F582121C69900064E4F5F0124E
:101061002BE675820F122962E58260D28066E52C3B
:101071007008852882121A74805A7401B52C29745B
:10108100FFB530028015AF307E00AC287D00EC2E1C
:10109100FEED3FFF8E828F83121B9AAE287F008E5A
:1010A100828F83121B9A802C7402B52C277E047FB9
:1010B10000EF20E71FEE2434F98705BDFF02800D04
:1010C1008D82C007C006121A74D006D0071EBEFF5B
:1010D100011F80DDE556B525030213DCE556F52534
:1010E1007003021376E52D70098529821219B30266
:1010F10013DC7401B52D2A74FFB531028015AF31AF
:101101007E00AC297D00EC2EFEED3FFF8E828F83A9
:10111100121B0DAE297F008E828F83121B0D0213CD
:10112100DC7402B52D317E007F00C3EE9405EF64BF
:1011310080948040030213DCEE2439F98705BDFF5A
:1011410002800D8D82C007C0061219B3D006D007E8
:101151000EBE00D60F80D37403B52D387E007F00FC
:10116100C3EE941EEF6480948040030213DCEE24EE
:10117100BFF582EF3401F583E0FDBDFF030213DC0F
:101181008D82C007C006121BDAD006D0070EBE0042
:10119100CF0F80CC7404B52D2AE5317009852982E1
:1011A100121C220213DC7401B5310280030213DC2C
:1011B100852982121C22758210122962E58260F053
:1011C1000213DC7405B52D0280028077900014E4CF
:1011D100F5F0122D20E58224F6FC900014E4F5F0E0
:1011E100C004122D20AB82D004EB24F6F5108C82C2
:1011F100121C49900064E4F5F0122BE6758210127E
:101201002962E58260C6900014E4F5F0122D20E514
:101211008224F6FC900014E4F5F0C004122D20ABFA
:1012210082D004EB24F6F5108C82121C49900064E4
:10123100E4F5F0122BE6758210122962E58270C680
:101241000213DC7406B52D5D7401B53113E5292453
:10125100E1FFC3E49FF510758200121C490213DC03
:101261007402B5310FE52924E1F510758200121CD5
:10127100490213DC7403B53113E52924E1FFC3E40A
:101281009FF582751000121C490213DC7404B531FC
:101291000280030213DCE52924E1F58275100012B6
:1012A1001C490213DC7407B52D687401B53112E5D0
:1012B1002924E1FFC3E49FF510758200121C4980C7
:1012C1003B7402B5310EE52924E1F5107582001257
:1012D1001C4980287403B53112E52924E1FFC3E4D8
:1012E1009FF582751000121C4980117404B5310CF0
:1012F100E52924E1F582751000121C49900064E48F
:10130100F5F0122BE6758210122962E582609B02CC
:1013110013DC7408B52D247401B5310985298212B5
:101321001C690213DC7402B5310280030213DCC3B1
:10133100E49529F582121C690213DC7409B52D02AA
:1013410080030213DC7401B53108852982121C69FE
:10135100800E7402B53109C3E49529F582121C6926
:10136100900064E4F5F0122BE6758210122962E513
:101371008260D28066E52D7008852982121A7480F8
:101381005A7401B52D2974FFB531028015AF317E34
:1013910000AC297D00EC2EFEED3FFF8E828F831283
:1013A1001B9AAE297F008E828F83121B9A802C7428
:1013B10002B52D277E047F00EF20E71FEE2439F9C7
:1013C1008705BDFF02800D8D82C007C006121A7409
:1013D100D006D0071EBEFF011F80DDE557B52603ED
:1013E1000216E3E557F526700302167DE52E700916
:1013F100852A821219B30216E37401B52E2A74FFED
:10140100B532028015AF327E00AC2A7D00EC2EFE93
:10141100ED3FFF8E828F83121B0DAE2A7F008E82DD
:101421008F83121B0D0216E37402B52E317E007FED
:1014310000C3EE9405EF6480948040030216E3EE4E
:10144100243EF98705BDFF02800D8D82C007C006CD
:101451001219B3D006D0070EBE00D60F80D3740385
:10146100B52E387E007F00C3EE941EEF6480948019
:1014710040030216E3EE24DDF582EF3401F583E04B
:10148100FDBDFF030216E38D82C007C006121BDA01
:10149100D006D0070EBE00CF0F80CC7404B52E2A23
:1014A100E5327009852A82121C220216E37401B505
:1014B100320280030216E3852A82121C2275820EF3
:1014C100122962E58260F00216E37405B52E0280EE
:1014D100028077900014E4F5F0122D20E58224F6C5
:1014E100FC900014E4F5F0C004122D20AB82D0046E
:1014F100EB24F6F5108C82121C49900064E4F5F09F
:10150100122BE675820E122962E58260C6900014E4
:10151100E4F5F0122D20E58224F6FC900014E4F5A8
:10152100F0C004122D20AB82D004EB24F6F5108C10
:1015310082121C49900064E4F5F0122BE675820ECC
:10154100122962E58270C60216E37406B52E5D7437
:1015510001B53213E52A24E1FFC3E49FF51075823A
:1015610000121C490216E37402B5320FE52A24E188
:10157100F510758200121C490216E37403B532138B
:10158100E52A24E1FFC3E49FF582751000121C498E
:101591000216E37404B5320280030216E3E52A243D
:1015A100E1F582751000121C490216E37407B52E8D
:1015B100687401B53212E52A24E1FFC3E49FF510F6
:1015C100758200121C49803B7402B5320EE52A2453
:1015D100E1F510758200121C4980287403B532129E
:1015E100E52A24E1FFC3E49FF582751000121C492E
:1015F10080117404B5320CE52A24E1F582751000DE
:10160100121C49900064E4F5F0122BE675820E126B
:101611002962E582609B0216E37408B52E247401E9
:10162100B53209852A82121C690216E37402B532A9
:101631000280030216E3C3E4952AF582121C6902B3
:1016410016E37409B52E0280030216E37401B53264
:1016510008852A82121C69800E7402B53209C3E41E
:10166100952AF582121C69900064E4F5F0122BE6CC
:1016710075820E122962E58260D28066E52E7008BD
:10168100852A82121A74805A7401B52E2974FFB505
:1016910032028015AF327E00AC2A7D00EC2EFEEDC9
:1016A1003FFF8E828F83121B9AAE2A7F008E828F1C
:1016B10083121B9A802C7402B52E277E047F00EFC3
:1016C10020E71FEE243EF98705BDFF02800D8D82C4
:1016D100C007C006121A74D006D0071EBEFF011F34
:0B16E10080DD900032E4F5F0022BE603
:1016ED0090029DE4F0C200227F00C3E5DB940792D7
:1016FD000140067D077E008004ADDB7E008F037CFC
:10170D0000C3EB9DEC64808EF063F08095F0501774
:10171D00EF2496FDE43402FE8F82758300E0FC8D8C
:10172D00828E83F00F80C3227F008F057E00C3ED74
:10173D009407EE940050188F057E00EF2496F582E5
:10174D00E43402F583E0FC8D828E83F00F80DB9014
:10175D00000722900002E0FF90029FF0E020E030B1
:10176D00900296E0FCA3E0FDA3E0FEA3E0FFBCB079
:10177D001FBD041CBE0019BF001675E200C2AF905C
:10178D00C350122C9790C350122C9712380080FE24
:10179D0022757A0090029FE06003757A01857A8246
:1017AD00222000149002A0E0FFE0600C8FD553D4EE
:1017BD00FCD2009002A0E4F022AF8290029FE06084
:1017CD005E7D007E003000240DBD00010E900005F1
:1017DD00C007C006C005122C97D005D006D007C390
:1017ED00ED9450EE94C340DD758200229002A0E08E
:1017FD00FEBE400050207D0074402EFEE43DFDEE07
:10180D002414F582ED3400F583EFF09002A0E0246E
:10181D0001F075820122C0071217AED00780A275A4
:10182D0082002290029DE0F5822290029DE07003DD
:10183D00F5822290029EE02414F582E43400F583B3
:10184D00E0FF90029EE004F090029DE014F0E07045
:10185D000353D4F38F822275D50074FC55D4440202
:10186D00F5D4C2002230DE1990029DE5DBF0900226
:10187D009EE4F090029DE0600874F355D44408F5A1
:10188D00D4221222811222AB12229A75DD0075D359
:08189D000075D50075D700228B
:1018A50075D70074FC55D64402F5D69002A1E4F034
:1018B50022AE82AF8390010AE07003F582227C009C
:1018C5007D009002A1E060280CBC00010D90000590
:1018D500C007C006C005C004122C97D004D005D09F
:1018E50006D007C3EC9450ED94C340D67582002210
:1018F5008E059000E0EDF0BE0137BF00347D00BDE0
:10190500080050278D037C0074412BFBE43CFCEB65
:1019150024A0FBEC3400FCED24A2F582E43402F5AE
:1019250083E0FA8B828C83F00D80D475D709021978
:10193500A6BE0236BF00337D00BD080050278D03CB
:101945007C0074412BFBE43CFCEB24A0FBEC340055
:10195500FCED24AAF582E43402F583E0FA8B828C4F
:1019650083F00D80D475D7098037BE0334BF0031AD
:101975007F00BF040050278F057E0074412DFDE4D4
:101985003EFEED24A0FDEE3400FEEF24B2F582E428
:101995003402F583E0FC8D828E83F00F80D475D7F9
:1019A500059002A17401F053D6FC75820122AF8225
:1019B500BF880040088F06EE2478FE8042BF800075
:1019C50040239002A2E0FD8F04EC2480F5F005F0A1
:1019D5007401800225E0D5F0FBFC42059002A2EDE2
:1019E500F07E00801AEF90332293FE7003F5822279
:1019F500EE30E70B9002A2E04402FFF053067F9021
:101A050002A4E0FFB50602805C9002A5E0FFB506E2
:101A15000280529002A6E0FFB5060280489002A718
:101A2500E0FFB50602803E9002A8E0FFB506028001
:101A3500349002A9E0FFB50602802A7F027D02EDFF
:101A450024A2FBE43402FC8B828C83E070088B8239
:101A55008C83EEF080080D8D07BD080040E1BF08BE
:101A650004758200229000011218B675820122AF1A
:101A750082BF880040088F06EE2478FE8043BF8031
:101A85000040249002A2E0FD8F04EC2480F5F005CF
:101A9500F07401800225E0D5F0FBF4FC52059002BC
:101AA500A2EDF07E00801AEF90332293FE7003F5CD
:101AB5008222EE30E70B9002A2E054FDFFF05306C0
:101AC5007F7F02EE6016EF24A2FCE43402FD8C82D7
:101AD5008D83E0B506068C828D83E4F00FBF080088
:101AE50040E19000011218B6758201227F00BF08FF
:101AF50000500FEF24A2F582E43402F583E4F00FE1
:101B050080EC9000010218B6AE82AF839002AAE085
:101B1500FCA3E0FDECB50606EDB50702806D90026D
:101B2500ACE0FCA3E0FDECB50606EDB50702805B75
:101B35009002AEE0FCA3E0FDECB50606EDB50702AC
:101B450080499002B0E0FCA3E0FDECB50606EDB5DA
:101B5500070280377D007C00EC75F002A424AAFA08
:101B6500740235F0FB8A828B83E0F8A3E0F94870B4
:101B75000B8A828B83EEF0EFA3F080080C8C05BCFA
:101B8500040040D4BD04047582002290000212189E
:101B9500B675820122AE82AF837D00EE4F6026EDE1
:101BA50075F002A424AAFB740235F0FC8B828C83A9
:101BB500E0F9A3E0FAE9B5060CEAB507088B828CD3
:101BC50083E4F0A3F00DBD040040D090000212188C
:101BD500B675820122AF82C0071219B3AE82D00753
:101BE5008F82C006121A74D0068E8222AF829002AE
:101BF500B2E042079002B2EFF09000031218B675FA
:101C0500820122AF829002B2E0FEEFF4520690020A
:101C1500B2EEF09000031218B675820122AF8290E1
:101C250002B3E4F09002B4F09002B5F08F82C007E1
:101C3500121BF1902710122C97D0078F82121C08C7
:101C450075820122AF829002B3EFF09002B4E510E5
:101C5500F09002B2E4F09002B5F09000031218B6CD
:101C650075820122AF829002B5EFF09002B2E4F0E6
:101C75009002B3F09002B4F09000031218B675828A
:021C850001223A
:101C8700AFDBBF080280030220DA900007E0FE7F87
:101C970000900006E0FD7C004FF511EC4EF5127F39
:101CA70000900001E0F513900000E0FE54606053DF
:101CB700900000E0FE5306607D00BE2005BD0002D7
:101CC700800BBE4039BD00367FFF0220DC7420B593
:101CD70013030220DC7421B5130280077422B513A5
:101CE70018800C121735AD82AE838D070220DCC039
:101CF70007121760D0070220DC7FFF0220DC7FFF7E
:101D07000220DCE51324F450030220D6E513240B4C
:101D170083F582E513241083F583E473B8E6D6A62A
:101D2700D6B03BD6BDDADCDC201E201F201E1D20CE
:101D37001E1E2020900003E0FEBE01028013BE029B
:101D4700028023BE03028033BE2203021E22021E2C
:101D5700407514A27515339033B4E493FD74019361
:101D6700FE8D07021E427514B67515339034B1E423
:101D770093FD740193FE8D07021E42900002E070EE
:101D8700157514B37515349034B7E493FD74019346
:101D9700FE8D07021E42900002E0FEBE011575147B
:101DA700F9751534903507E493FD740193FE8D079B
:101DB700021E42900002E0FEBE02147514C775159C
:101DC700349034DDE493FD740193FE8D07806C90AD
:101DD7000002E0FEBE03147514B97515349034C5BE
:101DE700E493FD740193FE8D078050900002E0FE9E
:101DF700BE04147514DF7515349034F7E493FD743D
:101E07000193FE8D0780347514B97515349034C568
:101E1700E493FD740193FE8D078020900002E0702B
:101E27001475141C75153490341AE493FD740193DA
:101E3700FE8D0780067FFF80027FFFBFFF03022022
:101E4700DC8F057E00C3ED9511EE951250048D11C0
:101E57008E12AD11AE12C3ED9408EE9400920240BB
:101E6700067B087C008004AB11AC128B077C00C397
:101E7700EC9F50198C027B00EC2514F582E4351594
:101E8700F583E493F98A828B83F00C80E28F037CDD
:101E970000EDC39BFDEE9CFE8D118E12EF2514F510
:101EA70014E43515F5150220DC900002E0FE8E11D2
:101EB7007512000220DC90010AE0900000F0AD11DD
:101EC700AE12C3ED9401EE940050030220DC7F01B3
:101ED7000220DC900002E0FE90010AF00220DC9074
:101EE7000000E0541F702F900003E0FD7E0090007B
:101EF70002E0FC7B004206EB4205BE0114BD001167
:101F07009033BDE493FE30E5030220DC7FFF02201F
:101F1700DC7FFF0220DC900000E0FE53061F7D00FF
:101F2700BE0277BD0074900004E0FEBE0102805F30
:101F3700BE02028049BE03028033BE0402801DBE7A
:101F470081028040BE8202802ABE83028014BE8442
:101F57004474BC55DE4402F5DE0220DC53DE730216
:101F670020DC74BC55D64402F5D60220DC53D67368
:101F77000220DC74BC55D44402F5D40220DC53D4CF
:101F8700730220DC74BC55D24402F5D20220DC5324
:101F9700D2730220DC7FFF0220DC7FFF0220DC906F
:101FA7000000E0541F702F900003E0FD7E009000BA
:101FB70002E0FC7B004206EB4205BE0114BD0011A6
:101FC7009033BDE493FE30E5030220DC7FFF02205F
:101FD700DC7FFF0220DC900000E0FE53061F7D003F
:101FE700BE0205BD000280030220B4900003E0FD9D
:101FF7007E00900002E0FC7B004206EB4205EE4DBE
:1020070060030220B0900005E0FD7E00900004E030
:10201700FC7B004206EB4205BE0106BD0003022021
:10202700A4BE0205BD00028060BE0305BD0002809C
:1020370044BE0405BD00028028BE8105BD000280A4
:1020470052BE8205BD00028036BE8305BD000280F8
:102057001ABE8451BD004E74BF55DE4403F5DE80C1
:1020670074747F55DE440CF5DE806A74BF55D64420
:1020770003F5D68060747F55D6440CF5D680567428
:10208700BF55D44403F5D4804C747F55D4440CF524
:10209700D4804274BF55D24403F5D28038747F553B
:1020A700D2440CF5D27FFF802C7FFF80287FFF80F2
:1020B70024900000E4F0900001F0AD11AE12C3EDE2
:1020C7009402EE940040047F02800AAF1180067FDD
:1020D700FF80027FFFBFFF077513FF75DCCF22EF7D
:1020E70024F740068FDD75DCC02275DD0075DCC086
:1020F700227405B51302805D7406B51366AE11AF81
:1021070012C3EE9408EF9400920340067C087D000A
:102117008004AC11AD127D00C3ED9C50198D027B7C
:1021270000ED2514F582E43515F583E493F98A82E9
:102137008B83F00D80E28C037D00EEC39BFEEF9D49
:10214700FF8E118F12EC2514F514E43515F5158C57
:10215700DD63DC4022E5E35480FFE5114FF5E375CD
:10216700DC022275DD0075DC02227420B5130D3008
:10217700DE101216F575DD0085DCDC2275DD004307
:10218700DC022275D30074FC55D24402F5D22290AA
:1021970002B67401F075D30853D2FC758201222070
:1021A700D903022257E5D9540FFFADD95305307E25
:1021B70000BD0005BE0002801CBD1005BE000280E8
:1021C70037BD2005BE00028044BD3006BE000302B5
:1021D700223D022255EF24FB5003022255EF2F9098
:1021E70021EA7380088067800A8063806112217109
:1021F7000222551218728056EF24FB4051EF2F90A0
:10220700220A7380498047804580438041EF24FB41
:10221700403CEF2F90221F738008800B800E8011A7
:10222700802C1220F8802712218A802212186480BD
:102237001D1218A58018EF24FB4013EF2F9022489A
:102247007380088009800780058003121C87C2D924
:1022570030D81A75DC0275D21275D41275E300C234
:10226700DAC2D9C2D890010AE4F01216ED10DA01E9
:1022770022E5DA20E20375D8FF2275E20053E27FF8
:1022870043E22975E30053E2BF53D1FB75D1804385
:10229700D1012243E10443E10243E10143D81FD2C4
:1022A700EAD2AF227E007F008EEC8FED7E0A7F00A0
:1022B7008EEE8FEF7E147F008EE48FE57EA07F0089
:1022C7008EE68FE775EB0C43EB4043EB8075D2123C
:0D22D70075D41275D61275EA4075DC02222E
:1022E500C021C0E0C0F0C082C083C007C006C005E1
:1022F500C004C003C002C001C000C0D075D0001228
:1023050021A6D0D0D000D001D002D003D004D00572
:10231500D006D007D083D082D0F0D0E0D02132C013
:1023250021C0E0C0F0C082C083C007C006C005C0A0
:1023350004C003C002C001C000C0D075D0003098F1
:10234500051231A6C2983099051231DCC299D0D058
:10235500D000D001D002D003D004D005D006D007DC
:10236500D083D082D0F0D0E0D02132C021C0E0C0EF
:10237500F0C082C083C007C006C005C004C003C04A
:1023850002C001C000C0D075D00030C00512322097
:10239500C2C030C105123256C2C1D0D0D000D00162
:1023A500D002D003D004D005D006D007D083D08288
:1023B500D0F0D0E0D02132C021C0E0C0F0C082C052
:1023C50083C007C006C005C004C003C002C001C069
:1023D50000C0D075D0009002B9E0FEA3E0FFC007B1
:1023E500C0068E828F83120069D006D007D0D0D068
:1023F50000D001D002D003D004D005D006D007D03C
:1024050083D082D0F0D0E0D02132C021C0E0C0F02E
:10241500C082C083C007C006C005C004C003C00297
:10242500C001C000C0D075D0009002BBE0FEA3E0A3
:10243500FFC007C0068E828F83120069D006D007C1
:10244500D0D0D000D001D002D003D004D005D00622
:10245500D007D083D082D0F0D0E0D02132C021C0C7
:10246500E0C0F0C082C083C007C006C005C004C07C
:1024750003C002C001C000C0D075D0009002B7E013
:10248500FEA3E04E600E9002B7E0F8A3E0F5838866
:1024950082120069D0D0D000D001D002D003D00480
:1024A500D005D006D007D083D082D0F0D0E0D0219F
:1024B50032122CD212016112039F80FB7582002219
:1024C500AE82AF8390010BE0FBA3E0FCA3E0FD7AB5
:1024D5000090010EE0F9890019E8603F8B828C833A
:1024E5008DF012311CF8A3AB82AC83C007C006C0C7
:1024F50005C004C003C002C0011225038007C00641
:10250500C007888222A882D001D002D003D004D08F
:1025150005D006D007E860030A80BB8A8222AE8216
:10252500AF8390010FE0FBA3E0FCA3E0FD90010F5A
:10253500E0F5F0A3E045F07003F582227A008B8286
:102545008C838DF012311CF9A3AB82AC83E9F86062
:102555002CC007C006C005C004C003C00212256711
:102565008007C006C007888222A982D002D003D086
:1025750004D005D006D007E960030A80C18A82220B
:10258500AE82AF83900112E0FAA3E0FBA3E0FCA3C7
:10259500E0FD90011AEAF0EBA3F0ECA3F0EDA3F057
:1025A50090011E740AF08E828F83022616AE82AFCA
:1025B50083900116E0FAA3E0FBA3E0FCA3E0FD9005
:1025C5000140EAF0EBA3F0ECA3F0EDA3F090014499
:1025D500740AF08E828F830226FBAE82AF83C0071A
:1025E500C0061225EC8008C006C00775820D22AD15
:1025F50082D006D007C007C0051226038008C00692
:10260500C00775820A22AE82D005D007EE2DF5826D
:102615002285825885835990013FE4F090011EE0A0
:10262500FDBD0200500690011E740AF090011EE0E7
:10263500F55A7B3F7C0190011AE0F55BA3E0F55C60
:10264500A3E0F55DA3E0F55E855A5F7560007561F1
:1026550000756200855F7A85607B85617C85627D1A
:10266500855B82855C83855DF0E55EC004C00312F1
:102675002EF2A882855F7A85607B85617C85627D87
:10268500855B82855C83855DF0E55EC000122FC7A2
:10269500AA82AD83AEF0FFD000D003D00490011A1A
:1026A500EAF0EDA3F0EEA3F0EFA3F01BBBFF011CD6
:1026B5008B068C07B80A005008880574302DFD80FC
:1026C50004743728FD8E828F83EDF090011AE0F5B2
:1026D500F0A3E042F0A3E042F0A3E045F06003027E
:1026E500263B90010FEBF0ECA3F0E4A3F0855882B4
:1026F500855983022523858263858364900144E09F
:10270500FD7019900140E0F9A3E0FAA3E0FBA3E016
:10271500FC022719C063C06489822222BD0A028097
:10272500030227C6900140E0F9A3E0FAA3E0FBA36A
:10273500E0FC30E76FC004C003C002C001122747A8
:102745008008C063C06475822D22A882D001D002A2
:10275500D003D0048865900140C3E499F0E49AA3BE
:10276500F0E49BA3F0E49CA3F0900140E0F566A3A0
:10277500E0F567A3E0F568A3E0F56990011AE56661
:10278500F0E567A3F0E568A3F0E569A3F090011E05
:10279500740AF0856382856483122616AF82E56527
:1027A5002FF5822290011AE9F0EAA3F0EBA3F0ECF1
:1027B500A3F090011E740AF0856382856483022666
:1027C50016900140E0FBA3E0FCA3E0FEA3E0FF9030
:1027D500011AEBF0ECA3F0EEA3F0EFA3F090011ECD
:0B27E500EDF0856382856483022616F8
:1027F10022AC82AD83AEF0FF900116ECF0EDA3F0B8
:10280100EEA3F0EFA3F09017C60225B2AC82AD8320
:10281100AEF0FF900145E0FB900140ECF0EDA3F03C
:10282100EEA3F0EFA3F0900144EBF09017C602265F
:10283100FBAC82AD83AEF0FF900112ECF0EDA3F0A2
:10284100EEA3F0EFA3F09017C6022585AC82AD830D
:10285100AEF0FF900146E0FB900140ECF0EDA3F0FB
:10286100EEA3F0EFA3F0900144EBF09017C602261F
:10287100FBAD82AE83AFF090010FEDF0EEA3F0EF70
:10288100A3F09017C6022523AD82AE83AFF090016D
:1028910047E0FC90010BEDF0EEA3F0EFA3F0900107
:0928A1000EECF09017C60224C5EC
:1028AB00E582FF90355993FEEF90353193FF700120
:1028BB0022900148E0FD701BBF0209EEF4FC52921E
:1028CB00EC529322BF0402800122EEF4FC5296ECF0
:1028DB00529722BD0214BF0207EE4292EE429322A0
:1028EB00BF0439EE4296EE429722BD0116BF020895
:1028FB00EEF45292EE429322BF0421EEF45296EE86
:10290B00429722BD0316BF0208EE4292EEF4529399
:10291B0022BF0408EE4296EEF4FE529722AF82BF1E
:10292B000102800FBF02028013BF03028017BF0496
:10293B0025801BE5C620E21E539DFB22E5C620E346
:10294B0015539DF722E5C630E20C539DFB22E5C6DD
:10295B0030E303539DF722E582FF90350993FEEF99
:10296B0090355993FDEF90353193FF7003F582222B
:10297B00EE600D8E82C007C005122928D005D00746
:10298B007E00BF0202800ABF03028009BF040C80D5
:10299B0008AE908006AEA08002AEB0ED5E6004750E
:1029AB0082012275820022E582FF90350993FEEFAA
:1029BB0090355993FDEF90353193FFEE600D8E827C
:1029CB00C007C005122928D005D007A2AFE433FEFB
:1029DB00C2AFBF0202800ABF03028017BF0436805A
:1029EB0024900149E07007EDF4FF52908027ED42EF
:1029FB00908022900149E07007EDF4FF52A0801502
:102A0B00ED42A08010900149E07007EDF4FF52B049
:0B2A1B008003ED42B0EE6002D2AF225B
:102A2700E58290358193FFBFFF0475820022759A76
:102A37000974FC5580FE74035F4EF580D2842084B0
:102A4700FD859F8222AF829001487401F08F82C07A
:102A5700071228ABD00790014AE0FDA3E0FE4D70B6
:102A67000A900149E4F08F820229B28D038E047423
:102A7700FF2C500B9001497401F08F820229B2EFAD
:102A870090350993FA24FB4034EA2A902A967380FA
:102A97002C8006800D8014801B53C6FB439D048D3C
:102AA7009C2253C6F7439D088D9B2243C604439D32
:102AB700048D9C2243C608439D088D9B22C3EB943B
:102AC70080EC9400500A900149E4F08F820229B209
:0B2AD7009001497401F08F820229B2C7
:102AE300AE82AF838F05BD800040012275A155756D
:102AF300A1AA43B10475A1007585C0ED2DF5848E9F
:102B03008EE58630E60375869A75A15575A1AA539D
:102B1300B1FB75A10022AF827585C0EF2FF58475D7
:102B2300868E858E8222C0D075D00808B8000D0924
:102B3300B900090ABA00050BBB00010CD0D032A2C0
:102B4300AFC2AFA808A909AA0AAB0BAC8A8588F063
:102B530092AF30F51274012C600D08B8000909B961
:102B630000050ABA00010BC3EC9406FCECC313FC8A
:102B730075F07DE8A4F8ADF075F07DE9A42DF9E4D6
:102B830035F0FD75F07DEAA42DFAE435F0FD75F01E
:102B93007DEBA42DFB7D00EC28F582E93DF583EA6E
:102BA3003DF5F0EB3D22A2AFC2AFA808A909AA0ADE
:102BB300AB0BAC0C92AF75F020E8A4A8F075F02035
:102BC300E9A428F582A8F075F020EAA428F583A8E3
:102BD300F075F020EBA428F9A8F075F020ECA428F8
:102BE30089F02285826A85836B85F06CF56D122BE3
:102BF3004285826E85836F85F070F571E56A456B5A
:102C0300456C456D700122A86AA96BAA6CAB6D85F2
:102C13006E72856F73857074857175E8494A4B6070
:102C2300DBC003C002C001C000122B42AC82AD83E3
:102C3300AEF0FFD000D001D002D003ECC39572FCFC
:102C4300ED9573FDEE9574FEEF9575FFC3EC94E877
:102C5300ED9403EE9400EF940040A118B8FF091916
:102C6300B9FF051ABAFF011B886A896B8A6C8B6DE1
:102C730074E82572F57274033573F573E43574F5EE
:102C830074E43575F57585726E85736F857470851B
:102C930075718087AE82AF83C374019EE49F400247
:102CA3002200C374029EFE74009FFF00BE0005BF96
:102CB30000020022000000000000000000000000ED
:102CC30000000000000EBE00EB0FBF00ED002275F8
:102CD300A15575A1AA74F855B94406F5B975A100B3
:102CE300901388122C97759E5D759D0074F055891D
:102CF3004402F58953C9EF758C06C28DD2A9D28CD3
:032D0300D2AF222A
:012D07003299
:012D09003297
:102D0B00AC82AD83AEF0FFEC4D4E4F60078C828DE5
:102D1B008302310822AC82AD83AEF0FFEC4D4E4FF7
:102D2B007007900000E4F5F022C007C006C005C094
:102D3B000412309CAA82AB83D004D005D006D007F6
:102D4B008A00EBF93395E0FAFB8C7A8D7B8E7C8FC6
:102D5B007D888289838AF0EB022EA3AC82AD83AE91
:102D6B00F0FF90014CE0F8A3E0F9A3E0FAA3E0FB3D
:102D7B00C3EC98ED99EE9AEF64808BF063F080953D
:102D8B00F040088C828D838EF0EF22E8C39CF8E92B
:102D9B009DF9EA9EFAEB9F888289838AF0C007C06F
:102DAB0006C005C004122D20A882A983AAF0FBD06F
:102DBB0004D005D006D007EC28FCED39FDEE3AFE29
:102DCB00EF3B8C828D838EF022AC82AD83AEF0FF15
:102DDB00900150E0F8A3E0F9A3E0FAA3E0FBECC309
:102DEB0098F516ED99F517EE9AF518EF9BF51990E6
:102DFB000158E0F51AA3E0F51BA3E0F51CA3E0F5E1
:102E0B001D90015CE0FCA3E0FDA3E0FEA3E0FFEC62
:102E1B00C3951AF57AED951BF57BEE951CF57CEFBA
:102E2B00951DF57D8516828517838518F0E519C0EC
:102E3B0003C002C001C0001231388582168583178A
:102E4B0085F018F519D000D001D002D003900154B1
:102E5B00E0FCA3E0FDA3E0FEA3E0FFECC398F57A52
:102E6B00ED99F57BEE9AF57CEF9BF57D85168285CA
:102E7B0017838518F0E519122F75AC82AD83AEF070
:102E8B00FFE51A2CFCE51B3DFDE51C3EFEE51D3F59
:072E9B008C828D838EF02272
:102EA300F9C2D530E715D2D5E4C39582F582E4950E
:102EB30083F583E495F0F5F0E499F9E57D30E715C2
:102EC300E4C3957AF57AE4957BF57BE4957CF57C10
:102ED300E4957DF57DE9122EF230D512E4C3958297
:102EE300F582E49583F583E495F0F5F0E49922F90E
:102EF300E57A457B457C457D60777800C308E57DB1
:102F030020E73BE57A25E0F57AE57B33F57BE57C45
:102F130033F57CE57D33F57DE582957AE583957B15
:102F2300E5F0957CE9957D50D4C3E57D13F57DE50A
:102F33007C13F57CE57B13F57BE57A13F57AE58263
:102F4300957AFCE583957BFDE5F0957CFEE9957D1F
:102F53004007F98EF08D838C82C3E57D13F57DE503
:102F63007C13F57CE57B13F57BE57A13F57AD8CEF4
:102F7300E922FBC2D530E715D2D5E4C39582F582A9
:102F8300E49583F583E495F0F5F0E49BFBE57D3070
:102F9300E717B2D5E4C3957AF57AE4957BF57BE43C
:102FA300957CF57CE4957DF57DEB122FC730D51329
:102FB300FBE4C39582F582E49583F583E495F0F50C
:102FC300F0E49B22FB7A20E4FCFDFEFFE5822582F0
:102FD300F582E58333F583E5F033F5F0EB33FB401E
:102FE30017DAE98042E5822582F582E58333F583AA
:102FF300E5F033F5F0EB33FBEC33FCED33FDEE336F
:10300300FEEF33FFEC957AED957BEE957CEF957DA6
:103013004013EC957AFCED957BFDEE957CFEEF95E8
:093023007DFF438201DABEEB22BD
:10302C0022AF82BF02005036EF75F002A424B9F52E
:10303C0082740235F0F583E57AF0E57BA3F0BF00EE
:10304C00028005BF0118800B900160E024FF92887C
:10305C00D2A822900160E0FF24FF928AD2AA22AF6C
:10306C0082BF02005028BF00028005BF0108800407
:10307C00C2A88002C2AAEF75F002A424B9FE7402A1
:0F308C0035F0FF8E828F83742CF07430A3F02206
:10309C00AC76AD77AE78AF798D00EEC313C813C89C
:1030AC00C313C813C8F9EF030354C049F9EF030362
:1030BC00543FFA7B00EC6200ED6201EE6202EF62BB
:1030CC0003E828FDE933FEEA33FF7C00E86204E9FB
:1030DC006205EA6206EB6207EFC313F8E4F9FAFB48
:1030EC00E86204E96205EA6206EB62078C768D778A
:1030FC008E788F798C82747F5DF58322AE82AF835C
:10310C007D007C008E768F778D7874804CF57922DB
:10311C0020F71430F6148883A88220F507E6A883DC
:10312C0075830022E280F7E49322E022AAF0FBE50B
:10313C0082857AF0A4FCADF0E583857AF0A42DFDB0
:10314C00E435F0FEE582857BF0A42DFDE5F03EFE36
:10315C00E433FFEA857AF0A42EFEE5F03FFFE58329
:10316C00857BF0A42EFEE5F03FFFE582857CF0A484
:10317C002EFEE5F03FFFEB857AF0A42FFFEA857B6E
:10318C00F0A42FFFE583857CF0A42FFFE582857DDD
:0A319C00F0A42F8EF08D838C8222A8
:1031A6009002BDE0FF7E008F828E83A3757A108E1B
:1031B6007B1232E7AE829002BEE0FFEEB507012237
:1031C6009002BDE02461F582E43401F583E599F0CF
:1031D6009002BDEEF0223004409002BFE0FF900264
:1031E600C0E0FEEFB50605A204C204229002C0E0CC
:1031F6002471F582E43401F583E0F5999002C0E08C
:10320600FF7E008F828E83A3757A108E7B1232E743
:0A321600AE82AF839002C0EEF022FA
:103220009002C1E0FF7E008F828E83A3757A108E9C
:103230007B1232E7AE829002C2E0FFEEB5070122B8
:103240009002C1E02481F582E43401F583E5C1F008
:103250009002C1EEF0223005409002C3E0FF9002E0
:10326000C4E0FEEFB50605A205C205229002C4E047
:103270002491F582E43401F583E0F5C19002C4E0C5
:10328000FF7E008F828E83A3757A108E7B1232E7C9
:0A329000AE82AF839002C4EEF0227C
:10329A00E57A457B60467A01E57A25E0F57AE57BB1
:1032AA00334012F57BE582957AE583957B40030AE4
:1032BA0080E6C3E57B13F57BE57A13F57AC3E582ED
:1032CA00957AF5F0E583957B4005F58385F082C311
:1032DA00E57B13F57BE57A13F57ADAE122C2D5E5C7
:1032EA008330E70DD2D5E4C39582F582E49583F560
:1032FA0083E57B30E70BE4C3957AF57AE4957BF5B1
:10330A007B12329A30D50BE4C39582F582E4958319
:03331A00F5832216
:05331D007635003100CF
:1033220000000000000000002A2B2800000000001E
:10333200000000000000000000000000000000008B
:103342002C9EB4A0A1A2A434A6A7A5AE362D3738D0
:10335200271E1F20212223242526B333B62EB7B8D9
:103362009F8485868788898A8B8C8D8E8F90919297
:10337200939495969798999A9B9C9D2F3130A3ADE3
:10338200350405060708090A0B0C0D0E0F10111261
:10339200131415161718191A1B1C1DAFB1B0B5005E
:1033A20012011001EF020108091250C501010102C8
:1033B20003011200090264000301008064080B008B
:1033C20002020201040904000001020201040524B0
:1033D2000010010524010000042402020524060055
:1033E200010705810308004009040100020A0000E8
:1033F200040705020240000007058202400000099E
:10340200040200010301010009211001210122959A
:10341200000705830310000A950005010906A101B2
:103422008501050719E029E71500250195087501B1
:10343200810295017508810395067508150026FF1E
:10344200000507190029E78100050819012905155A
:10345200002501950575019102950175039103C03F
:10346200050C0901A1018502150026FF0319002A96
:10347200FF03950475108100C005010902A101092D
:1034820001A10085030509190129031500250195EC
:103492000375018102950175058103050109300952
:1034A2003109381581257F750895038106C0C064EE
:1034B200000403090404000C0343004800350035EE
:1034C2000078000C0016032D005900750061006E93
:1034D200002D0033006B00650079001600170359B8
:1034E20000750061006E002D0053006500720069D6
:1034F2000061006C0018000E032D00590075006178
:07350200006E002D000E0019
:1035090000000000000000000000000000000001B1
:10351900000000000000000000000000000003049B
:103529000000020000000000010101010101010188
:103539000000020202020202020200000303030366
:103549000303030300000404040404040404000046
:103559000102040810204080000001020408102024
:103569004080000001020408102040800000010290
:103579000408102040800000FFFFFFFFFFFFFFFF4E
:10358900FFFFFF00FFFF0102FFFFFFFFFFFFFFFF3C
:10359900FFFFFFFFFFFFFFFF03FFFFFFFFFFFFFF2E
:1035A900FFFFFFFFFFFFFFFFFFFFFFFFFFFFFFFF22
:1035B900FFFFFFFFFFFFFFFFFFFFFFFFFFFFFFFF12
:1035C900FFFFFFFFFFFFFFFFFFFFFFFFFFFFFFFF02
:1035D900FFFFFFFFFFFFFFFFFFFFFFFFFFFFFFFFF2
:1035E900FFFFFFFFFFFFFFFFFFFFFFFFFFFFFFFFE2
:1035F900FFFFFFFFFFFFFFFFFFFFFFFFFFFFFFFFD2
:10360900FFFFFFFFFFFFFFFFFFFFFFFFFFFFFFFFC1
:10361900FFFFFFFFFFFFFFFFFFFFFFFFFFFFFFFFB1
:10362900FFFFFFFFFFFFFFFFFFFFFFFFFFFFFFFFA1
:10363900FFFFFFFFFFFFFFFFFFFFFFFFFFFFFFFF91
:10364900FFFFFFFFFFFFFFFFFFFFFFFFFFFFFFFF81
:10365900FFFFFFFFFFFFFFFFFFFFFFFFFFFFFFFF71
:10366900FFFFFFFFFFFFFFFFFFFFFFFFFFFFFFFF61
:10367900FFFFFFFFFFFFFFFFFFFFFFFFFFFFFFFF51
:10368900FFFFFFFFFFFFFFFFFFFFFFFFFFFFFFFF41
:05369900FFFFFFFFFF31
:0B369E0000E100000000080000000038
:1036A9000000000000000000000000000000000011
:0536B90000000000000C
:0136BE00000B
:0236BF00000009
:0436C1002C302C304D
:0436C5000000000001
:0436C90000000000FD
:00000001FF
