:0600000002006B022472F5
:03000B00022BDFE6
:030013000224C5FF
:01001B0032B2
:030023000223DADB
:03002B00022DBFE4
:01003300329A
:03003B0002251883
:0300430002239BFA
:01004B003282
:030053000224265E
:01005B003272
:03006300022DBDAE
:0300660002256C04
:02006900E4733E
:0D006B0075817D122577E582600302006635
:100078007942E94401601B7A0290365F78A175A045
:1000880001E493F2A308B8000205A0D9F4DAF275E6
:02009800A0FFC7
:06009A00E478FFF6D8FD3A
:1000A0007800E84400600A790A75A001E4F309D8F1
:1000B000FC7897E84400600C790190010AE4F0A311
:0400C000D8FCD9FA95
:1000C40075226C7523257524007525007526007529
:1000D40027007528FF7529FF752AFF752BFF752CDE
:1000E40002752D03752E02752F027530FF7531FFD1
:1000F4007532FF7533FF7534807535637536FF755A
:1001040037FF7538FF7539FF753AFF753BFF753C4E
:10011400FF753DFF753E80753F767540FF7541FF65
:100124007542FF75438775446C7545FF7546FF75C9
:0A01340047FF754801E4F549F54A5C
:02013E00C200FD
:0E0140007808E4F608F608F608F6780C760063
:0B014E00757601E4F577F5787579808F
:02015900C204DE
:02015B00C205DB
:03015D0002006637
:10016100758200122ADDAF827E007D007C008F82C5
:100171008E838DF0EC122DC1121945900148740245
:10018100F075820F1229619001487402F075821096
:100191001229619001487402F075820E122961756D
:1001A1008200122BCFAF82758201C007122BCFAE16
:1001B10082758202C006122BCFAD82758203C00503
:1001C100122BCFAC82758204C004122BCFAB827587
:1001D1008205C003122BCF85824B758206122BCF6D
:1001E10085824C758207122BCF85824D758208124C
:1001F1002BCFAA82D003D004D005D006D007BFFFF1
:100201000280028F28BEFF0280028E29BDFF02807C
:10021100028D2ABCFF0280028C2CBBFF0280028B64
:100221002D74FFB54B028003854B2E74FFB54C0234
:100231008003854C3074FFB54D028003854D31BA82
:10024100FF0280028A327E007F00C3EE941EEF64BB
:1002510080948040030202F58E0574092DF582C059
:1002610007C006122BCFAD82D006D007BDFF02809A
:100271000CEE24A1F582EF3401F583EDF08E0574C7
:10028100272DF582C007C006122BCFAD82D006D034
:1002910007BDFF02800CEE24BFF582EF3401F58328
:1002A100EDF08E0574452DF582C007C006122BCFE7
:1002B100AD82D006D007BDFF02800CEE24DDF582B1
:1002C100EF3401F583EDF08E0574752DF582C007CD
:1002D100C006122BCFAD82D006D007BDFF02800C25
:1002E100EE24FBF582EF3401F583EDF00EBE000143
:1002F1000F02024B7E007F00C3EE9405EF648094F1
:1003010080400302038B8E0574632DF582C007C004
:1003110006122BCFAD82D006D007BDFF028006EEBC
:100321002434F8A6058E0574682DF582C007C00631
:10033100122BCFAD82D006D007BDFF028006EE247E
:1003410039F8A6058E05746D2DF582C007C0061219
:100351002BCFAD82D006D007BDFF028006EE243E32
:10036100F8A6058E0574932DF582C007C006122BE1
:10037100CFAD82D006D007BDFF028006EE2443F840
:10038100A6050EBE00010F0202F9758272122BCF73
:10039100AF82BFFF0280028F2B758273122BCFAF0A
:1003A10082BFFF0280028F2F758274122BCFAF8222
:1003B100BFFF0280028F33758298122BCFAF82BFAD
:1003C100FF01228F48221218E6E58270030207C658
:1003D1001218EDAF82BF0A0280ECBF0D0280E7C3A5
:1003E100749A95497480854AF063F08095F05005C0
:1003F100E4F549F54AE549454A7003BF02C874016D
:10040100B5490614B54A0280030207ADBF03028055
:10041100030207AD9033D375F08012292890187C20
:10042100122695AB287C007D007E0090014574105A
:10043100F08B828C838DF0EE1228C390187C1226EB
:1004410095AB297C007D007E009001457410F08BF6
:10045100828C838DF0EE1228C390187C122695AB06
:100461002A7C007D007E009001457410F08B828C07
:10047100838DF0EE1228C390187C122695AB2C7C4C
:10048100007D007E009001467410F08B828C838D7C
:10049100F0EE12290390187C122695AB2D7C007D7D
:1004A100007E009001467410F08B828C838DF0EEFB
:1004B10012290390187C122695AB2E7C007D007EBC
:1004C100009001467410F08B828C838DF0EE12291E
:1004D1000390187C122695AB307C007D007E009045
:1004E10001457410F08B828C838DF0EE1228C3903D
:1004F100187C122695AB317C007D007E0090014571
:100501007410F08B828C838DF0EE1228C390187CCE
:10051100122695AB327C007D007E0090014574105F
:10052100F08B828C838DF0EE1228C390187C1226FA
:10053100957D007E00C3ED941EEE6480948050256D
:10054100ED24A1F582EE3401F583E0FCBCFF0280CD
:10055100148C82C006C00512187CD005D0060DBDD2
:1005610000D30E80D01228A790187C1226957D000A
:100571007E00C3ED941EEE648094805025ED24BF6F
:10058100F582EE3401F583E0FCBCFF0280148C821D
:10059100C006C00512187CD005D0060DBD00D30ED3
:1005A10080D01228A790187C1226957D007E00C36A
:1005B100ED941EEE648094805025ED24DDF582EEED
:1005C1003401F583E0FCBCFF0280148C82C006C0BC
:1005D1000512187CD005D0060DBD00D30E80D012B7
:1005E10028A790187C122695E4F54EF54FC3E54EE9
:1005F1009405E54F64809480502FE54E2434F987AB
:10060100048C027B007C007E009001457410F08A0E
:10061100828B838CF0EE1228C390187C12269505EC
:100621004EE4B54EC8054F80C4E4F550F551C3E51D
:10063100509405E55164809480502FE5502439F998
:1006410087048C027B007C007E009001457410F0D1
:100651008A828B838CF0EE1228C390187C12269527
:100661000550E4B550C8055180C4E4F552F553C3B3
:10067100E5529405E55364809480502FE552243E61
:10068100F987048C027B007C007E00900145741088
:10069100F08A828B838CF0EE1228C390187C12268C
:1006A100950552E4B552C8055380C4AB2B7C007D3F
:1006B100007E009001457410F08B828C838DF0EEEA
:1006C1001228C390187C122695AB2F7C007D007EEA
:1006D100009001467410F08B828C838DF0EE12290C
:1006E1000390187C122695AB337C007D007E009030
:1006F10001457410F08B828C838DF0EE1228C3902B
:10070100187C1226957D007E00C3ED941EEE648058
:1007110094805025ED24FBF582EE3401F583E0FC55
:10072100BCFF0280148C82C006C00512187CD00563
:10073100D0060DBD00D30E80D01228A790187C12D0
:100741002695E4F554F555C3E5549405E5556480C3
:100751009480502FE5542443F987048C027B007C5C
:10076100007E009001457410F08A828B838CF0EE3C
:100771001228C390187C1226950554E4B554C80577
:100781005580C4AB487C007D007E0090014674100A
:10079100F08B828C838DF0EE12290390187C122647
:1007A10095121864E4F549F54A0203C7E54924198D
:1007B100F582E54A3402F583EFF00549E4B54902D3
:1007C100054A0203C7749BB54906E4B54A02800392
:1007D100020998E4F549F54A900219E0FFBF0202C7
:1007E10080030209989002B3E0FFBF030280030275
:1007F100099890010F74D6F07433A3F07480A3F0BC
:1008010090187C1225D91218647E007F00C3EE94E3
:1008110099EF64809480502774012EFCE43FFDEC35
:100821002419F582ED3402F583E0F5828E83C0054B
:10083100C004122B99D004D0058C068D0780CE9070
:10084100021AE0F52890021BE0F52990021CE0F560
:100851002A90021DE0F52C90021EE0F52D90021F5A
:10086100E0F52E900220E0F530900221E0F5319084
:100871000222E0F5327E007F00C3EE941EEF648019
:100881009480400302090DEE24A1FCEF3401FD74B4
:100891000A2EFAE43FFBEA2419F582EB3402F583D0
:1008A100E08C828D83F0EE24BFFCEF3401FD7428CF
:1008B1002EFAE43FFBEA2419F582EB3402F583E0DA
:1008C1008C828D83F0EE24DDFCEF3401FD74462E25
:1008D100FAE43FFBEA2419F582EB3402F583E08C5C
:1008E100828D83F0EE24FBFCEF3401FD74762EFA49
:1008F100E43FFBEA2419F582EB3402F583E0FB8C3B
:10090100828D83F00EBE00010F02087A7E007F0007
:10091100C3EE9405EF648094805064EE2434F9743E
:10092100642EFCE43FFDEC2419F582ED3402F583DD
:10093100E0F7EE2439F974692EFCE43FFDEC24194B
:10094100F582ED3402F583E0F7EE243EF9746E2E64
:10095100FCE43FFDEC2419F582ED3402F583E0F768
:10096100EE2443F974942EFCE43FFDEC2419F58246
:10097100ED3402F583E0FDF70EBE00940F809190F7
:10098100028CE0F52B90028DE0F52F90028EE0F5C0
:10099100339002B2E0F54875820F122A18E582B44D
:1009A1000100E433FF758210C007122A18AE82D00D
:1009B10007EEB40100E433F55675820EC007122A22
:1009C10018AD82D007EDB40100E433F5577401B5D9
:1009D10048028003020E7DE5276003020DECEFB5AE
:1009E1002403020E80E556B52503020E80E557B5B6
:1009F1002603020E80EF7003020E80E5567003029B
:100A01000E80E5577003020E807527018F248556ED
:100A110025855726E52F700D852B82C007121A698F
:100A2100D007020E807401B52F3574FFB5330280F3
:100A31001CAC337B00AA2B7D00EA2BFBED3CFC8B2D
:100A4100828C83C007121BC3D007020E80AC2B7DA2
:100A5100008C828D83C007121BC3D007020E8074E5
:100A610002B52F357C007D00C3EC9405ED648094C4
:100A7100804003020E80EC2443F98703BBFF028010
:100A8100118B82C007C005C004121A69D004D005B9
:100A9100D0070CBC00D20D80CF7403B52F047401B4
:100AA1008001E4FD603C7B007C00C3EB941EEC64A0
:100AB1008094804003020E80EB24FBF582EC34012C
:100AC100F583E0FABAFF03020E808A82C007C004F0
:100AD100C003121C90D003D004D0070BBB00CB0C79
:100AE10080C8ED603C7C007D00C3EC941EED648009
:100AF10094804003020E80EC24FBF582ED3401F575
:100B010083E0FBBBFF03020E808B82C007C005C0E0
:100B110004121C90D004D005D0070CBC00CB0D8072
:100B2100C87404B52F51E533700D852B82C00712AF
:100B31001CD8D007020E807401B533028003020E67
:100B410080852B82C007121CD875820F122A18E5E6
:100B510082D007701C758210C007122A18E582D056
:100B610007700E75820EC007122A18E582D0076041
:100B7100D0752700020E807405B52F028003020C88
:100B81003B900014E4F5F0C007122DD6E58224F65F
:100B9100FA900014E4F5F0C002122DD6AB82D00217
:100BA100EB24F6F5108A82121CFF900064E4F5F044
:100BB100122C9C75820F122A18E582D007701C75C1
:100BC1008210C007122A18E582D007700E75820EB6
:100BD100C007122A18E582D00760A6900014E4F538
:100BE100F0C007122DD6E58224F6FB900014E4F53F
:100BF100F0C003122DD6AA82D003EA24F6F5108B99
:100C010082121CFF900064E4F5F0122C9C75820F97
:100C1100122A18E582D00770C2758210C007122A05
:100C210018E582D00770B475820EC007122A18E544
:100C310082D00770A6F527020E807406B52F6D7459
:100C410001B53317E52B24E1FEC3E49EF51075824F
:100C510000C007121CFFD007020E807402B53313C7
:100C6100E52B24E1F510758200C007121CFFD007A7
:100C7100020E807403B53317E52B24E1FEC3E49E15
:100C8100F582751000C007121CFFD007020E807498
:100C910004B533028003020E80E52B24E1F5827551
:100CA1001000C007121CFFD007020E807407B52F79
:100CB100028003020D557401B53316E52B24E1FEC4
:100CC100C3E49EF510758200C007121CFFD0078097
:100CD100477402B53312E52B24E1F510758200C08B
:100CE10007121CFFD00780307403B53316E52B249F
:100CF100E1FEC3E49EF582751000C007121CFFD00F
:100D01000780157404B53310E52B24E1F5827510C5
:100D110000C007121CFFD007900064E4F5F0C00783
:100D2100122C9C75820F122A18E582D007701F754C
:100D31008210C007122A18E582D007701175820E41
:100D4100C007122A18E582D0077003020CB7752775
:100D510000020E807408B52F2C7401B5330D852B5C
:100D610082C007121D1FD007020E807402B5330224
:100D71008003020E80C3E4952BF582C007121D1F6C
:100D8100D007020E807409B52F028003020E807411
:100D910001B5330C852B82C007121D1FD0078012AD
:100DA1007402B5330DC3E4952BF582C007121D1FE4
:100DB100D007900064E4F5F0C007122C9C75820FF7
:100DC100122A18E582D007701C758210C007122AFA
:100DD10018E582D007700E75820EC007122A18E539
:100DE10082D00760AA752700020E80EF600BE556DE
:100DF1006007E5576003020E808F248556258557CD
:100E010026E52F700C852B82C007121B2AD0078084
:100E1100667401B52F3174FFB533028019AE337D8D
:100E210000AB2B7C00EB2DFDEC3EFE8D828E83C052
:100E310007121C50D007AD2B7E008D828E83C00718
:100E4100121C50D00780307402B52F2B7D047E0018
:100E5100EE20E723ED2443F98704BCFF0280118CC7
:100E610082C007C006C005121B2AD005D006D007D4
:100E71001DBDFF011E80D97527008003752700E580
:100E810027600302179AEFB5240302118CEFF524B2
:100E91007003021126E52C7009852882121A690255
:100EA100118C7401B52C2A74FFB530028015AF3056
:100EB1007E00AC287D00EC2EFEED3FFF8E828F83FD
:100EC100121BC3AE287F008E828F83121BC30211B7
:100ED1008C7402B52C317E007F00C3EE9405EF6463
:100EE100809480400302118CEE2434F98705BDFF04
:100EF10002800D8D82C007C006121A69D006D00784
:100F01000EBE00D60F80D37403B52C387E007F004F
:100F1100C3EE941EEF64809480400302118CEE2492
:100F2100A1F582EF3401F583E0FDBDFF0302118CD1
:100F31008D82C007C006121C90D006D0070EBE00DD
:100F4100CF0F80CC7404B52C2AE530700985288236
:100F5100121CD802118C7401B53002800302118C6D
:100F6100852882121CD875820F122A18E58260F03A
:100F710002118C7405B52C0280028077900014E474
:100F8100F5F0122DD6E58224F6FC900014E4F5F07C
:100F9100C004122DD6AB82D004EB24F6F5108C825E
:100FA100121CFF900064E4F5F0122C9C75820F1264
:100FB1002A18E58260C6900014E4F5F0122DD6E5FA
:100FC1008224F6FC900014E4F5F0C004122DD6AB97
:100FD10082D004EB24F6F5108C82121CFF90006481
:100FE100E4F5F0122C9C75820F122A18E58270C666
:100FF10002118C7406B52C5D7401B53013E52824FB
:10100100E1FFC3E49FF510758200121CFF02118CF1
:101011007402B5300FE52824E1F510758200121C29
:10102100FF02118C7403B53013E52824E1FFC3E4FA
:101031009FF582751000121CFF02118C7404B530EB
:1010410002800302118CE52824E1F582751000125B
:101051001CFF02118C7407B52C687401B53012E5C0
:101061002824E1FFC3E49FF510758200121CFF8064
:101071003B7402B5300EE52824E1F51075820012AB
:101081001CFF80287403B53012E52824E1FFC3E476
:101091009FF582751000121CFF80117404B5300C8D
:1010A100E52824E1F582751000121CFF900064E42C
:1010B100F5F0122C9C75820F122A18E582609B02B2
:1010C100118C7408B52C247401B53009852882125D
:1010D1001D1F02118C7402B53002800302118CC3F2
:1010E100E49528F582121D1F02118C7409B52C029A
:1010F100800302118C7401B53008852882121D1FEE
:10110100800E7402B53009C3E49528F582121D1FC3
:10111100900064E4F5F0122C9C75820F122A18E5F8
:101121008260D28066E52C7008852882121B2A8095
:101131005A7401B52C2974FFB530028015AF307E89
:1011410000AC287D00EC2EFEED3FFF8E828F8312D6
:101151001C50AE287F008E828F83121C50802C740D
:1011610002B52C277E047F00EF20E71FEE2434F91F
:101171008705BDFF02800D8D82C007C006121B2AA4
:10118100D006D0071EBEFF011F80DDE556B5250341
:10119100021493E556F525700302142DE52D70090F
:1011A100852982121A690214937401B52D2A74FFDC
:1011B100B531028015AF317E00AC297D00EC2EFEE9
:1011C100ED3FFF8E828F83121BC3AE297F008E827B
:1011D1008F83121BC30214937402B52D317E007FDD
:1011E10000C3EE9405EF648094804003021493EEF3
:1011F1002439F98705BDFF02800D8D82C007C00625
:10120100121A69D006D0070EBE00D60F80D3740320
:10121100B52D387E007F00C3EE941EEF648094806C
:101221004003021493EE24BFF582EF3401F583E00D
:10123100FDBDFF030214938D82C007C006121C90EE
:10124100D006D0070EBE00CF0F80CC7404B52D2A76
:10125100E5317009852982121CD80214937401B5F5
:1012610031028003021493852982121CD8758210E1
:10127100122A18E58260F00214937405B52D0280DC
:10128100028077900014E4F5F0122DD6E58224F661
:10129100FC900014E4F5F0C004122DD6AB82D0040A
:1012A100EB24F6F5108C82121CFF900064E4F5F03B
:1012B100122C9C758210122A18E58260C6900014C7
:1012C100E4F5F0122DD6E58224F6FC900014E4F545
:1012D100F0C004122DD6AB82D004EB24F6F5108CAD
:1012E10082121CFF900064E4F5F0122C9C758210B0
:1012F100122A18E58270C60214937406B52D5D7426
:1013010001B53113E52924E1FFC3E49FF51075828E
:1013110000121CFF0214937402B5310FE52924E178
:10132100F510758200121CFF0214937403B531137A
:10133100E52924E1FFC3E49FF582751000121CFF2B
:101341000214937404B531028003021493E5292435
:10135100E1F582751000121CFF0214937407B52D7C
:10136100687401B53112E52924E1FFC3E49FF5104A
:10137100758200121CFF803B7402B5310EE52924F1
:10138100E1F510758200121CFF80287403B531123B
:10139100E52924E1FFC3E49FF582751000121CFFCB
:1013A10080117404B5310CE52924E1F58275100032
:1013B100121CFF900064E4F5F0122C9C758210124F
:1013C1002A18E582609B0214937408B52D247401D8
:1013D100B53109852982121D1F0214937402B5319A
:1013E100028003021493C3E49529F582121D1F02A2
:1013F10014937409B52D0280030214937401B5315D
:1014010008852982121D1F800E7402B53109C3E4BB
:101411009529F582121D1F900064E4F5F0122C9CB1
:10142100758210122A18E58260D28066E52D700857
:10143100852982121B2A805A7401B52D2974FFB5A2
:1014410031028015AF317E00AC297D00EC2EFEED1E
:101451003FFF8E828F83121C50AE297F008E828FB8
:1014610083121C50802C7402B52D277E047F00EF5F
:1014710020E71FEE2439F98705BDFF02800D8D821B
:10148100C007C006121B2AD006D0071EBEFF011FCF
:1014910080DDE557B5260302179AE557F526700357
:1014A100021734E52E7009852A82121A6902179AE9
:1014B1007401B52E2A74FFB532028015AF327E0059
:1014C100AC2A7D00EC2EFEED3FFF8E828F83121B36
:1014D100C3AE2A7F008E828F83121BC302179A74B8
:1014E10002B52E317E007F00C3EE9405EF64809437
:1014F10080400302179AEE243EF98705BDFF028062
:101501000D8D82C007C006121A69D006D0070EBE23
:1015110000D60F80D37403B52E387E007F00C3EE52
:10152100941EEF64809480400302179AEE24DDF547
:1015310082EF3401F583E0FDBDFF0302179A8D822E
:10154100C007C006121C90D006D0070EBE00CF0FF8
:1015510080CC7404B52E2AE5327009852A82121CCA
:10156100D802179A7401B53202800302179A852AAC
:1015710082121CD875820E122A18E58260F00217B9
:101581009A7405B52E0280028077900014E4F5F07C
:10159100122DD6E58224F6FC900014E4F5F0C00487
:1015A100122DD6AB82D004EB24F6F5108C82121CDE
:1015B100FF900064E4F5F0122C9C75820E122A183B
:1015C100E58260C6900014E4F5F0122DD6E5822480
:1015D100F6FC900014E4F5F0C004122DD6AB82D0D5
:1015E10004EB24F6F5108C82121CFF900064E4F5E4
:1015F100F0122C9C75820E122A18E58270C6021711
:101601009A7406B52E5D7401B53213E52A24E1FF03
:10161100C3E49FF510758200121CFF02179A740231
:10162100B5320FE52A24E1F510758200121CFF0284
:10163100179A7403B53213E52A24E1FFC3E49FF539
:1016410082751000121CFF02179A7404B5320280D1
:101651000302179AE52A24E1F582751000121CFF96
:1016610002179A7407B52E687401B53212E52A245F
:10167100E1FFC3E49FF510758200121CFF803B74EB
:1016810002B5320EE52A24E1F510758200121CFF25
:1016910080287403B53212E52A24E1FFC3E49FF5E3
:1016A10082751000121CFF80117404B5320CE52AFA
:1016B10024E1F582751000121CFF900064E4F5F03E
:1016C100122C9C75820E122A18E582609B02179AD1
:1016D1007408B52E247401B53209852A82121D1FA2
:1016E10002179A7402B53202800302179AC3E49575
:1016F1002AF582121D1F02179A7409B52E02800362
:1017010002179A7401B53208852A82121D1F800EB4
:101711007402B53209C3E4952AF582121D1F9000A7
:1017210064E4F5F0122C9C75820E122A18E5826091
:10173100D28066E52E7008852A82121B2A805A748F
:1017410001B52E2974FFB532028015AF327E00AC8F
:101751002A7D00EC2EFEED3FFF8E828F83121C50FE
:10176100AE2A7F008E828F83121C50802C7402B5AA
:101771002E277E047F00EF20E71FEE243EF9870528
:10178100BDFF02800D8D82C007C006121B2AD00644
:10179100D0071EBEFF011F80DD900032E4F5F0028C
:0217A1002C9C7E
:1017A3009002BBE4F0C200227F00C3E5DB94079202
:1017B3000140067D077E008004ADDB7E008F037C45
:1017C30000C3EB9DEC64808EF063F08095F05017BE
:1017D300EF24B4FDE43402FE8F82758300E0FC8DB8
:1017E300828E83F00F80C3227F008F057E00C3EDBE
:1017F3009407EE940050188F057E00EF24B4F58211
:10180300E43402F583E0FC8D828E83F00F80DB905D
:10181300000722900002E0FF9002BDF0E020E030DC
:101823009002B4E0FCA3E0FDA3E0FEA3E0FFBCB0A4
:101833001FBD041CBE0019BF001675E200C2AF90A5
:10184300C350122D4D90C350122D4D12380080FEFF
:1018530022757A009002BDE06003757A01857A8271
:10186300222000149002BEE0FFE0600C8FD553D419
:10187300FCD2009002BEE4F022AF829002BDE06091
:101883005E7D007E003000240DBD00010E9000053A
:10189300C007C006C005122D4DD005D006D007C322
:1018A300ED9450EE94C340DD758200229002BEE0B9
:1018B300FEBE400050207D0074402EFEE43DFDEE50
:1018C3002414F582ED3400F583EFF09002BEE0249A
:1018D30001F075820122C007121864D00780A27537
:1018E3008200229002BBE0F582229002BBE07003EB
:1018F300F582229002BCE02414F582E43400F583DF
:10190300E0FF9002BCE004F09002BBE014F0E07052
:101913000353D4F38F822275D50074FC55D444024B
:10192300F5D4C2002230DE199002BBE5DBF0900251
:10193300BCE4F09002BBE0600874F355D44408F5AE
:10194300D42212233712236112235075DD0075D37D
:081953000075D50075D70022D4
:10195B0075D70074FC55D64402F5D69002BFE4F05F
:10196B0022AE82AF8390010AE07003F582227C00E5
:10197B007D009002BFE060280CBC00010D900005BB
:10198B00C007C006C005C004122D4DD004D005D031
:10199B0006D007C3EC9450ED94C340D67582002259
:1019AB008E059000E0EDF0BE0137BF00347D00BD29
:1019BB00080050278D037C0074412BFBE43CFCEBAF
:1019CB0024A0FBEC3400FCED24C0F582E43402F5DA
:1019DB0083E0FA8B828C83F00D80D475D709021AC1
:1019EB005CBE0236BF00337D00BD080050278D035F
:1019FB007C0074412BFBE43CFCEB24A0FBEC34009F
:101A0B00FCED24C8F582E43402F583E0FA8B828C7A
:101A1B0083F00D80D475D7098037BE0334BF0031F6
:101A2B007F00BF040050278F057E0074412DFDE41D
:101A3B003EFEED24A0FDEE3400FEEF24D0F582E453
:101A4B003402F583E0FC8D828E83F00F80D475D742
:101A5B00059002BF7401F053D6FC75820122AF8250
:101A6B00BF880040088F06EE2478FE8042BF8000BE
:101A7B0040239002C0E0FD8F04EC2480F5F005F0CC
:101A8B007401800225E0D5F0FBFC42059002C0ED0D
:101A9B00F07E00801AEF9033D893FE7003F582220C
:101AAB00EE30E70B9002C0E04402FFF053067F904C
:101ABB0002C2E0FFB50602805C9002C3E0FFB506F0
:101ACB000280529002C4E0FFB5060280489002C526
:101ADB00E0FFB50602803E9002C6E0FFB50602802D
:101AEB00349002C7E0FFB50602802A7F027D02ED2B
:101AFB0024C0FBE43402FC8B828C83E070088B8265
:101B0B008C83EEF080080D8D07BD080040E1BF0807
:101B1B00047582002290000112196C75820122AFAC
:101B2B0082BF880040088F06EE2478FE8043BF807A
:101B3B000040249002C0E0FD8F04EC2480F5F005FA
:101B4B00F07401800225E0D5F0FBF4FC5205900205
:101B5B00C0EDF07E00801AEF9033D893FE7003F542
:101B6B008222EE30E70B9002C0E054FDFFF05306EB
:101B7B007F7F02EE6016EF24C0FCE43402FD8C8202
:101B8B008D83E0B506068C828D83E4F00FBF0800D1
:101B9B0040E190000112196C758201227F00BF0891
:101BAB0000500FEF24C0F582E43402F583E4F00F0C
:101BBB0080EC90000102196CAE82AF839002C8E0FA
:101BCB00FCA3E0FDECB50606EDB50702806D9002B7
:101BDB00CAE0FCA3E0FDECB50606EDB50702805BA1
:101BEB009002CCE0FCA3E0FDECB50606EDB50702D8
:101BFB0080499002CEE0FCA3E0FDECB50606EDB506
:101C0B00070280377D007C00EC75F002A424C8FA33
:101C1B00740235F0FB8A828B83E0F8A3E0F94870FD
:101C2B000B8A828B83EEF0EFA3F080080C8C05BC43
:101C3B00040040D4BD0404758200229000021219E6
:101C4B006C75820122AE82AF837D00EE4F6026ED74
:101C5B0075F002A424C8FB740235F0FC8B828C83D4
:101C6B00E0F9A3E0FAE9B5060CEAB507088B828C1C
:101C7B0083E4F0A3F00DBD040040D09000021219D4
:101C8B006C75820122AF82C007121A69AE82D0072F
:101C9B008F82C006121B2AD0068E8222AF82900240
:101CAB00D0E042079002D0EFF090000312196C7550
:101CBB00820122AF829002D0E0FEEFF45206900236
:101CCB00D0EEF090000312196C75820122AF829056
:101CDB0002D1E4F09002D2F09002D3F08F82C007D1
:101CEB00121CA7902710122D4DD0078F82121CBEED
:101CFB0075820122AF829002D1EFF09002D2E510F3
:101D0B00F09002D0E4F09002D3F090000312196C23
:101D1B0075820122AF829002D3EFF09002D0E4F0F3
:101D2B009002D1F09002D2F090000312196C7582E0
:021D3B00012283
:101D3D00AFDBBF08028003022190900007E0FE7F19
:101D4D0000900006E0FD7C004FF511EC4EF5127F82
:101D5D0000900001E0F513900000E0FE5460605328
:101D6D00900000E0FE5306607D00BE2005BD000220
:101D7D00800BBE4039BD00367FFF0221927420B525
:101D8D0013030221927421B5130280077422B51337
:101D9D0018800C1217EBAD82AE838D07022192C015
:101DAD0007121816D0070221927FFF0221927FFFA2
:101DBD00022192E51324F4500302218CE513240B28
:101DCD0083F582E513241083F583E4736E9C8C5C9C
:101DDD008C66F18C73909292211F2120211F1D2161
:101DED001F1F2121900003E0FEBE01028013BE02E1
:101DFD00028023BE03028033BE2203021ED8021EC0
:101E0D00F675145875153490346AE493FD74019386
:101E1D00FE8D07021EF875146C751534903567E448
:101E2D0093FD740193FE8D07021EF8900002E07081
:101E3D001575146975153590356DE493FD74019321
:101E4D00FE8D07021EF8900002E0FEBE011575140E
:101E5D00AF7515359035BDE493FD740193FE8D0777
:101E6D00021EF8900002E0FEBE021475147D751579
:101E7D0035903593E493FD740193FE8D07806C903E
:101E8D000002E0FEBE031475146F75153590357B99
:101E9D00E493FD740193FE8D078050900002E0FEE7
:101EAD00BE04147514957515359035ADE493FD7418
:101EBD000193FE8D07803475146F75153590357B44
:101ECD00E493FD740193FE8D078020900002E07075
:101EDD00147514D27515349034D0E493FD740193B8
:101EED00FE8D0780067FFF80027FFFBFFF0302216B
:101EFD00928F057E00C3ED9511EE951250048D1154
:101F0D008E12AD11AE12C3ED9408EE940092024004
:101F1D00067B087C008004AB11AC128B077C00C3E0
:101F2D00EC9F50198C027B00EC2514F582E43515DD
:101F3D00F583E493F98A828B83F00C80E28F037C26
:101F4D0000EDC39BFDEE9CFE8D118E12EF2514F559
:101F5D0014E43515F515022192900002E0FE8E1164
:101F6D0075120002219290010AE0900000F0AD116F
:101F7D00AE12C3ED9401EE940050030221927F0145
:101F8D00022192900002E0FE90010AF0022192904F
:101F9D000000E0541F702F900003E0FD7E009000C4
:101FAD0002E0FC7B004206EB4205BE0114BD0011B0
:101FBD00903473E493FE30E5030221927FFF0221FA
:101FCD00927FFF022192900000E0FE53061F7D00DC
:101FDD00BE0277BD0074900004E0FEBE0102805F7A
:101FED00BE02028049BE03028033BE0402801DBEC4
:101FFD0081028040BE8202802ABE83028014BE848C
:10200D004474BC55DE4402F5DE02219253DE7302A8
:10201D00219274BC55D64402F5D602219253D67343
:10202D0002219274BC55D44402F5D402219253D4AA
:10203D007302219274BC55D24402F5D202219253FF
:10204D00D2730221927FFF0221927FFF0221929093
:10205D000000E0541F702F900003E0FD7E00900003
:10206D0002E0FC7B004206EB4205BE0114BD0011EF
:10207D00903473E493FE30E5030221927FFF022139
:10208D00927FFF022192900000E0FE53061F7D001B
:10209D00BE0205BD0002800302216A900003E0FD2F
:1020AD007E00900002E0FC7B004206EB4205EE4D07
:1020BD006003022166900005E0FD7E00900004E0C3
:1020CD00FC7B004206EB4205BE0106BD000302216A
:1020DD005ABE0205BD00028060BE0305BD00028030
:1020ED0044BE0405BD00028028BE8105BD000280EE
:1020FD0052BE8205BD00028036BE8305BD00028042
:10210D001ABE8451BD004E74BF55DE4403F5DE800A
:10211D0074747F55DE440CF5DE806A74BF55D64469
:10212D0003F5D68060747F55D6440CF5D680567471
:10213D00BF55D44403F5D4804C747F55D4440CF56D
:10214D00D4804274BF55D24403F5D28038747F5584
:10215D00D2440CF5D27FFF802C7FFF80287FFF803B
:10216D0024900000E4F0900001F0AD11AE12C3ED2B
:10217D009402EE940040047F02800AAF1180067F26
:10218D00FF80027FFFBFFF077513FF75DCCF22EFC6
:10219D0024F740068FDD75DCC02275DD0075DCC0CF
:1021AD00227405B51302805D7406B51366AE11AFCA
:1021BD0012C3EE9408EF9400920340067C087D0054
:1021CD008004AC11AD127D00C3ED9C50198D027BC6
:1021DD0000ED2514F582E43515F583E493F98A8233
:1021ED008B83F00D80E28C037D00EEC39BFEEF9D93
:1021FD00FF8E118F12EC2514F514E43515F5158CA1
:10220D00DD63DC4022E5E35480FFE5114FF5E37516
:10221D00DC022275DD0075DC02227420B5130D3051
:10222D00DE101217AB75DD0085DCDC2275DD004399
:10223D00DC022275D30074FC55D24402F5D22290F3
:10224D0002D47401F075D30853D2FC75820122209B
:10225D00D90302230DE5D9540FFFADD95305307EB7
:10226D0000BD0005BE0002801CBD1005BE00028031
:10227D0037BD2005BE00028044BD3006BE000302FE
:10228D0022F302230BEF24FB500302230BEF2F90BD
:10229D0022A07380088067800A80638061122227E4
:1022AD0002230B1219288056EF24FB4051EF2F907B
:1022BD0022C07380498047804580438041EF24FBD5
:1022CD00403CEF2F9022D5738008800B800E80113B
:1022DD00802C1221AE8027122240802212191A80E2
:1022ED001D12195B8018EF24FB4013EF2F9022FE77
:1022FD007380088009800780058003121D3DC2D9B7
:10230D0030D81A75DC0275D21275D41275E300C27D
:10231D00DAC2D9C2D890010AE4F01217A310DA017B
:10232D0022E5DA20E20375D8FF2275E20053E27F41
:10233D0043E22975E30053E2BF53D1FB75D18043CE
:10234D00D1012243E10443E10243E10143D81FD20D
:10235D00EAD2AF227E007F008EEC8FED7E0A7F00E9
:10236D008EEE8FEF7E147F008EE48FE57EA07F00D2
:10237D008EE68FE775EB0C43EB4043EB8075D21285
:0D238D0075D41275D61275EA4075DC022277
:10239B00C021C0E0C0F0C082C083C007C006C0052A
:1023AB00C004C003C002C001C000C0D075D0001271
:1023BB00225CD0D0D000D001D002D003D004D00505
:1023CB00D006D007D083D082D0F0D0E0D02132C05D
:1023DB0021C0E0C0F0C082C083C007C006C005C0EA
:1023EB0004C003C002C001C000C0D075D00030983B
:1023FB000512325CC298309905123292C299D0D034
:10240B00D000D001D002D003D004D005D006D00725
:10241B00D083D082D0F0D0E0D02132C021C0E0C038
:10242B00F0C082C083C007C006C005C004C003C093
:10243B0002C001C000C0D075D00030C0051232D62A
:10244B00C2C030C10512330CC2C1D0D0D000D001F4
:10245B00D002D003D004D005D006D007D083D082D1
:10246B00D0F0D0E0D02132C021C0E0C0F0C082C09B
:10247B0083C007C006C005C004C003C002C001C0B2
:10248B0000C0D075D0009002D7E0FEA3E0FFC007DC
:10249B00C0068E828F83120069D006D007D0D0D0B1
:1024AB0000D001D002D003D004D005D006D007D085
:1024BB0083D082D0F0D0E0D02132C021C0E0C0F078
:1024CB00C082C083C007C006C005C004C003C002E1
:1024DB00C001C000C0D075D0009002D9E0FEA3E0CF
:1024EB00FFC007C0068E828F83120069D006D0070B
:1024FB00D0D0D000D001D002D003D004D005D0066C
:10250B00D007D083D082D0F0D0E0D02132C021C010
:10251B00E0C0F0C082C083C007C006C005C004C0C5
:10252B0003C002C001C000C0D075D0009002D5E03E
:10253B00FEA3E04E600E9002D5E0F8A3E0F5838891
:10254B0082120069D0D0D000D001D002D003D004C9
:10255B00D005D006D007D083D082D0F0D0E0D021E8
:10256B0032122D881201611203C780FB7582002283
:10257B00AE82AF8390010BE0FBA3E0FCA3E0FD7AFE
:10258B000090010EE0F9890019E8603F8B828C8383
:10259B008DF01231D2F8A3AB82AC83C007C006C05A
:1025AB0005C004C003C002C0011225B98007C006D4
:1025BB00C007888222A882D001D002D003D004D0D9
:1025CB0005D006D007E860030A80BB8A8222AE8260
:1025DB00AF8390010FE0FBA3E0FCA3E0FD90010FA4
:1025EB00E0F5F0A3E045F07003F582227A008B82D0
:1025FB008C838DF01231D2F9A3AB82AC83E9F860F6
:10260B002CC007C006C005C004C003C00212261DA3
:10261B008007C006C007888222A982D002D003D0CF
:10262B0004D005D006D007E960030A80C18A822254
:10263B00AE82AF83900112E0FAA3E0FBA3E0FCA310
:10264B00E0FD90011AEAF0EBA3F0ECA3F0EDA3F0A0
:10265B0090011E740AF08E828F830226CCAE82AF5D
:10266B0083900116E0FAA3E0FBA3E0FCA3E0FD904E
:10267B000140EAF0EBA3F0ECA3F0EDA3F0900144E2
:10268B00740AF08E828F830227B1AE82AF83C007AC
:10269B00C0061226A28008C006C00775820D22ADA7
:1026AB0082D006D007C007C0051226B98008C00625
:1026BB00C00775820A22AE82D005D007EE2DF582B7
:1026CB002285825885835990013FE4F090011EE0EA
:1026DB00FDBD0200500690011E740AF090011EE031
:1026EB00F55A7B3F7C0190011AE0F55BA3E0F55CAA
:1026FB00A3E0F55DA3E0F55E855A5F75600075613B
:10270B0000756200855F7A85607B85617C85627D63
:10271B00855B82855C83855DF0E55EC004C003123A
:10272B002FA8A882855F7A85607B85617C85627D19
:10273B00855B82855C83855DF0E55EC00012307D34
:10274B00AA82AD83AEF0FFD000D003D00490011A63
:10275B00EAF0EDA3F0EEA3F0EFA3F01BBBFF011C1F
:10276B008B068C07B80A005008880574302DFD8045
:10277B0004743728FD8E828F83EDF090011AE0F5FB
:10278B00F0A3E042F0A3E042F0A3E045F0600302C7
:10279B0026F190010FEBF0ECA3F0E4A3F085588247
:1027AB008559830225D9858263858364900144E032
:1027BB00FD7019900140E0F9A3E0FAA3E0FBA3E060
:1027CB00FC0227CFC063C06489822222BD0A02802B
:1027DB000302287C900140E0F9A3E0FAA3E0FBA3FD
:1027EB00E0FC30E76FC004C003C002C0011227FD3C
:1027FB008008C063C06475822D22A882D001D002EC
:10280B00D003D0048865900140C3E499F0E49AA307
:10281B00F0E49BA3F0E49CA3F0900140E0F566A3E9
:10282B00E0F567A3E0F568A3E0F56990011AE566AA
:10283B00F0E567A3F0E568A3F0E569A3F090011E4E
:10284B00740AF08563828564831226CCAF82E565BA
:10285B002FF5822290011AE9F0EAA3F0EBA3F0EC3A
:10286B00A3F090011E740AF08563828564830226AF
:10287B00CC900140E0FBA3E0FCA3E0FEA3E0FF90C3
:10288B00011AEBF0ECA3F0EEA3F0EFA3F090011E16
:0B289B00EDF08563828564830226CC8B
:1028A70022AC82AD83AEF0FF900116ECF0EDA3F001
:1028B700EEA3F0EFA3F090187C022668AC82AD83FC
:1028C700AEF0FF900145E0FB900140ECF0EDA3F086
:1028D700EEA3F0EFA3F0900144EBF090187C0227F1
:1028E700B1AC82AD83AEF0FF900112ECF0EDA3F036
:1028F700EEA3F0EFA3F090187C02263BAC82AD83E9
:10290700AEF0FF900146E0FB900140ECF0EDA3F044
:10291700EEA3F0EFA3F0900144EBF090187C0227B0
:10292700B1AD82AE83AFF090010FEDF0EEA3F0EF03
:10293700A3F090187C0225D9AD82AE83AFF0900149
:1029470047E0FC90010BEDF0EEA3F0EFA3F0900150
:092957000EECF090187C02257BC7
:10296100E582FF90360F93FEEF9035E793FF7001FC
:1029710022900148E0FD701BBF0209EEF4FC529267
:10298100EC529322BF0402800122EEF4FC5296EC39
:10299100529722BD0214BF0207EE4292EE429322E9
:1029A100BF0439EE4296EE429722BD0116BF0208DE
:1029B100EEF45292EE429322BF0421EEF45296EECF
:1029C100429722BD0316BF0208EE4292EEF45293E3
:1029D10022BF0408EE4296EEF4FE529722AF82BF68
:1029E1000102800FBF02028013BF03028017BF04E0
:1029F10025801BE5C620E21E539DFB22E5C620E390
:102A010015539DF722E5C630E20C539DFB22E5C626
:102A110030E303539DF722E582FF9035BF93FEEF2C
:102A210090360F93FDEF9035E793FF7003F5822207
:102A3100EE600D8E82C007C0051229DED005D007D9
:102A41007E00BF0202800ABF03028009BF040C801E
:102A510008AE908006AEA08002AEB0ED5E60047557
:102A610082012275820022E582FF9035BF93FEEF3D
:102A710090360F93FDEF9035E793FFEE600D8E8258
:102A8100C007C0051229DED005D007A2AFE433FE8E
:102A9100C2AFBF0202800ABF03028017BF043680A3
:102AA10024900149E07007EDF4FF52908027ED4238
:102AB100908022900149E07007EDF4FF52A080154B
:102AC100ED42A08010900149E07007EDF4FF52B093
:0B2AD1008003ED42B0EE6002D2AF22A5
:102ADD00E58290363793FFBFFF0475820022759A09
:102AED000974FC5580FE74035F4EF580D2842084FA
:102AFD00FD859F8222AF829001487401F08F82C0C4
:102B0D0007122961D00790014AE0FDA3E0FE4D7048
:102B1D000A900149E4F08F82022A688D038E0474B5
:102B2D00FF2C500B9001497401F08F82022A68EF3F
:102B3D009035BF93FA24FB4034EA2A902B4C7380D6
:102B4D002C8006800D8014801B53C6FB439D048D85
:102B5D009C2253C6F7439D088D9B2243C604439D7B
:102B6D00048D9C2243C608439D088D9B22C3EB9484
:102B7D0080EC9400500A900149E4F08F82022A689B
:0B2B8D009001497401F08F82022A6859
:102B9900AE82AF838F05BD800040012275A15575B6
:102BA900A1AA43B10475A1007585C0ED2DF5848EE8
:102BB9008EE58630E60375869A75A15575A1AA53E7
:102BC900B1FB75A10022AF827585C0EF2FF5847521
:102BD900868E858E8222C0D075D00808B8000D096E
:102BE900B900090ABA00050BBB00010CD0D032A20A
:102BF900AFC2AFA808A909AA0AAB0BAC8A8588F0AD
:102C090092AF30F51274012C600D08B8000909B9AA
:102C190000050ABA00010BC3EC9406FCECC313FCD3
:102C290075F07DE8A4F8ADF075F07DE9A42DF9E41F
:102C390035F0FD75F07DEAA42DFAE435F0FD75F067
:102C49007DEBA42DFB7D00EC28F582E93DF583EAB7
:102C59003DF5F0EB3D22A2AFC2AFA808A909AA0A27
:102C6900AB0BAC0C92AF75F020E8A4A8F075F0207E
:102C7900E9A428F582A8F075F020EAA428F583A82C
:102C8900F075F020EBA428F9A8F075F020ECA42841
:102C990089F02285826A85836B85F06CF56D122B2C
:102CA900F885826E85836F85F070F571E56A456BED
:102CB900456C456D700122A86AA96BAA6CAB6D853C
:102CC9006E72856F73857074857175E8494A4B60BA
:102CD900DBC003C002C001C000122BF8AC82AD8377
:102CE900AEF0FFD000D001D002D003ECC39572FC46
:102CF900ED9573FDEE9574FEEF9575FFC3EC94E8C1
:102D0900ED9403EE9400EF940040A118B8FF09195F
:102D1900B9FF051ABAFF011B886A896B8A6C8B6D2A
:102D290074E82572F57274033573F573E43574F537
:102D390074E43575F57585726E85736F8574708564
:102D490075718087AE82AF83C374019EE49F400290
:102D59002200C374029EFE74009FFF00BE0005BFDF
:102D69000002002200000000000000000000000036
:102D790000000000000EBE00EB0FBF00ED00227541
:102D8900A15575A1AA74F855B94406F5B975A100FC
:102D9900901388122D4D759E5D759D0074F05589AF
:102DA9004402F58953C9EF758C06C28DD2A9D28C1C
:032DB900D2AF2274
:012DBD0032E3
:012DBF0032E1
:102DC100AC82AD83AEF0FFEC4D4E4F60078C828D2F
:102DD100830231BE22AC82AD83AEF0FFEC4D4E4F8B
:102DE1007007900000E4F5F022C007C006C005C0DE
:102DF10004123152AA82AB83D004D005D006D00789
:102E01008A00EBF93395E0FAFB8C7A8D7B8E7C8F0F
:102E11007D888289838AF0EB022F59AC82AD83AE23
:102E2100F0FF90014CE0F8A3E0F9A3E0FAA3E0FB86
:102E3100C3EC98ED99EE9AEF64808BF063F0809586
:102E4100F040088C828D838EF0EF22E8C39CF8E974
:102E51009DF9EA9EFAEB9F888289838AF0C007C0B8
:102E610006C005C004122DD6A882A983AAF0FBD002
:102E710004D005D006D007EC28FCED39FDEE3AFE72
:102E8100EF3B8C828D838EF022AC82AD83AEF0FF5E
:102E9100900150E0F8A3E0F9A3E0FAA3E0FBECC352
:102EA10098F516ED99F517EE9AF518EF9BF519902F
:102EB1000158E0F51AA3E0F51BA3E0F51CA3E0F52A
:102EC1001D90015CE0FCA3E0FDA3E0FEA3E0FFECAC
:102ED100C3951AF57AED951BF57BEE951CF57CEF04
:102EE100951DF57D8516828517838518F0E519C036
:102EF10003C002C001C0001231EE8582168583171E
:102F010085F018F519D000D001D002D003900154FA
:102F1100E0FCA3E0FDA3E0FEA3E0FFECC398F57A9B
:102F2100ED99F57BEE9AF57CEF9BF57D8516828513
:102F310017838518F0E51912302BAC82AD83AEF002
:102F4100FFE51A2CFCE51B3DFDE51C3EFEE51D3FA2
:072F51008C828D838EF022BB
:102F5900F9C2D530E715D2D5E4C39582F582E49557
:102F690083F583E495F0F5F0E499F9E57D30E7150B
:102F7900E4C3957AF57AE4957BF57BE4957CF57C59
:102F8900E4957DF57DE9122FA830D512E4C3958229
:102F9900F582E49583F583E495F0F5F0E49922F957
:102FA900E57A457B457C457D60777800C308E57DFA
:102FB90020E73BE57A25E0F57AE57B33F57BE57C8F
:102FC90033F57CE57D33F57DE582957AE583957B5F
:102FD900E5F0957CE9957D50D4C3E57D13F57DE554
:102FE9007C13F57CE57B13F57BE57A13F57AE582AD
:102FF900957AFCE583957BFDE5F0957CFEE9957D69
:103009004007F98EF08D838C82C3E57D13F57DE54C
:103019007C13F57CE57B13F57BE57A13F57AD8CE3D
:10302900E922FBC2D530E715D2D5E4C39582F582F2
:10303900E49583F583E495F0F5F0E49BFBE57D30B9
:10304900E717B2D5E4C3957AF57AE4957BF57BE485
:10305900957CF57CE4957DF57DEB12307D30D513BB
:10306900FBE4C39582F582E49583F583E495F0F555
:10307900F0E49B22FB7A20E4FCFDFEFFE582258239
:10308900F582E58333F583E5F033F5F0EB33FB4067
:1030990017DAE98042E5822582F582E58333F583F3
:1030A900E5F033F5F0EB33FBEC33FCED33FDEE33B8
:1030B900FEEF33FFEC957AED957BEE957CEF957DF0
:1030C9004013EC957AFCED957BFDEE957CFEEF9532
:0930D9007DFF438201DABEEB2207
:1030E20022AF82BF02005036EF75F002A424D7F55A
:1030F20082740235F0F583E57AF0E57BA3F0BF0038
:10310200028005BF0118800B900160E024FF9288C5
:10311200D2A822900160E0FF24FF928AD2AA22AFB5
:1031220082BF02005028BF00028005BF0108800450
:10313200C2A88002C2AAEF75F002A424D7FE7402CC
:0F31420035F0FF8E828F8374E2F07430A3F02299
:10315200AC76AD77AE78AF798D00EEC313C813C8E5
:10316200C313C813C8F9EF030354C049F9EF0303AB
:10317200543FFA7B00EC6200ED6201EE6202EF6204
:1031820003E828FDE933FEEA33FF7C00E86204E944
:103192006205EA6206EB6207EFC313F8E4F9FAFB91
:1031A200E86204E96205EA6206EB62078C768D77D3
:1031B2008E788F798C82747F5DF58322AE82AF83A5
:1031C2007D007C008E768F778D7874804CF5792225
:1031D20020F71430F6148883A88220F507E6A88326
:1031E20075830022E280F7E49322E022AAF0FBE555
:1031F20082857AF0A4FCADF0E583857AF0A42DFDFA
:10320200E435F0FEE582857BF0A42DFDE5F03EFE7F
:10321200E433FFEA857AF0A42EFEE5F03FFFE58372
:10322200857BF0A42EFEE5F03FFFE582857CF0A4CD
:103232002EFEE5F03FFFEB857AF0A42FFFEA857BB7
:10324200F0A42FFFE583857CF0A42FFFE582857D26
:0A325200F0A42F8EF08D838C8222F1
:10325C009002DBE0FF7E008F828E83A3757A108E46
:10326C007B12339DAE829002DCE0FFEEB5070122AB
:10327C009002DBE02461F582E43401F583E599F0FA
:10328C009002DBEEF0223004409002DDE0FF900271
:10329C00DEE0FEEFB50605A204C204229002DEE0D9
:1032AC002471F582E43401F583E0F5999002DEE0B7
:1032BC00FF7E008F828E83A3757A108E7B12339DD6
:0A32CC00AE82AF839002DEEEF02226
:1032D6009002DFE0FF7E008F828E83A3757A108EC8
:1032E6007B12339DAE829002E0E0FFEEB50701222D
:1032F6009002DFE02481F582E43401F583E5C1F034
:103306009002DFEEF0223005409002E1E0FF9002ED
:10331600E2E0FEEFB50605A205C205229002E2E054
:103326002491F582E43401F583E0F5C19002E2E0F0
:10333600FF7E008F828E83A3757A108E7B12339D5B
:0A334600AE82AF839002E2EEF022A7
:10335000E57A457B60467A01E57A25E0F57AE57BFA
:10336000334012F57BE582957AE583957B40030A2D
:1033700080E6C3E57B13F57BE57A13F57AC3E58236
:10338000957AF5F0E583957B4005F58385F082C35A
:10339000E57B13F57BE57A13F57ADAE122C2D5E510
:1033A0008330E70DD2D5E4C39582F582E49583F5A9
:1033B00083E57B30E70BE4C3957AF57AE4957BF5FA
:1033C0007B12335030D50BE4C39582F582E49583AC
:0333D000F5832260
:0533D300763500310019
:1033D80000000000000000002A2B28000000000068
:1033E80000000000000000000000000000000000D5
:1033F8002C9EB4A0A1A2A434A6A7A5AE362D37381A
:10340800271E1F20212223242526B333B62EB7B822
:103418009F8485868788898A8B8C8D8E8F909192E0
:10342800939495969798999A9B9C9D2F3130A3AD2C
:10343800350405060708090A0B0C0D0E0F101112AA
:10344800131415161718191A1B1C1DAFB1B0B500A7
:1034580012011001EF020108091250C50101010211
:1034680003011200090264000301008064080B00D4
:1034780002020201040904000001020201040524F9
:10348800001001052401000004240202052406009E
:10349800010705810308004009040100020A000031
:1034A80004070502024000000705820240000009E7
:1034B80004020001030101000921100121012295E4
:1034C800000705830310000A950005010906A101FC
:1034D8008501050719E029E71500250195087501FB
:1034E800810295017508810395067508150026FF68
:1034F800000507190029E7810005081901290515A4
:10350800002501950575019102950175039103C088
:10351800050C0901A1018502150026FF0319002ADF
:10352800FF03950475108100C005010902A1010976
:1035380001A1008503050919012903150025019535
:10354800037501810295017505810305010930099B
:103558003109381581257F750895038106C0C06437
:10356800000403090404000C034300480035003537
:103578000078000C0016032D005900750061006EDC
:10358800002D0033006B0065007900160017035901
:1035980000750061006E002D00530065007200691F
:1035A8000061006C0018000E032D005900750061C1
:0735B800006E002D000E0063
:1035BF0000000000000000000000000000000001FB
:1035CF0000000000000000000000000000000304E5
:1035DF0000000200000000000101010101010101D2
:1035EF0000000202020202020202000003030303B0
:1035FF000303030300000404040404040404000090
:10360F00010204081020408000000102040810206D
:10361F0040800000010204081020408000000102D9
:10362F000408102040800000FFFFFFFFFFFFFFFF97
:10363F00FFFFFF00FFFF0102FFFFFFFFFFFFFFFF85
:10364F00FFFFFFFFFFFFFFFF03FFFFFFFFFFFFFF77
:10365F00FFFFFFFFFFFFFFFFFFFFFFFFFFFFFFFF6B
:10366F00FFFFFFFFFFFFFFFFFFFFFFFFFFFF68747D
:10367F007470733A2F2F746F707975616E2E746F2B
:10368F00702F336B6579FFFFFFFFFFFFFFFFFFFF1A
:10369F00FFFFFFFFFFFFFFFFFFFFFFFFFFFFFFFF2B
:1036AF00FFFFFFFFFFFFFFFFFFFFFFFFFFFFFFFF1B
:1036BF00FFFFFFFFFFFFFFFFFFFFFFFFFFFFFFFF0B
:1036CF00FFFFFFFFFFFFFFFFFFFFFFFFFFFFFFFFFB
:1036DF00FFFFFFFFFFFFFFFFFFFFFFFFFFFFFFFFEB
:1036EF00FFFFFFFFFFFFFFFFFFFFFFFFFFFFFFFFDB
:1036FF00FFFFFFFFFFFFFFFFFFFFFFFFFFFFFFFFCB
:10370F00FFFFFFFFFFFFFFFFFFFFFFFFFFFFFFFFBA
:10371F00FFFFFFFFFFFFFFFFFFFFFFFFFFFFFFFFAA
:10372F00FFFFFFFFFFFFFFFFFFFFFFFFFFFFFFFF9A
:10373F00FFFFFFFFFFFFFFFFFFFFFFFFFFFFFFFF8A
:10374F00FFFFFFFFFFFFFFFFFFFFFFFFFFFFFFFF7A
:10375F00FFFFFFFFFFFFFFFFFFFFFFFFFFFFFFFF6A
:03376F00FFFFFF5A
:0B37720000E100000000080000000063
:10377D00000000000000000000000000000000003C
:05378D00000000000037
:013792000036
:02379300000034
:04379500E230E2300C
:04379900000000002C
:04379D000000000028
:00000001FF
