:0600000002006B021BFB75
:03000B000222AC22
:03001300021C4E7E
:01001B0032B2
:03002300021B635A
:03002B0002248C20
:01003300329A
:03003B00021CA103
:03004300021B2479
:01004B003282
:03005300021BAFDE
:01005B003272
:0300630002248AEA
:03006600021CF584
:02006900E4733E
:0D006B00758174121D00E5826003020066BD
:10007800793EE94401601B7A029029CF788F75A0F8
:1000880001E493F2A308B8000205A0D9F4DAF275E6
:02009800A0FFC7
:06009A00E478FFF6D8FD3A
:1000A0007800E84400600A790A75A001E4F309D8F1
:1000B000FC7885E84400600C790190010AE4F0A323
:0400C000D8FCD9FA95
:1000C4007522F575231C75240075250075260075A9
:1000D40027007528FF7529FF752AFF752BFF752CDE
:1000E40002752D03752E02752F027530FF7531FFD1
:1000F4007532FF7533FF7534807535637536FF755A
:1001040037FF7538FF7539FF753AFF753BFF753C4E
:10011400FF753DFF753E80753F767540FF7541FF65
:100124007542FF75438775446C7545FF7546FF75C9
:0A01340047FF754801E4F549F54A5C
:02013E00C200FD
:0E0140007808E4F608F608F608F6780C760063
:02014E00C204E9
:02015000C205E6
:0301520002006642
:1001560012119590014C7402F075820F1220EA90EC
:10016600014C7402F07582101220EA90014C740260
:10017600F075820E1220EA75820012229CAF8275FB
:100186008201C00712229CAE82758202C00612222C
:100196009CAD82758203C00512229CAC82758204D6
:1001A600C00412229CAB82758205C00312229C8574
:1001B600824B75820612229C85824C75820712221A
:1001C6009C85824D75820812229CAA82D003D00497
:1001D600D005D006D007BFFF0280028F28BEFF02DF
:1001E60080028E29BDFF0280028D2ABCFF0280029A
:1001F6008C2CBBFF0280028B2D74FFB54B02800353
:10020600854B2E74FFB54C028003854C3074FFB5C8
:100216004D028003854D31BAFF0280028A327E008C
:100226007F00C3EE941EEF6480948040030202D2E6
:100236008E0574092DF582C007C00612229CAD8278
:10024600D006D007BDFF02800CEE248FF582EF3476
:1002560001F583EDF08E0574272DF582C007C006E3
:1002660012229CAD82D006D007BDFF02800CEE2480
:10027600ADF582EF3401F583EDF08E0574452DF56D
:1002860082C007C00612229CAD82D006D007BDFFF1
:1002960002800CEE24CBF582EF3401F583EDF08E6F
:1002A6000574752DF582C007C00612229CAD82D05A
:1002B60006D007BDFF02800CEE24E9F582EF34017B
:1002C600F583EDF00EBE00010F0202287E007F00CE
:1002D600C3EE9405EF6480948040030203688E05A4
:1002E60074632DF582C007C00612229CAD82D0062B
:1002F600D007BDFF028006EE2434F8A6058E0574ED
:10030600682DF582C007C00612229CAD82D006D0A9
:1003160007BDFF028006EE2439F8A6058E05746D2A
:100326002DF582C007C00612229CAD82D006D007EA
:10033600BDFF028006EE243EF8A6058E0574932DB9
:10034600F582C007C00612229CAD82D006D007BD3A
:10035600FF028006EE2443F8A6050EBE00010F023A
:1003660002D675827212229CAF82BFFF0280028F74
:100376002B75827312229CAF82BFFF0280028F2FE1
:1003860075827412229CAF82BFFF0280028F337582
:10039600829812229CAF82BFFF01228F482212113F
:1003A60036E58270030207A312113DAF82BF0A022F
:1003B60080ECBF0D0280E7C3749A95497480854A24
:1003C600F063F08095F05005E4F549F54AE54945B6
:1003D6004A7003BF02C87401B5490614B54A0280C3
:1003E6000302078ABF0302800302078A90277975F2
:1003F600F0801220B1900FF5121E1EAB287C007DF6
:10040600007E009001497410F08B828C838DF0EE93
:1004160012204C900FF5121E1EAB297C007D007E2B
:10042600009001497410F08B828C838DF0EE1220BF
:100436004C900FF5121E1EAB2A7C007D007E0090AC
:1004460001497410F08B828C838DF0EE12204C9053
:100456000FF5121E1EAB2C7C007D007E0090014A1B
:100466007410F08B828C838DF0EE12208C900FF539
:10047600121E1EAB2D7C007D007E0090014A74107A
:10048600F08B828C838DF0EE12208C900FF5121E6D
:100496001EAB2E7C007D007E0090014A7410F08B0E
:1004A600828C838DF0EE12208C900FF5121E1EABFF
:1004B600307C007D007E009001497410F08B828CA8
:1004C600838DF0EE12204C900FF5121E1EAB317C80
:1004D600007D007E009001497410F08B828C838D24
:1004E600F0EE12204C900FF5121E1EAB327C007DF2
:1004F600007E009001497410F08B828C838DF0EEA3
:1005060012204C900FF5121E1E7D007E00C3ED9446
:100516001EEE648094805025ED248FF582EE340122
:10052600F583E0FCBCFF0280148C82C006C0051275
:100536000FF5D005D0060DBD00D30E80D0122030A9
:10054600900FF5121E1E7D007E00C3ED941EEE6414
:100556008094805025ED24ADF582EE3401F583E0DC
:10056600FCBCFF0280148C82C006C005120FF5D0B9
:1005760005D0060DBD00D30E80D0122030900FF5A9
:10058600121E1E7D007E00C3ED941EEE64809480D4
:100596005025ED24CBF582EE3401F583E0FCBCFF5B
:1005A6000280148C82C006C005120FF5D005D00655
:1005B6000DBD00D30E80D0122030900FF5121E1EF6
:1005C600E4F54EF54FC3E54E9405E54F64809480FF
:1005D600502FE54E2434F987048C027B007C007E84
:1005E600009001497410F08A828B838CF0EE122001
:1005F6004C900FF5121E1E054EE4B54EC8054F80F1
:10060600C4E4F550F551C3E5509405E55164809472
:1006160080502FE5502439F987048C027B007C003A
:100626007E009001497410F08A828B838CF0EE1262
:10063600204C900FF5121E1E0550E4B550C805510A
:1006460080C4E4F552F553C3E5529405E55364803E
:100656009480502FE552243EF987048C027B007C5F
:10066600007E009001497410F08A828B838CF0EE34
:1006760012204C900FF5121E1E0552E4B552C80505
:100686005380C4AB2B7C007D007E00900149741022
:10069600F08B828C838DF0EE12204C900FF5121E9B
:1006A6001EAB2F7C007D007E0090014A7410F08BFB
:1006B600828C838DF0EE12208C900FF5121E1EABED
:1006C600337C007D007E009001497410F08B828C93
:1006D600838DF0EE12204C900FF5121E1E7D007ECB
:1006E60000C3ED941EEE648094805025ED24E9F558
:1006F60082EE3401F583E0FCBCFF0280148C82C0DC
:1007060006C005120FF5D005D0060DBD00D30E802C
:10071600D0122030900FF5121E1EE4F554F555C385
:10072600E5549405E55564809480502FE5542443A0
:10073600F987048C027B007C007E009001497410CE
:10074600F08A828B838CF0EE12204C900FF5121EED
:100756001E0554E4B554C8055580C4AB487C007DDD
:10076600007E0090014A7410F08B828C838DF0EE2F
:1007760012208C900FF5121E1E120FDDE4F549F5BE
:100786004A0203A4E5492407F582E54A3402F583C3
:10079600EFF00549E4B54902054A0203A4749BB586
:1007A6004906E4B54A028003020975E4F549F54AAB
:1007B600900207E0FFBF020280030209759002A1C2
:1007C600E0FFBF03028003020975900113747CF0F9
:1007D6007427A3F07480A3F0900FF5121D62120F18
:1007E600DD7E007F00C3EE9499EF648094805027ED
:1007F60074012EFCE43FFDEC2407F582ED3402F58E
:1008060083E0F5828E83C005C004122266D004D030
:10081600058C068D0780CE900208E0F52890020927
:10082600E0F52990020AE0F52A90020BE0F52C90FB
:10083600020CE0F52D90020DE0F52E90020EE0F58B
:100846003090020FE0F531900210E0F5327E007F25
:1008560000C3EE941EEF6480948040030208EAEE23
:10086600248FFCEF3401FD740A2EFAE43FFBEA24E0
:1008760007F582EB3402F583E08C828D83F0EE245B
:10088600ADFCEF3401FD74282EFAE43FFBEA2407A1
:10089600F582EB3402F583E08C828D83F0EE24CB77
:1008A600FCEF3401FD74462EFAE43FFBEA2407F51B
:1008B60082EB3402F583E08C828D83F0EE24E9FC32
:1008C600EF3401FD74762EFAE43FFBEA2407F58245
:1008D600EB3402F583E0FB8C828D83F00EBE0001C3
:1008E6000F0208577E007F00C3EE9405EF648094E4
:1008F600805064EE2434F974642EFCE43FFDEC244D
:1009060007F582ED3402F583E0F7EE2439F97469D0
:100916002EFCE43FFDEC2407F582ED3402F583E07E
:10092600F7EE243EF9746E2EFCE43FFDEC2407F549
:1009360082ED3402F583E0F7EE2443F974942EFC3D
:10094600E43FFDEC2407F582ED3402F583E0FDF784
:100956000EBE00940F809190027AE0F52B90027BF8
:10096600E0F52F90027CE0F5339002A0E0F54875A3
:10097600820F1221A1E582B40100E433FF758210D3
:10098600C0071221A1AE82D007EEB40100E433FE07
:1009960075820EC007C0061221A1AD82D006D0070F
:1009A600EDB40100E433F5567401B5480280030244
:1009B6000B66E5276003020AC7EFB52403020B693D
:1009C600EEB52503020B69E556B52603020B69EF62
:1009D6007003020B69EE7003020B69E556700302A1
:1009E6000B698F248E25855626E52F7011852B825F
:1009F600C007C006121299D006D007020AC17401B8
:100A0600B52F3C74FFB533028020AC337B00AA2B94
:100A16007D00EA2BFBED3CFC8B828C83C007C00675
:100A26001213EAD006D007020AC1AC2B7D008C82D5
:100A36008D83C007C0061213EAD006D007807C74E7
:100A460002B52F367C007D00C3EC9405ED648094DE
:100A5600805068EC2443F98703BBFF0280158B8224
:100A6600C007C006C005C004121299D004D005D034
:100A760006D0070CBC00D10D80CE7403B52F3C7C8C
:100A8600007D00C3EC941EED64809480502DEC2410
:100A9600E9F582ED3401F583E0FBBBFF02801C8B98
:100AA60082C007C006C005C0041214B1D004D00528
:100AB600D006D0070CBC00CB0D80C8752701020BF1
:100AC60069EF600AEE6007E5566003020B698F2442
:100AD6008E25855626E52F7010852B82C007C00609
:100AE600121357D006D00780727401B52F3974FFE0
:100AF600B53302801DAD337C00AA2B7B00EA2CFCAB
:100B0600EB3DFD8C828D83C007C006121474D0069F
:100B1600D007AC2B7D008C828D83C007C0061214D3
:100B260074D006D00780347402B52F2F7C047D0064
:100B3600ED20E727EC2443F98703BBFF0280158BE2
:100B460082C007C006C005C004121357D004D005E2
:100B5600D006D0071CBCFF011D80D5752700800379
:100B6600752700E5276003020F12EFB52403020C78
:100B7600C0EFF5247003020C4AE52C700D8528821F
:100B8600C006121299D006020CC07401B52C357439
:100B9600FFB53002801CAF307D00AB287C00EB2D0A
:100BA600FDEC3FFF8D828F83C0061213EAD006024A
:100BB6000CC0AD287F008D828F83C0061213EAD049
:100BC60006020CC07402B52C357D007F00C3ED947F
:100BD60005EF648094804003020CC0ED2434F9874D
:100BE60004BCFF0280118C82C007C006C005121229
:100BF60099D005D006D0070DBD00D20F80CF740363
:100C0600B52C028003020CC07D007F00C3ED941E4C
:100C1600EF648094804003020CC0ED248FF582EFD0
:100C26003401F583E0FCBCFF03020CC08C82C007D4
:100C3600C006C0051214B1D005D006D0070DBD0000
:100C4600CB0F80C8E52C700C852882C0061213577E
:100C5600D00680667401B52C3174FFB53002801958
:100C6600AF307D00AB287C00EB2DFDEC3FFF8D8285
:100C76008F83C006121474D006AD287F008D828F34
:100C860083C006121474D00680307402B52C2B7DF6
:100C9600047F00EF20E723ED2434F98704BCFF022C
:100CA60080118C82C007C006C005121357D005D02C
:100CB60006D0071DBDFF011F80D9EEB52503020D25
:100CC600E8EEF5257003020D82E52D70098529826F
:100CD600121299020DE87401B52D2A74FFB531027E
:100CE6008015AF317E00AC297D00EC2EFEED3FFF76
:100CF6008E828F831213EAAE297F008E828F831233
:100D060013EA020DE87402B52D317E007F00C3EEB2
:100D16009405EF648094804003020DE8EE2439F9CF
:100D26008705BDFF02800D8D82C007C0061212998D
:100D3600D006D0070EBE00D60F80D37403B52D02A1
:100D46008003020DE87E007F00C3EE941EEF6480F0
:100D560094804003020DE8EE24ADF582EF3401F5F0
:100D660083E0FDBDFF02807A8D82C007C0061214A3
:100D7600B1D006D0070EBE00D00F80CDE52D70088D
:100D8600852982121357805A7401B52D2974FFB52F
:100D960031028015AF317E00AC297D00EC2EFEEDD0
:100DA6003FFF8E828F83121474AE297F008E828F4E
:100DB60083121474802C7402B52D277E047F00EFF5
:100DC60020E71FEE2439F98705BDFF02800D8D82CD
:100DD600C007C006121357D006D0071EBEFF011F5C
:100DE60080DDE556B52603020F12E556F52670039B
:100DF600020EACE52E7009852A82121299020F1294
:100E06007401B52E2A74FFB532028015AF327E000A
:100E1600AC2A7D00EC2EFEED3FFF8E828F831213EF
:100E2600EAAE2A7F008E828F831213EA020F1274B3
:100E360002B52E317E007F00C3EE9405EF648094E8
:100E4600804003020F12EE243EF98705BDFF0280A3
:100E56000D8D82C007C006121299D006D0070EBEAD
:100E660000D60F80D37403B52E028003020F127EC4
:100E7600007F00C3EE941EEF648094804003020F4F
:100E860012EE24CBF582EF3401F583E0FDBDFF02BF
:100E9600807A8D82C007C0061214B1D006D0070E24
:100EA600BE00D00F80CDE52E7008852A821213571A
:100EB600805A7401B52E2974FFB532028015AF32FF
:100EC6007E00AC2A7D00EC2EFEED3FFF8E828F83E6
:100ED600121474AE2A7F008E828F83121474802CB3
:100EE6007402B52E277E047F00EF20E71FEE243E16
:100EF600F98705BDFF02800D8D82C007C00612135B
:100F060057D006D0071EBEFF011F80DD900032E4D9
:050F1600F5F002236963
:100F1C009002A9E4F0C200227F00C3E5DB940792A3
:100F2C000140067D077E008004ADDB7E008F037CD4
:100F3C0000C3EB9DEC64808EF063F08095F050174D
:100F4C00EF24A2FDE43402FE8F82758300E0FC8D59
:100F5C00828E83F00F80C3227F008F057E00C3ED4D
:100F6C009407EE940050188F057E00EF24A2F582B2
:100F7C00E43402F583E0FC8D828E83F00F80DB90ED
:100F8C00000722900002E0FF9002ABF0E020E0307E
:100F9C009002A2E0FCA3E0FDA3E0FEA3E0FFBCB046
:100FAC001FBD041CBE0019BF001675E200C2AF9035
:100FBC00C35012241A90C35012241A12380080FE07
:100FCC00227516009002ABE060037516018516823F
:100FDC00222000149002ACE0FFE0600C8FD553D4BB
:100FEC00FCD2009002ACE4F022AF829002ABE06045
:100FFC005E7D007E003000240DBD00010E900005CA
:10100C00C007C006C00512241AD005D006D007C3ED
:10101C00ED9450EE94C340DD758200229002ACE05A
:10102C00FEBE400050207D0074402EFEE43DFDEEDF
:10103C002414F582ED3400F583EFF09002ACE0243B
:10104C0001F075820122C007120FDDD00780A27556
:10105C00820022AFF0AE83E58290010CF0EEA3F09B
:10106C00EFA3F09002ABE0700302113290010AE0A2
:10107C00FEA3E0FFC3E49E74808FF063F08095F0D4
:10108C0040030211327E007F003000200EBE0001B2
:10109C000F900005C007C00612241AD006D007C353
:1010AC00EE9450EF94C340E17582002290010CE065
:1010BC00FDA3E0FEA3E0FF90010AE0FBA3E0FCC36C
:1010CC00E49B74808CF063F08095F0509F9002ACA0
:1010DC00E0FABA400050498A017A00744029F9E4D8
:1010EC003AFAE92414F9EA3400FA8D828E838FF0EF
:1010FC001225E6F8A3AD82AE8390010CEDF0EEA3C1
:10110C00F0EFA3F089828A83E8F09002ACE024012E
:10111C00F01BBBFF011C90010AEBF0ECA3F0809FCD
:10112C00120FDD021078758200229002A9E0F58280
:10113C00229002A9E07003F582229002AAE0241406
:10114C00F582E43400F583E0FF9002AAE004F0900D
:10115C0002A9E014F0E0700353D4F38F822275D50A
:10116C000074FC55D44402F5D4C2002230DE199030
:10117C0002A9E5DBF09002AAE4F09002A9E0600875
:10118C0074F355D44408F5D422121AC0121AEA1278
:0F119C001AD975DD0075D30075D50075D70022FF
:1011AC0075D70074FC55D64402F5D69002ADE4F028
:1011BC00227E007F009002ADE060200EBE00010F89
:1011CC00900005C007C00612241AD006D007C3EE43
:1011DC009450EF94C340DE758200229000E07401BD
:1011EC00F07F00BF080050278F057E0074412DFD55
:1011FC00E43EFEED24A0FDEE3400FEEF24AEF582BD
:10120C00E43402F583E0FC8D828E83F00F80D4757C
:10121C00D7099002AD7401F053D6FC758201227E81
:10122C00007F009002ADE060200EBE00010F900028
:10123C0005C007C00612241AD006D007C3EE94507E
:10124C00EF94C340DE758200229000E07402F07FC0
:10125C0000BF080050278F057E0074412DFDE43E31
:10126C00FEED24A0FDEE3400FEEF24B6F582E4344E
:10127C0002F583E0FC8D828E83F00F80D475D70944
:10128C009002AD7401F053D6FC75820122AF82BF7F
:10129C00880040088F06EE2478FE8042BF80004014
:1012AC00239002AEE0FD8F04EC2480F5F005F07481
:1012BC0001800225E0D5F0FBFC42059002AEEDF07A
:1012CC007E00801AEF90277E93FE7003F58222EE4B
:1012DC0030E70B9002AEE04402FFF053067F900221
:1012EC00B0E0FFB50602805C9002B1E0FFB50602EB
:1012FC0080529002B2E0FFB5060280489002B3E043
:10130C00FFB50602803E9002B4E0FFB506028034C1
:10131C009002B5E0FFB50602802A7F027D02ED2423
:10132C00AEFBE43402FC8B828C83E070088B828CE5
:10133C0083EEF080080D8D07BD080040E1BF080466
:10134C00758200221211BD75820122AF82BF880006
:10135C0040088F06EE2478FE8043BF800040249026
:10136C0002AEE0FD8F04EC2480F5F005F0740180F2
:10137C000225E0D5F0FBF4FC52059002AEEDF07EB8
:10138C0000801AEF90277E93FE7003F58222EE30D8
:10139C00E70B9002AEE054FDFFF053067F7F02EEA8
:1013AC006016EF24AEFCE43402FD8C828D83E0B534
:1013BC0006068C828D83E4F00FBF080040E1121109
:1013CC00BD758201227F00BF0800500FEF24AEF5DF
:1013DC0082E43402F583E4F00F80EC0211BDAE829E
:1013EC00AF839002B6E0FCA3E0FDECB50606EDB5CC
:1013FC000702806D9002B8E0FCA3E0FDECB5060698
:10140C00EDB50702805B9002BAE0FCA3E0FDECB501
:10141C000606EDB5070280499002BCE0FCA3E0FD96
:10142C00ECB50606EDB5070280377D007C00EC7547
:10143C00F002A424B6FA740235F0FB8A828B83E0A6
:10144C00F8A3E0F948700B8A828B83EEF0EFA3F0DF
:10145C0080080C8C05BC040040D4BD0404758200CB
:10146C002212122B75820122AE82AF837D00EE4FC9
:10147C006026ED75F002A424B6FB740235F0FC8BEB
:10148C00828C83E0F9A3E0FAE9B5060CEAB507080B
:10149C008B828C83E4F0A3F00DBD040040D01212BB
:1014AC002B75820122AF82C007121299AE82D0072F
:1014BC008F82C006121357D0068E82229000A0E0B5
:0314CC00F5822284
:1014D000AFDBBF0802800302191E900007E0FE7F09
:1014E00000900006E0FD7C004FF510EC4EF5117FFA
:1014F00000900001E0F512900000E0FE546060539F
:10150000900000E0FE5306607D00BE2005BD000295
:10151000800BBE4039BD00367FFF0219207420B514
:1015200012030219207421B5120280077422B51229
:1015300018800C120F64AD82AE838D07021920C093
:1015400007120F8FD0070219207FFF0219207FFF9B
:10155000021920E51224F4500302191AE512240B93
:1015600083F582E512241083F583E473FC2A1AEADA
:101570001AF9841A06212020181719171916151997
:1015800017171919900003E0FEBE01028013BE0276
:10159000028023BE03028033BE220302166B0216B2
:1015A000897514FE751527902810E493FD74019336
:1015B000FE8D0702168B7514127515289028D7E436
:1015C00093FD740193FE8D0702168B900002E0706C
:1015D000157514D97515289028DDE493FD740193D1
:1015E000FE8D0702168B900002E0FEBE01157514F9
:1015F0001F75152990292DE493FD740193FE8D0725
:1016000002168B900002E0FEBE02147514ED7515F3
:1016100028902903E493FD740193FE8D07806C905C
:101620000002E0FEBE03147514DF7515289028EB48
:10163000E493FD740193FE8D078050900002E0FE5C
:10164000BE041475140575152990291DE493FD74C5
:101650000193FE8D0780347514DF7515289028EBF3
:10166000E493FD740193FE8D078020900002E070EA
:1016700014751478751528902876E493FD740193F9
:10168000FE8D0780067FFF80027FFFBFFF030219E8
:10169000208F057E00C3ED9510EE951150048D103E
:1016A0008E11AD10AE11C3ED9408EE94009202407D
:1016B000067B087C008004AB10AC118B077C00C358
:1016C000EC9F50198C027B00EC2514F582E4351553
:1016D000F583E493F98A828B83F00C80E28F037C9C
:1016E00000EDC39BFDEE9CFE8D108E11EF2514F5D1
:1016F00014E43515F515021920900002E0FE8E1055
:10170000751100021920900000E513F0AD10AE1124
:10171000C3ED9401EE940050030219207F010219D9
:1017200020900002E0F513021920900000E0541F01
:10173000702F900003E0FD7E00900002E0FC7B0033
:101740004206EB4205BE0114BD0011902819E49336
:10175000FE30E5030219207FFF0219207FFF0219E6
:1017600020900000E0FE53061F7D00BE0277BD0002
:1017700074900004E0FEBE0102805FBE0202804958
:10178000BE03028033BE0402801DBE81028040BEC3
:101790008202802ABE83028014BE844474BC55DE5B
:1017A0004402F5DE02192053DE7302192074BC5581
:1017B000D64402F5D602192053D67302192074BC00
:1017C00055D44402F5D402192053D473021920745D
:1017D000BC55D24402F5D202192053D2730219200B
:1017E0007FFF0219207FFF021920900000E0541FA4
:1017F000702F900003E0FD7E00900002E0FC7B0073
:101800004206EB4205BE0114BD0011902819E49375
:10181000FE30E5030219207FFF0219207FFF021925
:1018200020900000E0FE53061F7D00BE0205BD00B3
:101830000280030218F8900003E0FD7E0090000291
:10184000E0FC7B004206EB4205EE4D60030218F41B
:10185000900005E0FD7E00900004E0FC7B00420665
:10186000EB4205BE0106BD00030218E8BE0205BD3D
:1018700000028060BE0305BD00028044BE0405BDB9
:1018800000028028BE8105BD00028052BE8205BDD7
:1018900000028036BE8305BD0002801ABE8451BDA1
:1018A000004E74BF55DE4403F5DE8074747F55DE50
:1018B000440CF5DE806A74BF55D64403F5D68060CB
:1018C000747F55D6440CF5D6805674BF55D4440366
:1018D000F5D4804C747F55D4440CF5D4804274BF49
:1018E00055D24403F5D28038747F55D2440CF5D2DA
:1018F0007FFF802C7FFF80287FFF8024900000E402
:10190000F0900001F0AD10AE11C3ED9402EE940022
:1019100040047F02800AAF1080067FFF80027FFFB5
:10192000BFFF077512FF75DCCF22EF24F740068F4B
:10193000DD75DCC02275DD0075DCC0227405B512D2
:1019400002805D7406B51266AE10AF11C3EE940846
:10195000EF9400920340067C087D008004AC10AD3B
:10196000117D00C3ED9C50198D027B00ED2514F50F
:1019700082E43515F583E493F98A828B83F00D8038
:10198000E28C037D00EEC39BFEEF9DFF8E108F1156
:10199000EC2514F514E43515F5158CDD63DC4022D7
:1019A000E5E35480FFE5104FF5E375DC022275DDB9
:1019B0000075DC02227420B5120D30DE10120F24E7
:1019C00075DD0085DCDC2275DD0043DC022275D389
:1019D0000074FC55D24402F5D2229002BE7401F08C
:1019E00075D30853D2FC7582012220D903021A9BB9
:1019F000E5D9540FFFADD95305307E00BD0005BEBB
:101A00000002801CBD1005BE00028037BD2005BE4F
:101A100000028044BD3006BE0003021A81021A99FA
:101A2000EF24FB5003021A99EF2F901A2E738008AF
:101A30008067800A806380611219B5021A991211B9
:101A4000788056EF24FB4051EF2F901A4E73804957
:101A50008047804580438041EF24FB403CEF2F903E
:101A60001A63738008800B800E8011802C12193C41
:101A700080271219CE802212116A801D1211AC80AB
:101A800018EF24FB4013EF2F901A8C738008800905
:101A90008007800580031214D0C2D930D81575DCB8
:101AA0000275D21275D41275E300C2DAC2D9C2D857
:101AB000120F1C10DA0122E5DA20E20375D8FF22AA
:101AC00075E20053E27F43E22975E30053E2BF531E
:101AD000D1FB75D18043D1012243E10443E10243AC
:101AE000E10143D81FD2EAD2AF227E007F008EEC04
:101AF0008FED7E0A7F008EEE8FEF7E147F008EE4E6
:101B00008FE57EA07F008EE68FE775EB0C43EB4000
:101B100043EB8075D21275D41275D61275EA4075F2
:031B2000DC0222C2
:101B2400C021C0E0C0F0C082C083C007C006C005A9
:101B3400C004C003C002C001C000C0D075D00012F0
:101B440019EAD0D0D000D001D002D003D004D005FF
:101B5400D006D007D083D082D0F0D0E0D02132C0DC
:101B640021C0E0C0F0C082C083C007C006C005C069
:101B740004C003C002C001C000C0D075D0003098BA
:101B840005122602C298309905122638C299D0D07F
:101B9400D000D001D002D003D004D005D006D007A5
:101BA400D083D082D0F0D0E0D02132C021C0E0C0B8
:101BB400F0C082C083C007C006C005C004C003C013
:101BC40002C001C000C0D075D00030C00512267C10
:101BD400C2C030C1051226B2C2C1D0D0D000D001DB
:101BE400D002D003D004D005D006D007D083D08251
:101BF400D0F0D0E0D02132C021C0E0C0F0C082C01B
:101C040083C007C006C005C004C003C002C001C031
:101C140000C0D075D0009002C1E0FEA3E0FFC00771
:101C2400C0068E828F83120069D006D007D0D0D030
:101C340000D001D002D003D004D005D006D007D004
:101C440083D082D0F0D0E0D02132C021C0E0C0F0F7
:101C5400C082C083C007C006C005C004C003C00260
:101C6400C001C000C0D075D0009002C3E0FEA3E064
:101C7400FFC007C0068E828F83120069D006D0078A
:101C8400D0D0D000D001D002D003D004D005D006EB
:101C9400D007D083D082D0F0D0E0D02132C021C090
:101CA400E0C0F0C082C083C007C006C005C004C045
:101CB40003C002C001C000C0D075D0009002BFE0D4
:101CC400FEA3E04E600E9002BFE0F8A3E0F5838827
:101CD40082120069D0D0D000D001D002D003D00449
:101CE400D005D006D007D083D082D0F0D0E0D02168
:101CF400321224551201561203A480FB758200226D
:101D0400AE82AF8390010FE0FBA3E0FCA3E0FD7A79
:101D140000900112E0F9890019E8603F8B828C83FE
:101D24008DF01225E6F8A3AB82AC83C007C006C0D1
:101D340005C004C003C002C001121D428007C006D2
:101D4400C007888222A882D001D002D003D004D058
:101D540005D006D007E860030A80BB8A8222AE82DF
:101D6400AF83900113E0FBA3E0FCA3E0FD9001131B
:101D7400E0F5F0A3E045F07003F582227A008B824F
:101D84008C838DF01225E6F9A3AB82AC83E9F8606D
:101D94002CC007C006C005C004C003C002121DA6A3
:101DA4008007C006C007888222A982D002D003D04F
:101DB40004D005D006D007E960030A80C18A8222D4
:101DC400AE82AF83900116E0FAA3E0FBA3E0FCA38C
:101DD400E0FD90011EEAF0EBA3F0ECA3F0EDA3F01C
:101DE400900122740AF08E828F83021E55AE82AF58
:101DF4008390011AE0FAA3E0FBA3E0FCA3E0FD90CA
:101E04000144EAF0EBA3F0ECA3F0EDA3F090014859
:101E1400740AF08E828F83021F3AAE82AF83C007AA
:101E2400C006121E2B8008C006C00775820D22ADA5
:101E340082D006D007C007C005121E428008C00623
:101E4400C00775820A22AE82D005D007EE2DF58236
:101E540022858257858358900143E4F0900122E063
:101E6400FDBD02005006900122740AF0900122E0A8
:101E7400F5597B437C0190011EE0F55AA3E0F55B24
:101E8400A3E0F55CA3E0F55D85595E755F007560C0
:101E940000756100855E16855F1785601885611978
:101EA400855A82855B83855CF0E55DC004C00312BE
:101EB400248EA882855E16855F1785601885611952
:101EC400855A82855B83855CF0E55DC0001225112F
:101ED400AA82AD83AEF0FFD000D003D00490011EDF
:101EE400EAF0EDA3F0EEA3F0EFA3F01BBBFF011C9F
:101EF4008B068C07B80A005008880574302DFD80C5
:101F040004743728FD8E828F83EDF090011EE0F576
:101F1400F0A3E042F0A3E042F0A3E045F060030246
:101F24001E7A900113EBF0ECA3F0E4A3F085578242
:101F3400855883021D62858262858363900148E02F
:101F4400FD7019900144E0F9A3E0FAA3E0FBA3E0DB
:101F5400FC021F58C062C06389822222BD0A02802B
:101F640003022005900144E0F9A3E0FAA3E0FBA3F7
:101F7400E0FC30E76FC004C003C002C001121F863A
:101F84008008C062C06375822D22A882D001D0026D
:101F9400D003D0048864900144C3E499F0E49AA384
:101FA400F0E49BA3F0E49CA3F0900144E0F565A366
:101FB400E0F566A3E0F567A3E0F56890011EE5652A
:101FC400F0E566A3F0E567A3F0E568A3F0900122CD
:101FD400740AF0856282856383121E55AF82E564BC
:101FE4002FF5822290011EE9F0EAA3F0EBA3F0ECB6
:101FF400A3F0900122740AF0856282856383021E35
:1020040055900144E0FBA3E0FCA3E0FEA3E0FF90B5
:10201400011EEBF0ECA3F0EEA3F0EFA3F09001228D
:0B202400EDF0856282856383021E558B
:1020300022AC82AD83AEF0FF90011AECF0EDA3F07C
:10204000EEA3F0EFA3F0900FF5021DF1AC82AD838B
:10205000AEF0FF900149E0FB900144ECF0EDA3F0FD
:10206000EEA3F0EFA3F0900148EBF0900FF5021F04
:102070003AAC82AD83AEF0FF900116ECF0EDA3F028
:10208000EEA3F0EFA3F0900FF5021DC4AC82AD8378
:10209000AEF0FF90014AE0FB900144ECF0EDA3F0BC
:1020A000EEA3F0EFA3F0900148EBF0900FF5021FC4
:1020B0003AAD82AE83AFF0900113EDF0EEA3F0EFF6
:1020C000A3F0900FF5021D62AD82AE83AFF09001D8
:1020D0004BE0FC90010FEDF0EEA3F0EFA3F09001C8
:0920E00012ECF0900FF5021D0452
:1020EA00E582FF90297F93FEEF90295793FF7001B5
:1020FA002290014CE0FD701BBF0209EEF4FC5292E3
:10210A00EC529322BF0402800122EEF4FC5296ECB8
:10211A00529722BD0214BF0207EE4292EE42932268
:10212A00BF0439EE4296EE429722BD0116BF02085D
:10213A00EEF45292EE429322BF0421EEF45296EE4E
:10214A00429722BD0316BF0208EE4292EEF4529362
:10215A0022BF0408EE4296EEF4FE529722AF82BFE7
:10216A000102800FBF02028013BF03028017BF045F
:10217A0025801BE5C620E21E539DFB22E5C620E30F
:10218A0015539DF722E5C630E20C539DFB22E5C6A6
:10219A0030E303539DF722E582FF90292F93FEEF48
:1021AA0090297F93FDEF90295793FF7003F58222C0
:1021BA00EE600D8E82C007C005122167D005D007D8
:1021CA007E00BF0202800ABF03028009BF040C809E
:1021DA0008AE908006AEA08002AEB0ED5E600475D7
:1021EA0082012275820022E582FF90292F93FEEF59
:1021FA0090297F93FDEF90295793FFEE600D8E8211
:10220A00C007C005122167D005D007A2AFE433FE8C
:10221A00C2AFBF0202800ABF03028017BF04368022
:10222A002490014DE07007EDF4FF52908027ED42B3
:10223A0090802290014DE07007EDF4FF52A08015C6
:10224A00ED42A0801090014DE07007EDF4FF52B00E
:0B225A008003ED42B0EE6002D2AF2224
:10226600AE82AF838F05BD800040012275A15575F2
:10227600A1AA43B10475A1007585C0ED2DF5848E24
:102286008EE58630E60375869A75A15575A1AA5323
:10229600B1FB75A10022AF827585C0EF2FF584755D
:1022A600868E858E8222C0D075D00808B8000D09AA
:1022B600B900090ABA00050BBB00010CD0D032A246
:1022C600AFC2AFA808A909AA0AAB0BAC8A8588F0E9
:1022D60092AF30F51274012C600D08B8000909B9E7
:1022E60000050ABA00010BC3EC9406FCECC313FC10
:1022F60075F07DE8A4F8ADF075F07DE9A42DF9E45C
:1023060035F0FD75F07DEAA42DFAE435F0FD75F0A3
:102316007DEBA42DFB7D00EC28F582E93DF583EAF3
:102326003DF5F0EB3D22A2AFC2AFA808A909AA0A63
:10233600AB0BAC0C92AF75F020E8A4A8F075F020BA
:10234600E9A428F582A8F075F020EAA428F583A868
:10235600F075F020EBA428F9A8F075F020ECA4287D
:1023660089F02285826985836A85F06BF56C122275
:10237600C585826D85836E85F06FF570E569456A62
:10238600456B456C700122A869A96AAA6BAB6C857E
:102396006D71856E72856F73857074E8494A4B60FE
:1023A600DBC003C002C001C0001222C5AC82AD83EF
:1023B600AEF0FFD000D001D002D003ECC39571FC83
:1023C600ED9572FDEE9573FEEF9574FFC3EC94E800
:1023D600ED9403EE9400EF940040A118B8FF09199C
:1023E600B9FF051ABAFF011B8869896A8A6B8B6C6B
:1023F60074E82571F57174033572F572E43573F579
:1024060073E43574F57485716D85726E85736F85A9
:1024160074708087AE82AF83C374019EE49F4002CE
:102426002200C374029EFE74009FFF00BE0005BF1B
:102436000002002200000000000000000000000072
:1024460000000000000EBE00EB0FBF00ED0022757D
:10245600A15575A1AA74F855B94406F5B975A10038
:1024660090138812241A759E5D759D0074F0558927
:102476004402F58953C9EF758C06C28DD2A9D28C58
:03248600D2AF22B0
:01248A00321F
:01248C00321D
:10248E00F9E51645174518451960777800C308E534
:10249E001920E73BE51625E0F516E51733F517E5A8
:1024AE001833F518E51933F519E5829516E5839578
:1024BE0017E5F09518E9951950D4C3E51913F519D8
:1024CE00E51813F518E51713F517E51613F516E5C8
:1024DE00829516FCE5839517FDE5F09518FEE995B6
:1024EE00194007F98EF08D838C82C3E51913F51907
:1024FE00E51813F518E51713F517E51613F516D8A5
:10250E00CEE922FB7A20E4FCFDFEFFE5822582F572
:10251E0082E58333F583E5F033F5F0EB33FB4017BB
:10252E00DAE98042E5822582F582E58333F583E59B
:10253E00F033F5F0EB33FBEC33FCED33FDEE33FE15
:10254E00EF33FFEC9516ED9517EE9518EF951940B4
:10255E0013EC9516FCED9517FDEE9518FEEF9519FB
:08256E00FF438201DABEEB22FB
:1025760022AF82BF02005036EF75F002A424C1F5E7
:1025860082740235F0F583E516F0E517A3F0BF0077
:10259600028005BF0118800B90014EE024FF92884F
:1025A600D2A82290014EE0FF24FF928AD2AA22AF3F
:1025B60082BF02005028BF00028005BF01088004C8
:1025C600C2A88002C2AAEF75F002A424C1FE74025A
:0F25D60035F0FF8E828F837476F07425A3F02288
:1025E60020F71430F6148883A88220F507E6A8831E
:0C25F60075830022E280F7E49322E022CB
:102602009002C5E0FF7E008F828E83A37516108E26
:1026120017122743AE829002C6E0FFEEB5070122F1
:102622009002C5E0244FF582E43401F583E599F088
:102632009002C5EEF0223004409002C7E0FF900203
:10264200C8E0FEEFB50605A204C204229002C8E06B
:10265200245FF582E43401F583E0F5999002C8E045
:10266200FF7E008F828E83A37516108E171227436A
:0A267200AE82AF839002C8EEF022A2
:10267C009002C9E0FF7E008F828E83A37516108EA8
:10268C0017122743AE829002CAE0FFEEB507012273
:10269C009002C9E0246FF582E43401F583E5C1F0C2
:1026AC009002C9EEF0223005409002CBE0FF900280
:1026BC00CCE0FEEFB50605A205C205229002CCE0E7
:1026CC00247FF582E43401F583E0F5C19002CCE07F
:1026DC00FF7E008F828E83A37516108E17122743F0
:0A26EC00AE82AF839002CCEEF02224
:1026F600E516451760467A01E51625E0F516E51755
:10270600334012F517E5829516E583951740030ABF
:1027160080E6C3E51713F517E51613F516C3E5822C
:102726009516F5F0E58395174005F58385F082C388
:10273600E51713F517E51613F516DAE122C2D5E506
:102746008330E70DD2D5E4C39582F582E49583F50F
:1027560083E51730E70BE4C39516F516E49517F5F0
:10276600171226F630D50BE4C39582F582E49583DD
:03277600F58322C6
:05277900763300310081
:10277E0000000000000000002A2B280000000000CE
:10278E00000000000000000000000000000000003B
:10279E002C9EB4A0A1A2A434A6A7A5AE362D373880
:1027AE00271E1F20212223242526B333B62EB7B889
:1027BE009F8485868788898A8B8C8D8E8F90919247
:1027CE00939495969798999A9B9C9D2F3130A3AD93
:1027DE00350405060708090A0B0C0D0E0F10111211
:1027EE00131415161718191A1B1C1DAFB1B0B5000E
:1027FE0012011001EF020108091250C50101010278
:10280E0003011200090264000301008064080B003A
:10281E00020202010409040000010202010405245F
:10282E000010010524010000042402020524060004
:10283E00010705810308004009040100020A000097
:10284E00040705020240000007058202400000094D
:10285E000402000103010100092110012101225F80
:10286E00000705830309000A5F0005010906A1019F
:10287E008501050719E029E7150025019508750161
:10288E00810295017508810395067508150026FFCE
:10289E00000507190029E78100050819012905150A
:1028AE00002501950575019102950175039103C0EF
:1028BE00050C0901A1018502150026FF0319002A46
:1028CE00FF03950475108100C0640004030904041D
:1028DE00000C03430048003500350078000C00164C
:1028EE00032D005900750061006E002D0033006B42
:1028FE000065007900160017035900750061006E1F
:10290E00002D00530065007200690061006C001814
:10291E00000E032D005900750061006E002D000E93
:01292E0000A8
:10292F000000000000000000000000000000000197
:10293F000000000000000000000000000000030481
:10294F00000002000000000001010101010101016E
:10295F00000002020202020202020000030303034C
:10296F00030303030000040404040404040400002C
:10297F00010204081020408000000102040810200A
:10298F004080000001020408102040800000010276
:10299F000408102040800000FFFFFFFFFFFFFFFF34
:1029AF00FFFFFF00FFFF0102FFFFFFFFFFFFFFFF22
:1029BF00FFFFFFFFFFFFFFFF03FFFFFFFFFFFFFF14
:1029CF00FFFFFFFFFFFFFFFFFFFFFFFFFFFFFFFF08
:1029DF00FFFFFFFFFFFFFFFFFFFFFFFFFFFF68741A
:1029EF007470733A2F2F746F707975616E2E746FC8
:1029FF00702F336B6579FFFFFFFFFFFFFFFFFFFFB7
:102A0F00FFFFFFFFFFFFFFFFFFFFFFFFFFFFFFFFC7
:102A1F00FFFFFFFFFFFFFFFFFFFFFFFFFFFFFFFFB7
:102A2F00FFFFFFFFFFFFFFFFFFFFFFFFFFFFFFFFA7
:102A3F00FFFFFFFFFFFFFFFFFFFFFFFFFFFFFFFF97
:102A4F00FFFFFFFFFFFFFFFFFFFFFFFFFFFFFFFF87
:102A5F00FFFFFFFFFFFFFFFFFFFFFFFFFFFFFFFF77
:102A6F00FFFFFFFFFFFFFFFFFFFFFFFFFFFFFFFF67
:102A7F00FFFFFFFFFFFFFFFFFFFFFFFFFFFFFFFF57
:102A8F00FFFFFFFFFFFFFFFFFFFFFFFFFFFFFFFF47
:102A9F00FFFFFFFFFFFFFFFFFFFFFFFFFFFFFFFF37
:102AAF00FFFFFFFFFFFFFFFFFFFFFFFFFFFFFFFF27
:102ABF00FFFFFFFFFFFFFFFFFFFFFFFFFFFFFFFF17
:102ACF00FFFFFFFFFFFFFFFFFFFFFFFFFFFFFFFF07
:032ADF00FFFFFFF7
:0B2AE20000E100000000080000000000
:102AED0000000000000000000000000000000000D9
:012AFD0000D8
:012AFE0000D7
:022AFF000000D5
:042B0100762576259A
:042B050000000000CC
:042B090000000000C8
:00000001FF
