:0600000002006B022468FF
:03000B00022BD5F0
:030013000224BB09
:01001B0032B2
:030023000223D0E5
:03002B00022DB5EE
:01003300329A
:03003B0002250E8D
:0300430002239104
:01004B003282
:0300530002241C68
:01005B003272
:03006300022DB3B8
:030066000225620E
:02006900E4733E
:0D006B0075817D12256DE58260030200663F
:100078007924E94401601B7A0290365578A175A06D
:1000880001E493F2A308B8000205A0D9F4DAF275E6
:02009800A0FFC7
:06009A00E478FFF6D8FD3A
:1000A0007800E84400600A790A75A001E4F309D8F1
:1000B000FC7897E84400600C790190010AE4F0A311
:0400C000D8FCD9FA95
:1000C4007522627523257524007525007526007533
:1000D40027007528FF752961752AFF752BFF752C7C
:1000E40002752D00752E02752F027530FF7531FFD4
:1000F4007532FF7533FF7534807535637536FF755A
:1001040037FF7538FF7539FF753AFF753BFF753C4E
:10011400FF753DFF753E80753F767540FF7541FF65
:100124007542FF75438775446C7545FF7546FF75C9
:0A01340047FF754801E4F549F54A5C
:02013E00C200FD
:0E0140007808E4F608F608F608F6780C760063
:0B014E00757601E4F577F5787579808F
:02015900C204DE
:02015B00C205DB
:03015D0002006637
:10016100758200122AD3AF827E007D007C008F82CF
:100171008E838DF0EC122DB712193B900148740259
:10018100F075820F1229579001487402F0758210A0
:100191001229579001487402F075820E1229577581
:1001A1008200122BC5AF82758201C007122BC5AE2A
:1001B10082758202C006122BC5AD82758203C0050D
:1001C100122BC5AC82758204C004122BC5AB82759B
:1001D1008205C003122BC585824B758206122BC581
:1001E10085824C758207122BC585824D7582081256
:1001F1002BC5AA82D003D004D005D006D007BFFFFB
:100201000280028F28BEFF0280028E29BDFF02807C
:10021100028D2ABCFF0280028C2CBBFF0280028B64
:100221002D74FFB54B028003854B2E74FFB54C0234
:100231008003854C3074FFB54D028003854D31BA82
:10024100FF0280028A327E007F00C3EE941EEF64BB
:1002510080948050778E0574092DF582C007C00601
:10026100122BC5AD82D006D007BDFF02800CEE2453
:10027100A1F582EF3401F583EDF08E0574272DF59C
:1002810082C007C006122BC5AD82D006D007BDFFC4
:1002910002800CEE24BFF582EF3401F583EDF08E80
:1002A1000574452DF582C007C006122BC5AD82D05D
:1002B10006D007BDFF02800CEE24DDF582EF34018C
:1002C100F583EDF00EBE00010F02024B7E007F00B0
:1002D100C3EE9405EF6480948040030203638E05AE
:1002E10074632DF582C007C006122BC5AD82D006FE
:1002F100D007BDFF028006EE2434F8A6058E0574F2
:10030100682DF582C007C006122BC5AD82D006D07C
:1003110007BDFF028006EE2439F8A6058E05746D2F
:100321002DF582C007C006122BC5AD82D006D007BD
:10033100BDFF028006EE243EF8A6058E0574752DDC
:10034100F582C007C006122BC5AD82D006D007BD0D
:10035100FF028006EE2443F8A6050EBE00010F023F
:1003610002D1758272122BC5AF82BFFF0280028F4C
:100371002B758273122BC5AF82BFFF0280028F2FB4
:10038100758274122BC5AF82BFFF0280028F337555
:10039100827A122BC5AF82BFFF01228F4822121829
:1003A100DCE582700302076A1218E3AF82BF0A021A
:1003B10080ECBF0D0280E7C3749A95497480854A29
:1003C100F063F08095F05005E4F549F54AE54945BB
:1003D1004A7003BF02C87401B5490614B54A0280C8
:1003E10003020751BF030280030207519033C9750D
:1003F100F08012291E90187212268BAB287C007D8A
:10040100007E009001457410F08B828C838DF0EE9C
:100411001228B990187212268BAB297C007D007EC0
:10042100009001457410F08B828C838DF0EE1228C0
:10043100B990187212268BAB2A7C007D007E009049
:1004410001457410F08B828C838DF0EE1228B990E7
:10045100187212268BAB2C7C007D007E0090014629
:100461007410F08B828C838DF0EE1228F990187243
:1004710012268BAB2D7C007D007E0090014674100E
:10048100F08B828C838DF0EE1228F990187212266F
:100491008BAB2E7C007D007E009001467410F08BAA
:1004A100828C838DF0EE1228F990187212268BAB94
:1004B100307C007D007E009001457410F08B828CB1
:1004C100838DF0EE1228B990187212268BAB317C15
:1004D100007D007E009001457410F08B828C838D2D
:1004E100F0EE1228B990187212268BAB327C007D87
:1004F100007E009001457410F08B828C838DF0EEAC
:100501001228B990187212268B7D007E00C3ED94DB
:100511001EEE648094805025ED24A1F582EE340115
:10052100F583E0FCBCFF0280148C82C006C005127A
:100531001872D005D0060DBD00D30E80D012289DB3
:1005410090187212268B7D007E00C3ED941EEE641E
:100551008094805025ED24BFF582EE3401F583E0CF
:10056100FCBCFF0280148C82C006C005121872D038
:1005710005D0060DBD00D30E80D012289D901872B3
:1005810012268B7D007E00C3ED941EEE6480948064
:100591005025ED24DDF582EE3401F583E0FCBCFF4E
:1005A1000280148C82C006C005121872D005D006D4
:1005B1000DBD00D30E80D012289D90187212268B8B
:1005C100E4F54EF54FC3E54E9405E54F6480948004
:1005D100502FE54E2434F987048C027B007C007E89
:1005E100009001457410F08A828B838CF0EE122802
:1005F100B990187212268B054EE4B54EC8054F808E
:10060100C4E4F550F551C3E5509405E55164809477
:1006110080502FE5502439F987048C027B007C003F
:100621007E009001457410F08A828B838CF0EE126B
:1006310028B990187212268B0550E4B550C805519F
:1006410080C4E4F552F553C3E5529405E553648043
:100651009480502FE552243EF987048C027B007C64
:10066100007E009001457410F08A828B838CF0EE3D
:100671001228B990187212268B0552E4B552C8059A
:100681005380C4AB2B7C007D007E0090014574102B
:10069100F08B828C838DF0EE1228B990187212269D
:1006A1008BAB2F7C007D007E009001467410F08B97
:1006B100828C838DF0EE1228F990187212268BAB82
:1006C100337C007D007E009001457410F08B828C9C
:1006D100838DF0EE1228B990187212268B12289D84
:1006E10090187212268BE4F554F555C3E554940520
:1006F100E55564809480502FE5542443F987048C98
:10070100027B007C007E009001457410F08A828B90
:10071100838CF0EE1228B990187212268B0554E4DE
:10072100B554C8055580C4AB487C007D007E00905F
:1007310001467410F08B828C838DF0EE1228F990B3
:10074100187212268B12185AE4F549F54A02039FD2
:10075100E54924FBF582E54A3401F583EFF00549CB
:10076100E4B54902054A02039F749BB54906E4B505
:100771004A028003020961E4F549F54A9001FBE070
:10078100FFBF02028003020961900295E0FFBF03EF
:1007910002800302096190010F74CCF07433A3F05D
:1007A1007480A3F09018721225CF12185A7E007F20
:1007B10000C3EE9475EF64809480502774012EFC81
:1007C100E43FFDEC24FBF582ED3401F583E0F58295
:1007D1008E83C005C004122B8FD004D0058C068DEA
:1007E1000780CE90028FE0F582758375122B8F9072
:1007F1000290E0F582758376122B8F900291E0F5DD
:1008010082758377122B8F900292E0F5827583783F
:10081100122B8F900293E0F582758379122B8F90C2
:100821000294E0F58275837A122B8F9001FCE0F53A
:10083100289001FDE0F5299001FEE0F52A9001FFE5
:10084100E0F52C900200E0F52D900201E0F52E90EC
:100851000202E0F530900203E0F531900204E0F588
:10086100327E007F00C3EE941EEF64809480506559
:10087100EE24A1FCEF3401FD740A2EFAE43FFBEAF9
:1008810024FBF582EB3401F583E08C828D83F0EE5D
:1008910024BFFCEF3401FD74282EFAE43FFBEA2467
:1008A100FBF582EB3401F583E08C828D83F0EE243D
:1008B100DDFCEF3401FD74462EFAE43FFBEA24FB34
:1008C100F582EB3401F583E0FB8C828D83F00EBE63
:1008D10000930F80907E007F00C3EE9405EF64804B
:1008E10094805064EE2434F974642EFCE43FFDECF2
:1008F10024FBF582ED3401F583E0F7EE2439F97438
:10090100692EFCE43FFDEC24FBF582ED3401F58317
:10091100E0F7EE243EF9746E2EFCE43FFDEC24FB7F
:10092100F582ED3401F583E0F7EE2443F974942E5A
:10093100FCE43FFDEC24FBF582ED3401F583E0FDA1
:10094100F70EBE00940F809190026EE0F52B90029D
:100951006FE0F52F900270E0F533900294E0F548D6
:1009610075820F122A0EE582B40100E433FF75820D
:1009710010C007122A0EAE82D007EEB40100E43394
:10098100F55675820EC007122A0EAD82D007EDB45E
:100991000100E433F5577401B548028003020DEC00
:1009A100E5276003020D47EFB52403020DEFE5567D
:1009B100B52503020DEFE557B52603020DEFEF70E4
:1009C10003020DEFE5567003020DEFE557700302C8
:1009D1000DEF7527018F24855625855726E52F7044
:1009E1000D852B82C007121A5FD007020DEF74012B
:1009F100B52F3574FFB53302801CAC337B00AA2BB5
:100A01007D00EA2BFBED3CFC8B828C83C007121B23
:100A1100B9D007020DEFAC2B7D008C828D83C0070E
:100A2100121BB9D007020DEF7402B52F357C007D82
:100A310000C3EC9405ED648094804003020DEFEC5B
:100A41002443F98703BBFF0280118B82C007C005D5
:100A5100C004121A5FD004D005D0070CBC00D20D1F
:100A610080CF7403B52F03020DEF7404B52F63E536
:100A710033700D852B82C007121CCED007020DEFFB
:100A81007401B53336852B82C007121CCE75820FD7
:100A9100122A0EE582D007701C758210C007122A37
:100AA1000EE582D007700E75820EC007122A0EE580
:100AB10082D00760D0752700020DEF7402B53302B2
:100AC1008003020DEF852B82C007121C9DD0070207
:100AD1000DEF7405B52F028003020B96900014E40C
:100AE100F5F0C007122DCCE58224F6FA900014E44B
:100AF100F5F0C002122DCCAB82D002EB24F6F5103A
:100B01008A82121CF5900064E4F5F0122C92758231
:100B11000F122A0EE582D007701C758210C00712D1
:100B21002A0EE582D007700E75820EC007122A0EBA
:100B3100E582D00760A6900014E4F5F0C007122DFD
:100B4100CCE58224F6FB900014E4F5F0C003122DED
:100B5100CCAA82D003EA24F6F5108B82121CF59000
:100B61000064E4F5F0122C9275820F122A0EE582D0
:100B7100D00770C2758210C007122A0EE582D00715
:100B810070B475820EC007122A0EE582D00770A6D6
:100B9100F527020DEF7406B52F6D7401B53317E516
:100BA1002B24E1FEC3E49EF510758200C007121CE0
:100BB100F5D007020DEF7402B53313E52B24E1F5EF
:100BC10010758200C007121CF5D007020DEF7403E7
:100BD100B53317E52B24E1FEC3E49EF582751000C1
:100BE100C007121CF5D007020DEF7404B533028063
:100BF10003020DEFE52B24E1F582751000C0071209
:100C01001CF5D007020DEF7407B52F028003020C0B
:100C1100B07401B53316E52B24E1FEC3E49EF51053
:100C2100758200C007121CF5D00780477402B533E6
:100C310012E52B24E1F510758200C007121CF5D0D6
:100C41000780307403B53316E52B24E1FEC3E49E1F
:100C5100F582751000C007121CF5D00780157404C9
:100C6100B53310E52B24E1F582751000C007121C85
:100C7100F5D007900064E4F5F0C007122C9275825C
:100C81000F122A0EE582D007701F758210C007125D
:100C91002A0EE582D007701175820EC007122A0E46
:100CA100E582D0077003020C12752700020DEF7464
:100CB10008B52F2C7401B5330D852B82C007121D89
:100CC10015D007020DEF7402B533028003020DEF58
:100CD100C3E4952BF582C007121D15D007020DEF55
:100CE1007409B52F028003020DEF7401B5330C8531
:100CF1002B82C007121D15D00780127402B5330D67
:100D0100C3E4952BF582C007121D15D0079000642E
:100D1100E4F5F0C007122C9275820F122A0EE582BB
:100D2100D007701C758210C007122A0EE582D00709
:100D3100700E75820EC007122A0EE582D00760AAD6
:100D4100752700020DEFEF600BE5566007E5576070
:100D510003020DEF8F24855625855726E52F700C4C
:100D6100852B82C007121B20D007807A7401B52F12
:100D71003174FFB533028019AE337D00AB2B7C009B
:100D8100EB2DFDEC3EFE8D828E83C007121C46D0FA
:100D910007AD2B7E008D828E83C007121C46D007C3
:100DA10080447402B52F2B7D047E00EE20E737EDE1
:100DB1002443F98704BCFF0280118C82C007C0065E
:100DC100C005121B20D005D006D0071DBDFF011E96
:100DD10080D97404B52F0F7402B5330A852B82C0F4
:100DE10007121CB4D0077527008003752700E5277B
:100DF1006003021790EFB52403021128EFF5247068
:100E0100030210B2E52C7009852882121A5F0211C3
:100E1100287401B52C2A74FFB530028015AF307EDD
:100E210000AC287D00EC2EFEED3FFF8E828F8312F9
:100E31001BB9AE287F008E828F83121BB902112845
:100E41007402B52C317E007F00C3EE9405EF6480FF
:100E510094804003021128EE2434F98705BDFF0276
:100E6100800D8D82C007C006121A5FD006D0070E12
:100E7100BE00D60F80D37403B52C477E007F00C31C
:100E8100EE941EEF648094805025EE24A1F582EF4C
:100E91003401F583E0FDBDFF0280148D82C007C0DF
:100EA10006121C86D006D0070EBE00D30F80D07468
:100EB10001B5300280030211287582B0121C86022E
:100EC10011287404B52C38E5307009852882121C6C
:100ED100CE0211287401B53013852882121CCE75FB
:100EE100820F122A0EE58260F00211287402B530D9
:100EF100028003021128852882121C9D0211287488
:100F010005B52C0280028077900014E4F5F0122DD3
:100F1100CCE58224F6FC900014E4F5F0C004122D17
:100F2100CCAB82D004EB24F6F5108C82121CF59028
:100F31000064E4F5F0122C9275820F122A0EE582FC
:100F410060C6900014E4F5F0122DCCE58224F6FC85
:100F5100900014E4F5F0C004122DCCAB82D004EB68
:100F610024F6F5108C82121CF5900064E4F5F01261
:100F71002C9275820F122A0EE58270C60211287416
:100F810006B52C5D7401B53013E52824E1FFC3E4F7
:100F91009FF510758200121CF50211287402B530FC
:100FA1000FE52824E1F510758200121CF5021128C5
:100FB1007403B53013E52824E1FFC3E49FF582757E
:100FC1001000121CF50211287404B53002800302CE
:100FD1001128E52824E1F582751000121CF5021193
:100FE100287407B52C687401B53012E52824E1FF97
:100FF100C3E49FF510758200121CF5803B7402B5A5
:10100100300EE52824E1F510758200121CF58028C8
:101011007403B53012E52824E1FFC3E49FF582751E
:101021001000121CF580117404B5300CE52824E180
:10103100F582751000121CF5900064E4F5F0122C95
:101041009275820F122A0EE582609B0211287408A4
:10105100B52C247401B53009852882121D150211A1
:10106100287402B530028003021128C3E49528F5E3
:1010710082121D150211287409B52C028003021178
:10108100287401B53008852882121D15800E74025E
:10109100B53009C3E49528F582121D15900064E46A
:1010A100F5F0122C9275820F122A0EE58260D28021
:1010B10076E52C7008852882121B20806A7401B5A0
:1010C1002C2974FFB530028015AF307E00AC287D2D
:1010D10000EC2EFEED3FFF8E828F83121C46AE2860
:1010E1007F008E828F83121C46803C7402B52C27B0
:1010F1007E047F00EF20E72FEE2434F98705BDFF42
:1011010002800D8D82C007C006121B20D006D007B9
:101111001EBEFF011F80DD7404B52C0B7402B530B7
:1011210006852882121CB4E556B5250302145CE538
:1011310056F52570030213E6E52D70098529821203
:101141001A5F02145C7401B52D2A74FFB531028057
:1011510015AF317E00AC297D00EC2EFEED3FFF8EF8
:10116100828F83121BB9AE297F008E828F83121B5F
:10117100B902145C7402B52D317E007F00C3EE9478
:1011810005EF64809480400302145CEE2439F987F2
:1011910005BDFF02800D8D82C007C006121A5FD007
:1011A10006D0070EBE00D60F80D37403B52D477E3F
:1011B100007F00C3EE941EEF648094805025EE24DE
:1011C100BFF582EF3401F583E0FDBDFF0280148D90
:1011D10082C007C006121C86D006D0070EBE00D3FF
:1011E1000F80D07401B53102800302145C7582B0A6
:1011F100121C8602145C7404B52D38E53170098522
:101201002982121CCE02145C7401B5311385298226
:10121100121CCE758210122A0EE58260F002145C57
:101221007402B53102800302145C852982121C9D6F
:1012310002145C7405B52D0280028077900014E4DD
:10124100F5F0122DCCE58224F6FC900014E4F5F0C3
:10125100C004122DCCAB82D004EB24F6F5108C82A5
:10126100121CF5900064E4F5F0122C9275821012B4
:101271002A0EE58260C6900014E4F5F0122DCCE54B
:101281008224F6FC900014E4F5F0C004122DCCABDE
:1012910082D004EB24F6F5108C82121CF5900064C8
:1012A100E4F5F0122C92758210122A0EE58270C6B6
:1012B10002145C7406B52D5D7401B53113E5292462
:1012C100E1FFC3E49FF510758200121CF502145C66
:1012D1007402B5310FE52924E1F510758200121C65
:1012E100F502145C7403B53113E52924E1FFC3E46D
:1012F1009FF582751000121CF502145C7404B5315F
:1013010002800302145CE52924E1F58275100012C4
:101311001CF502145C7407B52D687401B53112E532
:101321002924E1FFC3E49FF510758200121CF580AA
:101331003B7402B5310EE52924E1F51075820012E6
:101341001CF580287403B53112E52924E1FFC3E4BB
:101351009FF582751000121CF580117404B5310CD3
:10136100E52924E1F582751000121CF5900064E472
:10137100F5F0122C92758210122A0EE582609B0202
:10138100145C7408B52D247401B5310985298212C4
:101391001D1502145C7402B53102800302145CC392
:1013A100E49529F582121D1502145C7409B52D020C
:1013B100800302145C7401B53108852982121D1560
:1013C100800E7402B53109C3E49529F582121D1509
:1013D100900064E4F5F0122C92758210122A0EE549
:1013E1008260D28076E52D7008852982121B2080CB
:1013F1006A7401B52D2974FFB531028015AF317EB4
:1014010000AC297D00EC2EFEED3FFF8E828F831212
:101411001C46AE297F008E828F83121C46803C744D
:1014210002B52D277E047F00EF20E72FEE2439F946
:101431008705BDFF02800D8D82C007C006121B20EB
:10144100D006D0071EBEFF011F80DD7404B52D0B31
:101451007402B53106852982121CB4E557B52603FD
:10146100021790E557F526700302171AE52E700949
:10147100852A82121A5F0217907401B52E2A74FF11
:10148100B532028015AF327E00AC2A7D00EC2EFE13
:10149100ED3FFF8E828F83121BB9AE2A7F008E82B1
:1014A1008F83121BB90217907402B52E317E007F13
:1014B10000C3EE9405EF648094804003021790EE20
:1014C100243EF98705BDFF02800D8D82C007C0064D
:1014D100121A5FD006D0070EBE00D60F80D3740358
:1014E100B52E477E007F00C3EE941EEF648094808A
:1014F1005025EE24DDF582EF3401F583E0FDBDFFDB
:101501000280148D82C007C006121C86D006D00747
:101511000EBE00D30F80D07401B5320280030217D2
:10152100907582B0121C860217907404B52E38E5AE
:10153100327009852A82121CCE0217907401B532CD
:1015410013852A82121CCE75820E122A0EE5826044
:10155100F00217907402B532028003021790852AB7
:1015610082121C9D0217907405B52E0280028077AD
:10157100900014E4F5F0122DCCE58224F6FC9000E5
:1015810014E4F5F0C004122DCCAB82D004EB24F6A8
:10159100F5108C82121CF5900064E4F5F0122C9287
:1015A10075820E122A0EE58260C6900014E4F5F0F1
:1015B100122DCCE58224F6FC900014E4F5F0C00471
:1015C100122DCCAB82D004EB24F6F5108C82121CC8
:1015D100F5900064E4F5F0122C9275820E122A0E39
:1015E100E58270C60217907406B52E5D7401B5329E
:1015F10013E52A24E1FFC3E49FF510758200121C54
:10160100F50217907402B5320FE52A24E1F5107541
:101611008200121CF50217907403B53213E52A24D7
:10162100E1FFC3E49FF582751000121CF5021790CB
:101631007404B532028003021790E52A24E1F58291
:10164100751000121CF50217907407B52E6874010D
:10165100B53212E52A24E1FFC3E49FF5107582003B
:10166100121CF5803B7402B5320EE52A24E1F51017
:10167100758200121CF580287403B53212E52A2404
:10168100E1FFC3E49FF582751000121CF58011740F
:1016910004B5320CE52A24E1F582751000121CF51F
:1016A100900064E4F5F0122C9275820E122A0EE578
:1016B10082609B0217907408B52E247401B532091B
:1016C100852A82121D150217907402B53202800319
:1016D100021790C3E4952AF582121D150217907422
:1016E10009B52E0280030217907401B53208852ACC
:1016F10082121D15800E7402B53209C3E4952AF5D4
:1017010082121D15900064E4F5F0122C9275820E80
:10171100122A0EE58260D28076E52E7008852A8233
:10172100121B20806A7401B52E2974FFB532028024
:1017310015AF327E00AC2A7D00EC2EFEED3FFF8E10
:10174100828F83121C46AE2A7F008E828F83121CE9
:1017510046803C7402B52E277E047F00EF20E72FE0
:10176100EE243EF98705BDFF02800D8D82C007C0C2
:1017710006121B20D006D0071EBEFF011F80DD749C
:1017810004B52E0B7402B53206852A82121CB49060
:081791000032E4F5F0022C9295
:1017990090029DE4F0C200227F00C3E5DB9407922A
:1017A9000140067D077E008004ADDB7E008F037C4F
:1017B90000C3EB9DEC64808EF063F08095F05017C8
:1017C900EF2496FDE43402FE8F82758300E0FC8DE0
:1017D900828E83F00F80C3227F008F057E00C3EDC8
:1017E9009407EE940050188F057E00EF2496F58239
:1017F900E43402F583E0FC8D828E83F00F80DB9068
:10180900000722900002E0FF90029FF0E020E03004
:10181900900296E0FCA3E0FDA3E0FEA3E0FFBCB0CC
:101829001FBD041CBE0019BF001675E200C2AF90AF
:10183900C350122D4390C350122D4312380080FE1D
:1018490022757A0090029FE06003757A01857A8299
:10185900222000149002A0E0FFE0600C8FD553D441
:10186900FCD2009002A0E4F022AF8290029FE060D7
:101879005E7D007E003000240DBD00010E90000544
:10188900C007C006C005122D43D005D006D007C336
:10189900ED9450EE94C340DD758200229002A0E0E1
:1018A900FEBE400050207D0074402EFEE43DFDEE5A
:1018B9002414F582ED3400F583EFF09002A0E024C2
:1018C90001F075820122C00712185AD00780A2754B
:1018D90082002290029DE0F5822290029DE0700331
:1018E900F5822290029EE02414F582E43400F58307
:1018F900E0FF90029EE004F090029DE014F0E07099
:101909000353D4F38F822275D50074FC55D4440255
:10191900F5D4C2002230DE1990029DE5DBF0900279
:101929009EE4F090029DE0600874F355D44408F5F4
:10193900D42212232D12235712234675DD0075D3A5
:081949000075D50075D70022DE
:1019510075D70074FC55D64402F5D69002A1E4F087
:1019610022AE82AF8390010AE07003F582227C00EF
:101971007D009002A1E060280CBC00010D900005E3
:10198100C007C006C005C004122D43D004D005D045
:1019910006D007C3EC9450ED94C340D67582002263
:1019A1008E059000E0EDF0BE0137BF00347D00BD33
:1019B100080050278D037C0074412BFBE43CFCEBB9
:1019C10024A0FBEC3400FCED24A2F582E43402F502
:1019D10083E0FA8B828C83F00D80D475D709021ACB
:1019E10052BE0236BF00337D00BD080050278D0373
:1019F1007C0074412BFBE43CFCEB24A0FBEC3400A9
:101A0100FCED24AAF582E43402F583E0FA8B828CA2
:101A110083F00D80D475D7098037BE0334BF003100
:101A21007F00BF040050278F057E0074412DFDE427
:101A31003EFEED24A0FDEE3400FEEF24B2F582E47B
:101A41003402F583E0FC8D828E83F00F80D475D74C
:101A5100059002A17401F053D6FC75820122AF8278
:101A6100BF880040088F06EE2478FE8042BF8000C8
:101A710040239002A2E0FD8F04EC2480F5F005F0F4
:101A81007401800225E0D5F0FBFC42059002A2ED35
:101A9100F07E00801AEF9033CE93FE7003F5822220
:101AA100EE30E70B9002A2E04402FFF053067F9074
:101AB10002A4E0FFB50602805C9002A5E0FFB50636
:101AC1000280529002A6E0FFB5060280489002A76C
:101AD100E0FFB50602803E9002A8E0FFB506028055
:101AE100349002A9E0FFB50602802A7F027D02ED53
:101AF10024A2FBE43402FC8B828C83E070088B828D
:101B01008C83EEF080080D8D07BD080040E1BF0811
:101B1100047582002290000112196275820122AFC0
:101B210082BF880040088F06EE2478FE8043BF8084
:101B31000040249002A2E0FD8F04EC2480F5F00522
:101B4100F07401800225E0D5F0FBF4FC520590020F
:101B5100A2EDF07E00801AEF9033CE93FE7003F574
:101B61008222EE30E70B9002A2E054FDFFF0530613
:101B71007F7F02EE6016EF24A2FCE43402FD8C822A
:101B81008D83E0B506068C828D83E4F00FBF0800DB
:101B910040E1900001121962758201227F00BF08A5
:101BA10000500FEF24A2F582E43402F583E4F00F34
:101BB10080EC900001021962AE82AF839002AAE02C
:101BC100FCA3E0FDECB50606EDB50702806D9002C1
:101BD100ACE0FCA3E0FDECB50606EDB50702805BC9
:101BE1009002AEE0FCA3E0FDECB50606EDB5070200
:101BF10080499002B0E0FCA3E0FDECB50606EDB52E
:101C0100070280377D007C00EC75F002A424AAFA5B
:101C1100740235F0FB8A828B83E0F8A3E0F9487007
:101C21000B8A828B83EEF0EFA3F080080C8C05BC4D
:101C3100040040D4BD0404758200229000021219F0
:101C41006275820122AE82AF837D00EE4F6026ED88
:101C510075F002A424AAFB740235F0FC8B828C83FC
:101C6100E0F9A3E0FAE9B5060CEAB507088B828C26
:101C710083E4F0A3F00DBD040040D09000021219DE
:101C81006275820122AF82C007121A5FAE82D0074D
:101C91008F82C006121B20D0068E8222AF82900254
:101CA100B2E042079002B2EFF090000312196275A0
:101CB100820122AF829002B2E0FEEFF4520690025E
:101CC100B2EEF090000312196275820122AF829088
:101CD10002B3E4F09002B4F09002B5F08F82C00735
:101CE100121C9D902710122D43D0078F82121CB415
:101CF10075820122AF829002B3EFF09002B4E51039
:101D0100F09002B2E4F09002B5F090000312196273
:101D110075820122AF829002B5EFF09002B2E4F039
:101D21009002B3F09002B4F0900003121962758230
:021D310001228D
:101D3300AFDBBF08028003022186900007E0FE7F2D
:101D430000900006E0FD7C004FF511EC4EF5127F8C
:101D530000900001E0F513900000E0FE5460605332
:101D6300900000E0FE5306607D00BE2005BD00022A
:101D7300800BBE4039BD00367FFF0221887420B539
:101D830013030221887421B5130280077422B5134B
:101D930018800C1217E1AD82AE838D07022188C033
:101DA3000712180CD0070221887FFF0221887FFFCA
:101DB300022188E51324F45003022182E513240B46
:101DC30083F582E513241083F583E47364928252CE
:101DD300825CE78269868888211F2120211F1D21BB
:101DE3001F1F2121900003E0FEBE01028013BE02EB
:101DF300028023BE03028033BE2203021ECE021ED4
:101E0300EC75144E751534903460E493FD740193AE
:101E1300FE8D07021EEE75146275153490355DE470
:101E230093FD740193FE8D07021EEE900002E07095
:101E33001575145F751535903563E493FD7401933F
:101E4300FE8D07021EEE900002E0FEBE0115751422
:101E5300A57515359035B3E493FD740193FE8D0795
:101E6300021EEE900002E0FEBE0214751473751597
:101E730035903589E493FD740193FE8D07806C9052
:101E83000002E0FEBE0314751465751535903571B7
:101E9300E493FD740193FE8D078050900002E0FEF1
:101EA300BE041475148B7515359035A3E493FD7436
:101EB3000193FE8D07803475146575153590357162
:101EC300E493FD740193FE8D078020900002E0707F
:101ED300147514C87515349034C6E493FD740193D6
:101EE300FE8D0780067FFF80027FFFBFFF03022175
:101EF300888F057E00C3ED9511EE951250048D1168
:101F03008E12AD11AE12C3ED9408EE94009202400E
:101F1300067B087C008004AB11AC128B077C00C3EA
:101F2300EC9F50198C027B00EC2514F582E43515E7
:101F3300F583E493F98A828B83F00C80E28F037C30
:101F430000EDC39BFDEE9CFE8D118E12EF2514F563
:101F530014E43515F515022188900002E0FE8E1178
:101F630075120002218890010AE0900000F0AD1183
:101F7300AE12C3ED9401EE940050030221887F0159
:101F8300022188900002E0FE90010AF0022188906D
:101F93000000E0541F702F900003E0FD7E009000CE
:101FA30002E0FC7B004206EB4205BE0114BD0011BA
:101FB300903469E493FE30E5030221887FFF022118
:101FC300887FFF022188900000E0FE53061F7D00FA
:101FD300BE0277BD0074900004E0FEBE0102805F84
:101FE300BE02028049BE03028033BE0402801DBECE
:101FF30081028040BE8202802ABE83028014BE8496
:102003004474BC55DE4402F5DE02218853DE7302BC
:10201300218874BC55D64402F5D602218853D67361
:1020230002218874BC55D44402F5D402218853D4C8
:102033007302218874BC55D24402F5D2022188531D
:10204300D2730221887FFF0221887FFF02218890BB
:102053000000E0541F702F900003E0FD7E0090000D
:1020630002E0FC7B004206EB4205BE0114BD0011F9
:10207300903469E493FE30E5030221887FFF022157
:10208300887FFF022188900000E0FE53061F7D0039
:10209300BE0205BD00028003022160900003E0FD43
:1020A3007E00900002E0FC7B004206EB4205EE4D11
:1020B300600302215C900005E0FD7E00900004E0D7
:1020C300FC7B004206EB4205BE0106BD0003022174
:1020D30050BE0205BD00028060BE0305BD00028044
:1020E30044BE0405BD00028028BE8105BD000280F8
:1020F30052BE8205BD00028036BE8305BD0002804C
:102103001ABE8451BD004E74BF55DE4403F5DE8014
:1021130074747F55DE440CF5DE806A74BF55D64473
:1021230003F5D68060747F55D6440CF5D68056747B
:10213300BF55D44403F5D4804C747F55D4440CF577
:10214300D4804274BF55D24403F5D28038747F558E
:10215300D2440CF5D27FFF802C7FFF80287FFF8045
:1021630024900000E4F0900001F0AD11AE12C3ED35
:102173009402EE940040047F02800AAF1180067F30
:10218300FF80027FFFBFFF077513FF75DCCF22EFD0
:1021930024F740068FDD75DCC02275DD0075DCC0D9
:1021A300227405B51302805D7406B51366AE11AFD4
:1021B30012C3EE9408EF9400920340067C087D005E
:1021C3008004AC11AD127D00C3ED9C50198D027BD0
:1021D30000ED2514F582E43515F583E493F98A823D
:1021E3008B83F00D80E28C037D00EEC39BFEEF9D9D
:1021F300FF8E118F12EC2514F514E43515F5158CAB
:10220300DD63DC4022E5E35480FFE5114FF5E37520
:10221300DC022275DD0075DC02227420B5130D305B
:10222300DE101217A175DD0085DCDC2275DD0043AD
:10223300DC022275D30074FC55D24402F5D22290FD
:1022430002B67401F075D30853D2FC7582012220C3
:10225300D903022303E5D9540FFFADD95305307ECB
:1022630000BD0005BE0002801CBD1005BE0002803B
:1022730037BD2005BE00028044BD3006BE00030208
:1022830022E9022301EF24FB5003022301EF2F90E5
:1022930022967380088067800A8063806112221D02
:1022A30002230112191E8056EF24FB4051EF2F9099
:1022B30022B67380498047804580438041EF24FBE9
:1022C300403CEF2F9022CB738008800B800E80114F
:1022D300802C1221A480271222368022121910800A
:1022E3001D1219518018EF24FB4013EF2F9022F495
:1022F3007380088009800780058003121D33C2D9CB
:1023030030D81A75DC0275D21275D41275E300C287
:10231300DAC2D9C2D890010AE4F012179910DA018F
:1023230022E5DA20E20375D8FF2275E20053E27F4B
:1023330043E22975E30053E2BF53D1FB75D18043D8
:10234300D1012243E10443E10243E10143D81FD217
:10235300EAD2AF227E007F008EEC8FED7E0A7F00F3
:102363008EEE8FEF7E147F008EE48FE57EA07F00DC
:102373008EE68FE775EB0C43EB4043EB8075D2128F
:0D23830075D41275D61275EA4075DC022281
:10239100C021C0E0C0F0C082C083C007C006C00534
:1023A100C004C003C002C001C000C0D075D000127B
:1023B1002252D0D0D000D001D002D003D004D00519
:1023C100D006D007D083D082D0F0D0E0D02132C067
:1023D10021C0E0C0F0C082C083C007C006C005C0F4
:1023E10004C003C002C001C000C0D075D000309845
:1023F10005123252C298309905123288C299D0D052
:10240100D000D001D002D003D004D005D006D0072F
:10241100D083D082D0F0D0E0D02132C021C0E0C042
:10242100F0C082C083C007C006C005C004C003C09D
:1024310002C001C000C0D075D00030C0051232CC3E
:10244100C2C030C105123302C2C1D0D0D000D00108
:10245100D002D003D004D005D006D007D083D082DB
:10246100D0F0D0E0D02132C021C0E0C0F0C082C0A5
:1024710083C007C006C005C004C003C002C001C0BC
:1024810000C0D075D0009002B9E0FEA3E0FFC00704
:10249100C0068E828F83120069D006D007D0D0D0BB
:1024A10000D001D002D003D004D005D006D007D08F
:1024B10083D082D0F0D0E0D02132C021C0E0C0F082
:1024C100C082C083C007C006C005C004C003C002EB
:1024D100C001C000C0D075D0009002BBE0FEA3E0F7
:1024E100FFC007C0068E828F83120069D006D00715
:1024F100D0D0D000D001D002D003D004D005D00676
:10250100D007D083D082D0F0D0E0D02132C021C01A
:10251100E0C0F0C082C083C007C006C005C004C0CF
:1025210003C002C001C000C0D075D0009002B7E066
:10253100FEA3E04E600E9002B7E0F8A3E0F58388B9
:1025410082120069D0D0D000D001D002D003D004D3
:10255100D005D006D007D083D082D0F0D0E0D021F2
:1025610032122D7E12016112039F80FB75820022BF
:10257100AE82AF8390010BE0FBA3E0FCA3E0FD7A08
:102581000090010EE0F9890019E8603F8B828C838D
:102591008DF01231C8F8A3AB82AC83C007C006C06E
:1025A10005C004C003C002C0011225AF8007C006E8
:1025B100C007888222A882D001D002D003D004D0E3
:1025C10005D006D007E860030A80BB8A8222AE826A
:1025D100AF8390010FE0FBA3E0FCA3E0FD90010FAE
:1025E100E0F5F0A3E045F07003F582227A008B82DA
:1025F1008C838DF01231C8F9A3AB82AC83E9F8600A
:102601002CC007C006C005C004C003C002122613B7
:102611008007C006C007888222A982D002D003D0D9
:1026210004D005D006D007E960030A80C18A82225E
:10263100AE82AF83900112E0FAA3E0FBA3E0FCA31A
:10264100E0FD90011AEAF0EBA3F0ECA3F0EDA3F0AA
:1026510090011E740AF08E828F830226C2AE82AF71
:1026610083900116E0FAA3E0FBA3E0FCA3E0FD9058
:102671000140EAF0EBA3F0ECA3F0EDA3F0900144EC
:10268100740AF08E828F830227A7AE82AF83C007C0
:10269100C0061226988008C006C00775820D22ADBB
:1026A10082D006D007C007C0051226AF8008C00639
:1026B100C00775820A22AE82D005D007EE2DF582C1
:1026C1002285825885835990013FE4F090011EE0F4
:1026D100FDBD0200500690011E740AF090011EE03B
:1026E100F55A7B3F7C0190011AE0F55BA3E0F55CB4
:1026F100A3E0F55DA3E0F55E855A5F756000756145
:1027010000756200855F7A85607B85617C85627D6D
:10271100855B82855C83855DF0E55EC004C0031244
:102721002F9EA882855F7A85607B85617C85627D2D
:10273100855B82855C83855DF0E55EC00012307348
:10274100AA82AD83AEF0FFD000D003D00490011A6D
:10275100EAF0EDA3F0EEA3F0EFA3F01BBBFF011C29
:102761008B068C07B80A005008880574302DFD804F
:1027710004743728FD8E828F83EDF090011AE0F505
:10278100F0A3E042F0A3E042F0A3E045F0600302D1
:1027910026E790010FEBF0ECA3F0E4A3F08558825B
:1027A1008559830225CF858263858364900144E046
:1027B100FD7019900140E0F9A3E0FAA3E0FBA3E06A
:1027C100FC0227C5C063C06489822222BD0A02803F
:1027D10003022872900140E0F9A3E0FAA3E0FBA311
:1027E100E0FC30E76FC004C003C002C0011227F350
:1027F1008008C063C06475822D22A882D001D002F6
:10280100D003D0048865900140C3E499F0E49AA311
:10281100F0E49BA3F0E49CA3F0900140E0F566A3F3
:10282100E0F567A3E0F568A3E0F56990011AE566B4
:10283100F0E567A3F0E568A3F0E569A3F090011E58
:10284100740AF08563828564831226C2AF82E565CE
:102851002FF5822290011AE9F0EAA3F0EBA3F0EC44
:10286100A3F090011E740AF08563828564830226B9
:10287100C2900140E0FBA3E0FCA3E0FEA3E0FF90D7
:10288100011AEBF0ECA3F0EEA3F0EFA3F090011E20
:0B289100EDF08563828564830226C29F
:10289D0022AC82AD83AEF0FF900116ECF0EDA3F00B
:1028AD00EEA3F0EFA3F090187202265EAC82AD831A
:1028BD00AEF0FF900145E0FB900140ECF0EDA3F090
:1028CD00EEA3F0EFA3F0900144EBF0901872022705
:1028DD00A7AC82AD83AEF0FF900112ECF0EDA3F04A
:1028ED00EEA3F0EFA3F0901872022631AC82AD8307
:1028FD00AEF0FF900146E0FB900140ECF0EDA3F04F
:10290D00EEA3F0EFA3F0900144EBF09018720227C4
:10291D00A7AD82AE83AFF090010FEDF0EEA3F0EF17
:10292D00A3F09018720225CFAD82AE83AFF0900167
:10293D0047E0FC90010BEDF0EEA3F0EFA3F090015A
:09294D000EECF0901872022571E5
:10295700E582FF90360593FEEF9035DD93FF70011A
:1029670022900148E0FD701BBF0209EEF4FC529271
:10297700EC529322BF0402800122EEF4FC5296EC43
:10298700529722BD0214BF0207EE4292EE429322F3
:10299700BF0439EE4296EE429722BD0116BF0208E8
:1029A700EEF45292EE429322BF0421EEF45296EED9
:1029B700429722BD0316BF0208EE4292EEF45293ED
:1029C70022BF0408EE4296EEF4FE529722AF82BF72
:1029D7000102800FBF02028013BF03028017BF04EA
:1029E70025801BE5C620E21E539DFB22E5C620E39A
:1029F70015539DF722E5C630E20C539DFB22E5C631
:102A070030E303539DF722E582FF9035B593FEEF40
:102A170090360593FDEF9035DD93FF7003F5822225
:102A2700EE600D8E82C007C0051229D4D005D007ED
:102A37007E00BF0202800ABF03028009BF040C8028
:102A470008AE908006AEA08002AEB0ED5E60047561
:102A570082012275820022E582FF9035B593FEEF51
:102A670090360593FDEF9035DD93FFEE600D8E8276
:102A7700C007C0051229D4D005D007A2AFE433FEA2
:102A8700C2AFBF0202800ABF03028017BF043680AD
:102A970024900149E07007EDF4FF52908027ED4242
:102AA700908022900149E07007EDF4FF52A0801555
:102AB700ED42A08010900149E07007EDF4FF52B09D
:0B2AC7008003ED42B0EE6002D2AF22AF
:102AD300E58290362D93FFBFFF0475820022759A1D
:102AE3000974FC5580FE74035F4EF580D284208404
:102AF300FD859F8222AF829001487401F08F82C0CE
:102B030007122957D00790014AE0FDA3E0FE4D705C
:102B13000A900149E4F08F82022A5E8D038E0474C9
:102B2300FF2C500B9001497401F08F82022A5EEF53
:102B33009035B593FA24FB4034EA2A902B427380F4
:102B43002C8006800D8014801B53C6FB439D048D8F
:102B53009C2253C6F7439D088D9B2243C604439D85
:102B6300048D9C2243C608439D088D9B22C3EB948E
:102B730080EC9400500A900149E4F08F82022A5EAF
:0B2B83009001497401F08F82022A5E6D
:102B8F00AE82AF838F05BD800040012275A15575C0
:102B9F00A1AA43B10475A1007585C0ED2DF5848EF2
:102BAF008EE58630E60375869A75A15575A1AA53F1
:102BBF00B1FB75A10022AF827585C0EF2FF584752B
:102BCF00868E858E8222C0D075D00808B8000D0978
:102BDF00B900090ABA00050BBB00010CD0D032A214
:102BEF00AFC2AFA808A909AA0AAB0BAC8A8588F0B7
:102BFF0092AF30F51274012C600D08B8000909B9B5
:102C0F0000050ABA00010BC3EC9406FCECC313FCDD
:102C1F0075F07DE8A4F8ADF075F07DE9A42DF9E429
:102C2F0035F0FD75F07DEAA42DFAE435F0FD75F071
:102C3F007DEBA42DFB7D00EC28F582E93DF583EAC1
:102C4F003DF5F0EB3D22A2AFC2AFA808A909AA0A31
:102C5F00AB0BAC0C92AF75F020E8A4A8F075F02088
:102C6F00E9A428F582A8F075F020EAA428F583A836
:102C7F00F075F020EBA428F9A8F075F020ECA4284B
:102C8F0089F02285826A85836B85F06CF56D122B36
:102C9F00EE85826E85836F85F070F571E56A456B01
:102CAF00456C456D700122A86AA96BAA6CAB6D8546
:102CBF006E72856F73857074857175E8494A4B60C4
:102CCF00DBC003C002C001C000122BEEAC82AD838B
:102CDF00AEF0FFD000D001D002D003ECC39572FC50
:102CEF00ED9573FDEE9574FEEF9575FFC3EC94E8CB
:102CFF00ED9403EE9400EF940040A118B8FF09196A
:102D0F00B9FF051ABAFF011B886A896B8A6C8B6D34
:102D1F0074E82572F57274033573F573E43574F541
:102D2F0074E43575F57585726E85736F857470856E
:102D3F0075718087AE82AF83C374019EE49F40029A
:102D4F002200C374029EFE74009FFF00BE0005BFE9
:102D5F000002002200000000000000000000000040
:102D6F0000000000000EBE00EB0FBF00ED0022754B
:102D7F00A15575A1AA74F855B94406F5B975A10006
:102D8F00901388122D43759E5D759D0074F05589C3
:102D9F004402F58953C9EF758C06C28DD2A9D28C26
:032DAF00D2AF227E
:012DB30032ED
:012DB50032EB
:102DB700AC82AD83AEF0FFEC4D4E4F60078C828D39
:102DC700830231B422AC82AD83AEF0FFEC4D4E4F9F
:102DD7007007900000E4F5F022C007C006C005C0E8
:102DE70004123148AA82AB83D004D005D006D0079D
:102DF7008A00EBF93395E0FAFB8C7A8D7B8E7C8F1A
:102E07007D888289838AF0EB022F4FAC82AD83AE37
:102E1700F0FF90014CE0F8A3E0F9A3E0FAA3E0FB90
:102E2700C3EC98ED99EE9AEF64808BF063F0809590
:102E3700F040088C828D838EF0EF22E8C39CF8E97E
:102E47009DF9EA9EFAEB9F888289838AF0C007C0C2
:102E570006C005C004122DCCA882A983AAF0FBD016
:102E670004D005D006D007EC28FCED39FDEE3AFE7C
:102E7700EF3B8C828D838EF022AC82AD83AEF0FF68
:102E8700900150E0F8A3E0F9A3E0FAA3E0FBECC35C
:102E970098F516ED99F517EE9AF518EF9BF5199039
:102EA7000158E0F51AA3E0F51BA3E0F51CA3E0F534
:102EB7001D90015CE0FCA3E0FDA3E0FEA3E0FFECB6
:102EC700C3951AF57AED951BF57BEE951CF57CEF0E
:102ED700951DF57D8516828517838518F0E519C040
:102EE70003C002C001C0001231E485821685831732
:102EF70085F018F519D000D001D002D00390015405
:102F0700E0FCA3E0FDA3E0FEA3E0FFECC398F57AA5
:102F1700ED99F57BEE9AF57CEF9BF57D851682851D
:102F270017838518F0E519123021AC82AD83AEF016
:102F3700FFE51A2CFCE51B3DFDE51C3EFEE51D3FAC
:072F47008C828D838EF022C5
:102F4F00F9C2D530E715D2D5E4C39582F582E49561
:102F5F0083F583E495F0F5F0E499F9E57D30E71515
:102F6F00E4C3957AF57AE4957BF57BE4957CF57C63
:102F7F00E4957DF57DE9122F9E30D512E4C395823D
:102F8F00F582E49583F583E495F0F5F0E49922F961
:102F9F00E57A457B457C457D60777800C308E57D04
:102FAF0020E73BE57A25E0F57AE57B33F57BE57C99
:102FBF0033F57CE57D33F57DE582957AE583957B69
:102FCF00E5F0957CE9957D50D4C3E57D13F57DE55E
:102FDF007C13F57CE57B13F57BE57A13F57AE582B7
:102FEF00957AFCE583957BFDE5F0957CFEE9957D73
:102FFF004007F98EF08D838C82C3E57D13F57DE557
:10300F007C13F57CE57B13F57BE57A13F57AD8CE47
:10301F00E922FBC2D530E715D2D5E4C39582F582FC
:10302F00E49583F583E495F0F5F0E49BFBE57D30C3
:10303F00E717B2D5E4C3957AF57AE4957BF57BE48F
:10304F00957CF57CE4957DF57DEB12307330D513CF
:10305F00FBE4C39582F582E49583F583E495F0F55F
:10306F00F0E49B22FB7A20E4FCFDFEFFE582258243
:10307F00F582E58333F583E5F033F5F0EB33FB4071
:10308F0017DAE98042E5822582F582E58333F583FD
:10309F00E5F033F5F0EB33FBEC33FCED33FDEE33C2
:1030AF00FEEF33FFEC957AED957BEE957CEF957DFA
:1030BF004013EC957AFCED957BFDEE957CFEEF953C
:0930CF007DFF438201DABEEB2211
:1030D80022AF82BF02005036EF75F002A424B9F582
:1030E80082740235F0F583E57AF0E57BA3F0BF0042
:1030F800028005BF0118800B900160E024FF9288D0
:10310800D2A822900160E0FF24FF928AD2AA22AFBF
:1031180082BF02005028BF00028005BF010880045A
:10312800C2A88002C2AAEF75F002A424B9FE7402F4
:0F31380035F0FF8E828F8374D8F07430A3F022AD
:10314800AC76AD77AE78AF798D00EEC313C813C8EF
:10315800C313C813C8F9EF030354C049F9EF0303B5
:10316800543FFA7B00EC6200ED6201EE6202EF620E
:1031780003E828FDE933FEEA33FF7C00E86204E94E
:103188006205EA6206EB6207EFC313F8E4F9FAFB9B
:10319800E86204E96205EA6206EB62078C768D77DD
:1031A8008E788F798C82747F5DF58322AE82AF83AF
:1031B8007D007C008E768F778D7874804CF579222F
:1031C80020F71430F6148883A88220F507E6A88330
:1031D80075830022E280F7E49322E022AAF0FBE55F
:1031E80082857AF0A4FCADF0E583857AF0A42DFD04
:1031F800E435F0FEE582857BF0A42DFDE5F03EFE8A
:10320800E433FFEA857AF0A42EFEE5F03FFFE5837C
:10321800857BF0A42EFEE5F03FFFE582857CF0A4D7
:103228002EFEE5F03FFFEB857AF0A42FFFEA857BC1
:10323800F0A42FFFE583857CF0A42FFFE582857D30
:0A324800F0A42F8EF08D838C8222FB
:103252009002BDE0FF7E008F828E83A3757A108E6E
:103262007B123393AE829002BEE0FFEEB5070122DD
:103272009002BDE02461F582E43401F583E599F022
:103282009002BDEEF0223004409002BFE0FF9002B7
:10329200C0E0FEEFB50605A204C204229002C0E01F
:1032A2002471F582E43401F583E0F5999002C0E0DF
:1032B200FF7E008F828E83A3757A108E7B123393EA
:0A32C200AE82AF839002C0EEF0224E
:1032CC009002C1E0FF7E008F828E83A3757A108EF0
:1032DC007B123393AE829002C2E0FFEEB50701225F
:1032EC009002C1E02481F582E43401F583E5C1F05C
:1032FC009002C1EEF0223005409002C3E0FF900234
:10330C00C4E0FEEFB50605A205C205229002C4E09A
:10331C002491F582E43401F583E0F5C19002C4E018
:10332C00FF7E008F828E83A3757A108E7B1233936F
:0A333C00AE82AF839002C4EEF022CF
:10334600E57A457B60467A01E57A25E0F57AE57B04
:10335600334012F57BE582957AE583957B40030A37
:1033660080E6C3E57B13F57BE57A13F57AC3E58240
:10337600957AF5F0E583957B4005F58385F082C364
:10338600E57B13F57BE57A13F57ADAE122C2D5E51A
:103396008330E70DD2D5E4C39582F582E49583F5B3
:1033A60083E57B30E70BE4C3957AF57AE4957BF504
:1033B6007B12334630D50BE4C39582F582E49583C0
:0333C600F583226A
:0533C900763700310021
:1033CE0000000000000000002A2B28000000000072
:1033DE0000000000000000000000000000000000DF
:1033EE002C9EB4A0A1A2A434A6A7A5AE362D373824
:1033FE00271E1F20212223242526B333B62EB7B82D
:10340E009F8485868788898A8B8C8D8E8F909192EA
:10341E00939495969798999A9B9C9D2F3130A3AD36
:10342E00350405060708090A0B0C0D0E0F101112B4
:10343E00131415161718191A1B1C1DAFB1B0B500B1
:10344E0012011001EF020108091250C5010101021B
:10345E0003011200090264000301008064080B00DE
:10346E000202020104090400000102020104052403
:10347E0000100105240100000424020205240600A8
:10348E00010705810308004009040100020A00003B
:10349E0004070502024000000705820240000009F1
:1034AE0004020001030101000921100121012295EE
:1034BE00000705830310000A950005010906A10106
:1034CE008501050719E029E7150025019508750105
:1034DE00810295017508810395067508150026FF72
:1034EE00000507190029E7810005081901290515AE
:1034FE00002501950575019102950175039103C093
:10350E00050C0901A1018502150026FF0319002AE9
:10351E00FF03950475108100C005010902A1010980
:10352E0001A100850305091901290315002501953F
:10353E0003750181029501750581030501093009A5
:10354E003109381581257F750895038106C0C06441
:10355E00000403090404000C034300480035003541
:10356E000078000C0016032D005900750061006EE6
:10357E00002D0033006B006500790016001703590B
:10358E0000750061006E002D005300650072006929
:10359E000061006C0018000E032D005900750061CB
:0735AE00006E002D000E006D
:1035B5000000000000000000000000000000000105
:1035C50000000000000000000000000000000304EF
:1035D50000000200000000000101010101010101DC
:1035E50000000202020202020202000003030303BA
:1035F500030303030000040404040404040400009A
:103605000102040810204080000001020408102077
:1036150040800000010204081020408000000102E3
:103625000408102040800000FFFFFFFFFFFFFFFFA1
:10363500FFFFFF00FFFF0102FFFFFFFFFFFFFFFF8F
:10364500FFFFFFFFFFFFFFFF03FFFFFFFFFFFFFF81
:10365500FFFFFFFFFFFFFFFFFFFFFFFFFFFFFFFF75
:10366500FFFFFFFFFFFFFFFFFFFFFFFFFFFFFFFF65
:10367500FFFFFFFFFFFFFFFFFFFFFFFFFFFFFFFF55
:10368500FFFFFFFFFFFFFFFFFFFFFFFFFFFFFFFF45
:10369500FFFFFFFFFFFFFFFFFFFFFFFFFFFFFFFF35
:1036A500FFFFFFFFFFFFFFFFFFFFFFFFFFFFFFFF25
:1036B500FFFFFFFFFFFFFFFFFFFFFFFFFFFFFFFF15
:1036C500FFFFFFFFFFFFFFFFFFFFFFFFFFFFFFFF05
:1036D500FFFFFFFFFFFFFFFFFFFFFFFFFFFFFFFFF5
:1036E500FFFFFFFFFFFFFFFFFFFFFFFFFFFFFFFFE5
:1036F500FFFFFFFFFFFFFFFFFFFFFFFFFFFFFFFFD5
:10370500FFFFFFFFFFFFFFFFFFFFFFFFFFFFFFFFC4
:10371500FFFFFFFFFFFFFFFFFFFFFFFFFFFFFFFFB4
:10372500FFFFFFFFFFFFFFFFFFFFFFFFFFFFFFFFA4
:10373500FFFFFFFFFFFFFFFFFFFFFFFFFFFFFFFF94
:05374500FFFFFFFFFF84
:0B374A0000E10000000008000000008B
:103755000000000000000000000000000000000064
:0537650000000000005F
:01376A00005E
:02376B0000005C
:04376D00D830D83048
:043771000000000054
:043775000000000050
:00000001FF
